:020000040000fa
:10000000f09301205973030107c503010dc50301d6
:1000100019c503011fc5030125c503010000000028
:1000200000000000000000000000000059cc0101a9
:1000300013c503010000000079cd0101e7cd0101e6
:100040004df50101595c020163a50101c9ff0101e0
:1000500063a5010163a5010163a5010163a5010178
:1000600063a5010163a5010163a5010163a5010168
:10007000392d0101b192010163a5010163a50101bf
:1000800063a5010163a5010163a5010163a5010148
:1000900063a5010163a50101e12d020163a5010131
:1000a00063a5010163a5010163a5010163a5010128
:1000b00063a5010163a5010163a50101bd4d030114
:1000c000bd02030163a5010163a5010163a501014f
:1000d00063a5010163a501019d5f030163a5010102
:020000040000fa
:020000040004f6
:045f8800ffff000017
:020000040000fa
:020000040004f6
:045f8c0000400e843f
:020000040000fa
:020000040004f6
:045f900038fc745f06
:020000040000fa
:020000040004f6
:045f94003844161463
:020000040000fa
:020000040004f6
:045f98000300007191
:020000040000fa
:020000040004f6
:045f9c0002000000ff
:020000040000fa
:020000040004f6
:045fbc0000000010d1
:020000040000fa
:020000040100f9
:1040000000203200f8000020000000000000000046
:1040100001203200f8000020000000000000000035
:1040200002203200f8000020000000000000000024
:1040300003203200f8000020000000000000000013
:1040400004203200f8000020000000000000000002
:1040500005203200f80000200000000000000000f1
:1040600006203200f80000200000000000000000e0
:1040700007203200f80000200000000000000000cf
:10408000f8b500bff8bc08bc9e4670471d8d030103
:10409000f8b500bff8bc08bc9e467047f98c030118
:020000040000fa
:020000040100f9
:0840a000acd601000100000094
:020000040000fa
:020000040100f9
:1040a80090b5b3b002af03463a60fb710b46bb80d4
:1040b800fb792c2b17d107f1b001002304223868b3
:1040c80010f0e6f80346002b40f03a82bf4b1b681d
:1040d800002b00f03582bd4b1b6807f1b00211467a
:1040e8002c2098472ce2fb791b2b17d107f1a8014c
:1040f80000230822386810f0cbf80346002b40f064
:104108001f82b24b1b68002b00f01a82af4b1b6852
:1041180007f1a80211461b20984711e2fb79062bec
:1041280017d107f10c0101233022386810f0b0f8dc
:104138000346002b40f00482a44b1b68002b00f0c0
:10414800ff81a24b1b6807f10c0211460620984715
:10415800f6e1fb790e2b00f0f381fb79322b17d1b6
:1041680007f1900100231822386810f091f80346ef
:10417800002b40f0e581954b1b68002b00f0e08197
:10418800924b1b6807f19002114632209847d7e1fd
:10419800fb793d2b14d1012300220021386810f04f
:1041a80077f80346002b40f0cb81884b1b68002b27
:1041b80000f0c681854b1b6800213d209847bfe170
:1041c800fb792f2b1ed107f10c036422002118461e
:1041d80039f016ff07f10c0100236422386810f04b
:1041e80057f80346002b40f0ab81784b1b68002b37
:1041f80000f0a681754b1b6807f10c0211462f20b1
:1042080098479de1fb79342b36d107f18c010023c7
:104218000422386810f03cf80346002b40f09081e7
:1042280029f0d8f90346012b1bd929f0a7f9034631
:104238001846d7f88c301b0edbb21946d7f88c30ed
:104248001b0cdbb21c46d7f88c301b0adbb2d7f844
:104258008c20d2b20192009323460a465c4914f09e
:1042680059fd5a4b1b68002b00f06a81574b1b689d
:1042780000213420984763e1fb79112b1ed1554b5f
:1042880000221a7007f188010023042238680ff011
:10429800ffff0346002b40f0538197f888204e4bd0
:1042a8001a704a4b1b68002b00f04a81474b1b6869
:1042b80007f1880211461120984741e1fb79132b39
:1042c80017d107f10c0100232c2238680ff0e0ff0a
:1042d8000346002b40f034813c4b1b68002b00f058
:1042e8002f813a4b1b6807f10c021146132098479f
:1042f80026e1fb79042b17d107f1b401002304222e
:1043080038680ff0c5ff0346002b40f019812f4b8a
:104318001b68002b00f014812c4b1b6807f1b402ba
:104328001146042098470be1fb79652b17d107f15b
:10433800b4010023042238680ff0aaff0346002bbb
:1043480040f0fe80214b1b68002b00f0f9801f4bca
:104358001b6807f1b402114665209847f0e0fb7925
:10436800092b17d107f10c010123642238680ff0db
:104378008fff0346002b40f0e380144b1b68002b93
:1043880000f0de80114b1b6807f10c021146092072
:104398009847d5e0fb792a2b20d107f18401012326
:1043a800042238680ff074ff0346002b40f0c880e1
:1043b800064b1b68002b00f0c380044b1b6807f1f9
:1043c800840211462a209847bae000bf28cc002072
:1043d800ecf801012ccc002024cc0020fb79272b01
:1043e80017d107f180010023042238680ff050ff2d
:1043f8000346002b40f0a480534b1b68002b00f0b1
:104408009f80514b1b6807f180021146272098476f
:1044180096e0fb79202b22d107f1780100230822ae
:1044280038680ff035ff0346002b40f089803b6861
:1044380003f10800b96fb7f87c2001230ff028ffbb
:104448000346002b7cd1404b1b68002b78d03e4b99
:104458001b6807f1780211462020984770e0fb7925
:104468001d2b5dd107f174010023042238680ff079
:104478000fff0346002b63d1b7f87630a7f8bc309e
:10448800b7f87430a7f87230304b1b68002b57d040
:104498002f4b1b68002b53d02e4b1b88002b4fd063
:1044a800012387f8bf30b7f872202a4b1b889a423d
:1044b80007d9002387f8bf30264b1b88a7f8703030
:1044c80003e0b7f87230a7f87030b7f8bc203b6843
:1044d800d0181f4b1968b7f8702097f8bf300ff045
:1044e800d7fe0346002b2ad1b7f87220b7f87030f0
:1044f800d31a9bb2a7f87230b7f87020b7f8bc305f
:104508001344a7f8bc30114b1b68114a116807f116
:1045180070021d209847b7f87230002bc0d10fe009
:1045280029f058f80346002b0ad029f027f803464b
:104538001846fb791a46084914f0ecfb00e000bf66
:1045480000bfc437bd4690bd28cc002044cc002015
:1045580048cc00204ccc00200cf9010180b582b079
:1045680000af0023fb7112f019ff0346fb7197f9a6
:104578000730002b05d10cf079fa054b01221a708f
:1045880000e000bf97f9073018460837bd4680bde0
:1045980025cc002080b584b000af78600023fb7381
:1045a8007b68002b0ed129f015f80346002b06d0a6
:1045b80028f0e4ff03464c49184614f0abfbf423fb
:1045c800fb738be07b681b78002b06d07b68184652
:1045d80039f01efd0346202b0ed928f0fbff0346b9
:1045e800002b06d028f0caff03464049184614f0ad
:1045f80091fbf423fb7371e07b6893f821300e2b59
:1046080004d87b6893f82130002b0ed128f0e2ff04
:104618000346002b06d028f0b1ff0346344918465c
:1046280014f078fbf423fb7358e07b6893f841306f
:10463800002b18d17b6893f84230002b13d17b688c
:1046480093f84330002b0ed128f0c4ff0346002b0b
:1046580006d028f093ff03462649184614f05afb63
:10466800f423fb733ae07b6893f83f30012b34d096
:104678007b6893f83f30032b02d1f423fb732de0c2
:104688007b6893f83f30022b18d17b6893f823306e
:10469800072b04d97b6893f82330402b1ed928f0c8
:1046a80099ff0346002b06d028f068ff03461249fd
:1046b800184614f02ffbf423fb730fe028f08aff51
:1046c8000346002b06d028f059ff03460b4918462d
:1046d80014f020fbf423fb7300e000bf97f90f30c0
:1046e80018461037bd4680bd24f9010138f901018b
:1046f80048f9010158f9010174f901018cf9010126
:1047080080b584b000af78600023fb737b68002b12
:104718000ed128f05fff0346002b06d028f02effad
:1047280003463849184614f0f5faf423fb7362e09f
:104738007b681b78002b11d128f04cff0346002b17
:1047480009d028f01bff034618467b681b781a46d9
:104758002d4914f0dffaf423fb734ce07b685b7897
:10476800092b03d97b685b78fa2b11d928f032ff23
:104778000346002b09d028f001ff034618467b6842
:104788005b781a46214914f0c5faf423fb7332e02a
:104798007b689b78002b03d07b689b78022b11d910
:1047a80028f018ff0346002b09d028f0e7fe03463f
:1047b80018467b689b781a46154914f0abfaf4231f
:1047c800fb7318e07b6893f90330002b12db28f0a9
:1047d80001ff0346002b0ad028f0d0fe03461846f6
:1047e8007b6893f903301a460a4914f093faf423c4
:1047f800fb7300e000bf97f90f3018461037bd462d
:1048080080bd00bf24f90101acf90101ccf9010117
:10481800ecf901011cfa010180b588b004af786099
:10482800f423fb73002302934ff42b7301937b68eb
:10483800009300230022832105200ff09ff90346ef
:10484800fb7397f90f3018461037bd4680bd80b509
:1048580082b000aff423fb7112f0ecfd0346fb714c
:1048680097f90730002b02d1044b01221a7097f9ef
:10487800073018460837bd4680bd00bf25cc00204c
:1048880090b591b002af7860002387f837300123e4
:10489800fb727b68002b03d1f42387f83730c4e020
:1048a8007b681b68644a13607b689b68634a136073
:1048b8007b68db68624a13607b681a8a614b1a80de
:1048c8007b689b7c002b01d00423fb725e4b00228b
:1048d8001a7007f10b03184612f0eafd034687f831
:1048e800373097f93730002b40f09c80574b022225
:1048f8001a7000200ff006f9034687f8373097f949
:104908003730002b40f08680514901200ff058fdc8
:1049180007f10c03184612f003fc034687f83730fa
:1049280028f058fe0346012b06d928f027fe034637
:104938004849184614f0eef928f04cfe0346012bbe
:1049480010d928f01bfe034618463b7c19467b7c91
:104958001c46bb7cba8d0192009323460a463e4909
:1049680014f0d8f928f036fe0346012b0fd928f0a9
:1049780005fe0346184607f10c0303f1160107f17b
:104988000c0303f10a020b46344914f0c3f928f06a
:1049980021fe0346012b0dd928f0f0fd03461846e9
:1049a800fb7c1a463b7d19467b7d00930b462c49c0
:1049b80014f0b0f928f00efe0346012b0ad928f0ae
:1049c800ddfd0346184606230093072313222549d5
:1049d80014f0a0f928f0fefd0346012b08d928f0b1
:1049e800cdfd03461846204b204a214914f092f980
:1049f80097f9373013f10d0f16d128f0ebfd034668
:104a0800002b11d028f0bafd03461a49184614f0b5
:104a180081f909e000bf0d4b00221a70002012f046
:104a2800bcfd02e000bf00e000bf97f93730184630
:104a38003c37bd4690bd00bf28cc002044cc0020a8
:104a480048cc00204ccc00202ccc002025cc0020c9
:104a5800a940000138fa010154fa010178fa01016c
:104a680098fa0101bcfa0101d4fa0101e0fa010146
:104a7800ecfa01010cfb010180b584b000af78604d
:104a88000023fb73fff7e3fe0346fb7397f90f3030
:104a9800002b04d17868fff7f3fe0346fb7397f900
:104aa8000f3018461037bd4680bd80b582b000afc4
:104ab8007860074b00221a7000200ff047f800209a
:104ac80012f06bfd002318460837bd4680bd00bfb5
:104ad80025cc002080b500af0ff0b6fb0346184682
:104ae80080bd80b590b004af78600b46fb7007f1cd
:104af8000c0324220021184639f082faff233b7365
:104b080007f10c0200230293002301930023009372
:104b18002423272101200ff031f8034618463037a7
:104b2800bd4680bd80b584b004af00230293002346
:104b380001930023009300230022292101200ff074
:104b48001df803461846bd4680bd80b586b000af47
:104b58003b600346fb710b46bb711346bb80f423d5
:104b6800fb75bb882c33bb823b68002b72d03b683b
:104b78005b68002b6ed03b681b7a202b6ad83b6a97
:104b8800002b64d03b6a3b613b6a0433fb603022f4
:104b98000021386a39f034fa3b69ba8a1a80fb79fd
:104ba800012b0bd0022b02d0002b0ed057e03b6913
:104bb8009b7843f00203dab23b699a703b699b78b1
:104bc80043f00103dab23b699a7000bf3b685b7a35
:104bd800ff2b04d13b685a7a3b69da700de03b68d9
:104be8005b7a0e2b38d83b685b7a002b34d03b6855
:104bf8005b7a013bdab23b69da70bb79002b2dd0c6
:104c0800bb79042b2ad8fb68ba7983f828203b683b
:104c18001a7afb681a70fb68581c3b6859683b682d
:104c28001b7a1a4638f035ff3b681b68002b0cd0fe
:104c3800fb68012283f82120fb6803f122003b680e
:104c48001b680622194638f024ff0023fb7597f9e4
:104c5800173006e000bf02e000bf00e000bf6ff0c1
:104c68000e0318461837bd4680bd80b483b000af28
:104c78000346fb71fb79303bfb71fb79092b01d8ab
:104c8800fb790ee0fb7943f02003fb71fb79313ba4
:104c9800fb71fb79052b03d8fb790a33dbb200e003
:104ca800ff2318460c37bd465df8047b704780b576
:104cb80086b000aff860b9601346fb712ce0bb68a2
:104cc8005a1cba601b781846fff7cfff0346fb75de
:104cd800fb7d0f2b02d96ff00e0323e0fb7d1b0138
:104ce800dab2fb681a70bb685a1cba601b7818469f
:104cf800fff7bbff0346fb75fb7d0f2b02d96ff057
:104d08000e030fe0fb681a78fb7d1344dab2fb68e8
:104d18001a70fb680133fb60fb795a1efa71002b8d
:104d2800cdd1002318461837bd4680bd80b594b054
:104d380004af03463960fb71f12387f83f30f879f7
:104d480007f10c0300933b6800220121fff7fdfee9
:104d5800034687f83f3097f93f30002b0fd107f112
:104d68000c020023029300230193002300933023b5
:104d78003b2101200ef002ff034687f83f3097f9e8
:104d88003f3018464037bd4680bd80b485b000af7f
:104d98000346b9607a60fb736ff00f031846143747
:104da800bd465df8047b704780b596b004af0346f6
:104db800b9607a60fb73f12387f847307b68002b72
:104dc8007dd0f87b07f110030093bb686c220221a9
:104dd800fff7bbfe034687f8473097f94730002bab
:104de8006dd16c201bf065fd38643b6c002b63d0e3
:104df8006c220021386c39f003f97b681b68002ba2
:104e080025d07b685b68002b03d0f12387f84730f7
:104e18003ae03b6c40221a703b6c581c7b6819685e
:104e28003b6c1b785b08dbb21a46fff740ff034672
:104e3800002b02d0f12387f847303b6c581c7b6865
:104e480019683b6c1b781a4638f023fe1ce07b6817
:104e58005b68002b15d07b681b7a402b03d9f123a4
:104e680087f8473010e07b681a7a3b6c1a703b6c05
:104e7800581c7b6859683b6c1b781a4638f009fe49
:104e880002e0f12387f8473097f94730002b0fd11c
:104e980007f11002302302936c2301933b6c0093bb
:104ea8003023bb2101200ef069fe034687f8473006
:104eb800386c1bf00afd02e0fd2387f8473097f9ac
:104ec800473018464837bd4680bdb0b584b000affe
:104ed8000346b9607a60fb73bb68002b05d17b6819
:104ee800002b02d06ff00e03afe0fb7b032b00f228
:104ef800a88001a252f823f0114f0001bf4f000112
:104f0800fb4f00014d4f00017b68042b02d06ff06e
:104f18000e039ae0bb681b68002b08d0012b0dd14b
:104f28004c4b1b6823f002034a4a136009e0494bc3
:104f38001b6843f00203474a136002e06ff00e0358
:104f480083e081e07b68012b02d06ff00e037ce0e8
:104f5800bb681b78012b10d0022b1bd0002b26d14d
:104f68003c4b1b6823f004033a4a1360394b1b6817
:104f780023f00803374a13601ce0364b1b6843f0e4
:104f88000403344a1360334b1b6843f00803314a67
:104f980013600fe02f4b1b6843f004032d4a136086
:104fa8002c4b1b6823f008032a4a136002e06ff0b9
:104fb8000e034ae048e07b68042b02d06ff00e0332
:104fc80043e0bb681b68002b08d0012b0dd1214b97
:104fd8001b6843f010031f4a136009e01d4b1b6850
:104fe80023f010031b4a136002e06ff00e032ce05d
:104ff8002ae07b68002b14d07b68142b1dd1154b3d
:105008001b6843f04003134a1360134abb681446f5
:105018001d4628686968aa68eb680fc4286920607b
:105028000ee00c4b1b6823f040030a4a136014225d
:105038000021094838f0e4ff02e06ff00e0304e0b5
:1050480002e06ff00e0300e0002318461037bd465b
:10505800b0bd00bff0ce002030cc0020b0b485b089
:1050680000af0346b9607a60fb73bb68002b02d1be
:105078006ff00e037de0fb7b032b76d801a252f87c
:1050880023f000bf9d5000010f5100013351000172
:10509800cb5000017b681b68032b02d86ff00e030e
:1050a80067e07b6804221a60344b1b6803f0020334
:1050b800002b0cbf01230023dbb21a46bb681a6021
:1050c80056e07b681b68002b02d16ff00e0350e09e
:1050d8007b6801221a60294b1b6803f00403002b2c
:1050e80003d1bb6800221a7042e0244b1b6803f00e
:1050f8000803002b03d0bb6801221a7038e0bb6894
:1051080002221a7034e07b681b68032b02d86ff008
:105118000e032ee07b6804221a60184b1b681b09db
:1051280003f00102bb681a6022e0144b1b6803f00d
:105138004003002b15d07b681b68132b02d86ff037
:105148000e0316e07b6814221a60bb680c4a1d46e1
:1051580014460fcc28606960aa60eb60206828615b
:1051680006e07b6800221a6002e06ff00e0300e0a0
:10517800002318461437bd46b0bc7047f0ce002057
:1051880030cc0020b0b598b004af0346b9607a605f
:10519800fb73f12387f84f307b68002b00f0d78032
:1051a8007b681b68002b02d17b6800229a817b6890
:1051b8005b68002b00f0cb807b689b68002b00f0bd
:1051c800c6807b689b891a467b68db891344642bfd
:1051d80000f2bd807b681b8ab3f5807f00f2b78040
:1051e8007b689a897b68db8913449ab27b681b8a3f
:1051f80013449bb22c33a7f84630b7f84620f87b07
:1052080007f110030093bb680421fff79efc0346d7
:1052180087f84f3097f94f30002b40f09880b7f857
:10522800463018461bf045fb38643b6c002b00f0f9
:105238008b803b6c2c33bb64b7f846301a46002190
:10524800386c38f0ddfe3b6c01221a707b689b7c61
:10525800002b06d03b6c1b7863f07f03dab23b6c03
:105268001a707b68db7c002b06d03b6c1b7843f004
:105278004003dab23b6c1a703b6c2c22da70374b65
:105288001a683b6c5a623b6c0c33354a1d4614460f
:105298000fcc28606960aa60eb60206828613b6ccd
:1052a80000225a707b681b68002b12d07b689b8990
:1052b800dab23b6c5a707b6819683b6c5b781a46ab
:1052c800b86c38f0e6fb3b6c5b781a46bb6c134451
:1052d800bb647b68db89dab23b6c9a707b6859687f
:1052e8003b6c9b781a46b86c38f0d3fb3b6c9b78c8
:1052f8001a46bb6c1344bb643b6c2c33ba6cd31a90
:105308009ab23b6c9a807b681a8a3b6cda807b681d
:1053180099683b6cdb881a46b86c38f0bafb07f121
:10532800100230230293b7f8463001933b6c009388
:105338003023bb2101200ef021fc034687f84f30b3
:10534800386c1bf0c2fa02e0fd2387f84f3097f95a
:105358004f3018465037bd46b0bd00bff0ce0020d4
:1053680030cc0020b0b59ab004af0346b9607a607b
:10537800fb73f12387f857307b68002b00f03a81e4
:105388007b681b68002b02d17b6800229a827b68ad
:105398005b68002b00f02e817b689b68002b00f077
:1053a80029817b68db68002b00f024817b681b69fe
:1053b800002b00f01f817b689b8a1a467b68db8a7a
:1053c8001344642b00f216817b681b8bb3f5807f36
:1053d80000f210817b685b8bb3f5c66f00f20a811f
:1053e8007b689a8a7b68db8a13449ab27b681b8b3a
:1053f8005b009bb213449ab27b685b8b13449bb2ed
:105408002c33a7f84e30b7f84e20f87b07f110037d
:105418000093bb680421fff798fb034687f85730d1
:1054280097f95730002b40f0e5807b685b8bb7f825
:105438004e20d31aa7f84c30b7f84c3018461bf05a
:1054480038fab864bb6c002b00f0d18007f1400338
:1054580000221a605a60bb6c2c333b65b7f84c309d
:105468001a460021b86c38f0cbfdbb6c02221a70ca
:105478007b681b7f002b06d0bb6c1b7863f07f0317
:10548800dab2bb6c1a707b685b7f002b06d0bb6cf2
:105498001b7843f04003dab2bb6c1a70bb6c2c2249
:1054a800da70574b1a68bb6c5a62bb6c0c33554a9e
:1054b8001d4614460fcc28606960aa60eb6020681e
:1054c8002861bb6c00225a707b681b68002b12d0c5
:1054d8007b689b8adab2bb6c5a707b681968bb6cb4
:1054e8005b781a46386d38f0d4fabb6c5b781a468c
:1054f8003b6d13443b657b68db8adab2bb6c9a7000
:105508007b685968bb6c9b781a46386d38f0c1facd
:10551800bb6c9b781a463b6d13443b65bb6c2c33c4
:105528003a6dd31a9ab2bb6c9a807b681a8bbb6ca3
:10553800da807b689968bb6cdb881a46386d38f06e
:10554800a8fabb6cdb881a463b6d13443b657b6845
:10555800d968bb6cdb881a46386d38f09afabb6c90
:10556800db881a463b6d13443b65bb6c2c333a6da4
:10557800d31a9ab2bb6c1a817b685a8bbb6c5a815e
:10558800012387f84030bb6c1b89a7f84430bb6cfb
:105598005b89a7f846307b681b697a68528b07f1ec
:1055a8004000082102910192009308230246bc2181
:1055b80001200ef0e3fa034687f8573097f9573081
:1055c800002b10d107f1100230230293b7f84c30aa
:1055d8000193bb6c00933023bb2101200ef0cefa5f
:1055e800034687f85730b86c1bf06ff902e0fd23cb
:1055f80087f8573097f9573018465837bd46b0bd29
:10560800f0ce002030cc002080b586b002aff86024
:105618007b600b46fb721346bb72ba7af97a002399
:1056280001933b8b00937b68f86800f005f803460c
:1056380018461037bd4680bd80b594b000aff860fd
:105648007b600b46fb721346bb72f12387f84f3021
:105658000023bb63fb68fb63fb7a87f84030b7f82d
:105668005830dbb287f8413097f85c30002b01d016
:10567800002300e0022387f84e30fb7a202b0ed857
:1056880008e0fa6bfb7a13441b78002b02d1fb7af3
:1056980087f84030fb7a5a1efa72002bf1d1bb7a98
:1056a800013b032b00f2908001a252f823f000bfc7
:1056b800c9560001e156000137570001755700012e
:1056c80007f1380297f84e3011461846fff72efbbf
:1056d800034687f84f307ee07b68002b76d00023a6
:1056e800fb6200233b63002387f83430786838f086
:1056f8008ffc0346a7f84c30b7f84c30402b02d14a
:105708007b68fb6206e07b683b63b7f84c30dbb232
:1057180087f8343007f12c0207f1380197f84e303a
:105728001846fff741fb034687f84f304ee07b6889
:10573800002b4dd07b68bb64bb6c02337b62bb6cb7
:105748005b78013bdbb287f82830bb6c1b7887f8a5
:10575800293007f1240207f1380197f84e3018462e
:10576800fff713fb034687f84f3031e07b68002bc7
:1057780030d07b687b6407f1100300221a605a60fe
:105788009a60da601a617b6c7b617b6c1533bb6154
:105798007b6c184638f03cfc03469bb2fb837b6c61
:1057a8001533184638f034fc03469bb23b8407f1a6
:1057b800100207f1380197f84e301846fff7e2fc5f
:1057c800034687f84f3005e000bf04e000bf02e061
:1057d80000bf00e000bf97f94f3018465037bd466c
:1057e80080bd80b584b004af0023029300230193e9
:1057f80000230093002300222b2101200ef0bef984
:1058080003461846bd4680bd80b588b004af7860b1
:105818007a6807f108031068186092889a8007f17f
:105828000802002302930023019300230093082316
:10583800022101200ef0a2f9034618461037bd4692
:1058480080bd80b586b004af78607b689a687b6855
:105858009a607b685a687b685a607b681a687b68bc
:105868001a607b681a697b681a6100230293002317
:1058780001930023009318237a680a2102200ef06e
:105888007df9034618460837bd4680bd80b588b007
:1058980004af0346fb71fb79002b01d00b2300e01a
:1058a8000c23fb73f97b002302930023019300234d
:1058b80000930023002202200ef060f903461846e8
:1058c8001037bd4680bd80b586b004af7860002330
:1058d8000293002301930023009304237a6839215b
:1058e80001200ef04bf9034618460837bd4680bd27
:1058f80080b588b004af7860f423fb737b68002b15
:1059080016d07b681b78fa2b12d87b681b789bb261
:1059180001339ab2002302930023019300230093da
:1059280013467a688f2101200ef028f90346fb738d
:1059380097f90f3018461037bd4680bd80b588b03e
:1059480004af7860f423fb737868fef7d9fe03464a
:10595800002b0dd100230293002301930023009311
:1059680004237a68142101200ef008f90346fb731a
:1059780097f90f3018461037bd4680bd80b588b0fe
:1059880004af0346fb71f423fb730023bb60fb7970
:10599800012b24d8fb793b7207f1080200230293fc
:1059a800002301930023009304236b2101200ef0b0
:1059b800e5f80346fb7327f00dfe0346012b10d9cb
:1059c80027f0dcfd034618463b7a002b01d0084b34
:1059d80000e0084b1a46084913f09cf901e0f1234e
:1059e800fb7397f90f3018461037bd4680bd00bfce
:1059f80028fb01012cfb010130fb010180b588b0b7
:105a080004af0346fb80f423fb73fb883b8107f15b
:105a18000802002302930023019300230093042328
:105a2800152101200ef0aaf80346fb7397f90f30f1
:105a380018461037bd4680bd80b588b004af034610
:105a4800fb710023fb731a4b1b78dbb2002b24d1ac
:105a5800fb79002b02d0fb790e2b02d9fb79ff2ba7
:105a680018d1fb793b7207f1080200230293002347
:105a78000193002300930423102101200ef07ef8e7
:105a88000346fb7397f90f30002b09d1084b01220d
:105a98001a7005e0f123fb7303e0f223fb7300e0c7
:105aa80000bf97f90f3018461037bd4680bd00bfbc
:105ab8002ccc002080b588b004af03460a46fb71a1
:105ac8001346bb800023fb731a4b1b78dbb2002bf9
:105ad80026d1fb79002b02d0fb790e2b02d9fb795a
:105ae800ff2b1ad1fb793b72bb887b8107f1080237
:105af800002302930023019300230093042323210e
:105b080001200ef03bf80346fb7397f90f30002b8a
:105b180009d1084b01221a7005e0f123fb7303e059
:105b2800f223fb7300e000bf97f90f3018461037d7
:105b3800bd4680bd2ccc002080b58ab004af03469a
:105b48003960fb71f123fb752b4b1b78dbb2002b03
:105b580048d1fb79002b02d0fb790e2b02d9fb79b7
:105b6800ff2b43d13b68002b40d00023bb82bb8a6c
:105b78003a6813441b78fb74fb7c042b36d8bb8a29
:105b88000133bb8212e0bb8a3a6813441b78202b8e
:105b98002bd8bb8a3a6813441b789ab2bb8a134441
:105ba8009bb20133bb82fb7c013bfb74fb7c002b6b
:105bb800e9d1fb793b7307f10c0204230293bb8afa
:105bc80001933b6800930423a12101200df0d6ff27
:105bd8000346fb7597f91730002b07d1064b0122b6
:105be8001a7003e0f223fb7500e000bf97f9173045
:105bf80018461837bd4680bd2ccc002080b58ab029
:105c080004af03463960fb71104b00221a70fb7910
:105c18003b73fb79002b06d13a6807f10d03116835
:105c2800526819605a6007f10c020023029300239e
:105c38000193002300930c232f2101200df09effd8
:105c4800034618461837bd4680bd00bf2ccc00203f
:105c580080b586b004af0023fb71002302930023b4
:105c680001930023009300230022312101200df02d
:105c780085ff0346fb7197f9073018460837bd467c
:105c880080bd80b584b000af0346fb710023fb7371
:105c980027f0a0fc0346002b06d027f06ffc034634
:105ca8000449184613f036f897f90f30184610379c
:105cb800bd4680bd58fb010180b584b000af0346e6
:105cc800fb710023fb7327f085fc0346002b06d0ed
:105cd80027f054fc03460549184613f01bf897f9ba
:105ce8000f3018461037bd4680bd00bf58fb010174
:105cf80080b588b004af0346fb710023fb73fb79c2
:105d0800012b05d0fb79062b02d0fb790b2b11d187
:105d1800fb793b7207f108020023029300230193e9
:105d28000023009304235b2101200df027ff034685
:105d3800fb730de027f04efc0346002b06d027f03e
:105d48001dfc03460549184612f0e4fff423fb73d3
:105d580097f90f3018461037bd4680bd78fb010112
:105d680080b586b004af0023fb71002302930023a3
:105d7800019300230093002300225c2101200df0f1
:105d8800fdfe0346fb7197f9073018460837bd46f4
:105d980080bd80b5a8b000af78607a6807f10c03c1
:105da80011468822184637f074fe7b6841331b6819
:105db800c7f894307b6841331b68c7f898300023d4
:105dc80087f89c3007f10c03184600f005f80346e5
:105dd8001846a037bd4680bd80b588b004af78604e
:105de800f423fb737868fef7d5fb0346002b0dd12f
:105df80000230293942301937b68009300230022dd
:105e0800c62101200df0bafe0346fb7397f90f3047
:105e180018461037bd4680bd80b588b004af78609d
:105e2800f423fb737b68002b0dd00023029300231f
:105e380001930023009304237a68222101200df0a6
:105e48009dfe0346fb7397f90f3018461037bd4681
:105e580080bd80b586b004af0023fb710023029398
:105e680000230193002300930023002247210120ef
:105e78000df084fe0346fb7197f907301846083782
:105e8800bd4680bd80b586b004af0023fb710023fa
:105e9800029300230193002300930023002203218f
:105ea80001200df06bfe0346fb7197f90730184689
:105eb8000837bd4680bd80b588b004af78600b4612
:105ec8007b80ff23fb737b68002b15d07b88002b1e
:105ed80012d07b883b810e237b8107f108021a23ad
:105ee80002937b8801937b68009304239c21012003
:105ef8000df044fe0346fb7397f90f301846103730
:105f0800bd4680bd80b584b000af7860396000239d
:105f1800fb730df069fd0346fb7397f90f30002bf7
:105f28000dd1396878680bf0f5fa0346fb7397f9d9
:105f38000f30002b03d10df0b9fd0346fb7397f921
:105f48000f3018461037bd4680bd80b584b000af0d
:105f580078600023fb730df047fd0346fb7397f948
:105f68000f30002b0cd178680bf052fb0346fb7303
:105f780097f90f30002b03d10df098fd0346fb7302
:105f880097f90f3018461037bd4680bd80b588b0e8
:105f980004af0346fb710023fb73fb793b7207f1e7
:105fa8000802002302930023019300230093042393
:105fb800122101200df0e2fd0346fb7397f90f3023
:105fc80018461037bd4680bd80b400af034b1b7820
:105fd800dbb21846bd465df8047b704724cc002030
:105fe80080b500af0df040fd0346184680bd80b572
:105ff80088b004af03460a46fb711346bb71002301
:10600800fb73fb793b72bb797b7207f108020023b3
:106018000293002301930023009304232d210120e0
:106028000df0acfd0346fb7327f0d4fa0346012bb1
:1060380008d927f0a3fa03461846fb791a460649f9
:1060480012f068fefb7918460df0fefc97f90f3048
:1060580018461037bd4680bdacfb010180b588b03d
:1060680004af78600023fb730df0fefc0346bb739e
:10607800bb7b042b10d17b68bb6007f108020023af
:106088000293002301930023009304233a21012063
:106098000df074fd0346fb7397f90f30184610375f
:1060a800bd4680bd80b592b004af78600b46fb70ea
:1060b800fb782f2b01d93023fb70fb780133fb7061
:1060c800fa7807f108037968184637f0e2fc07f117
:1060d8000802002302930023019300230093302336
:1060e800072101200df04afd034618463837bd4602
:1060f80080bd80b590b004af78600b46fb70134646
:10610800bb70fb78202b02d96ff00b031ee0fa78e6
:1061180007f10c037968184637f0bbfcfb7807f1e8
:1061280030021344002203f8242cbb7887f82d3062
:1061380007f10c020023029300230193002300932c
:106148002423252101200df019fd03461846303778
:10615800bd4680bd80b500af0af04cfd0346184629
:1061680080bd80b584b000af78600023fb730df06c
:106178003bfc0346fb7397f90f30002b06d1786878
:1061880010f0ceff0346fb730df090fc97f90f302b
:1061980018461037bd4680bd80b5aab000aff8607c
:1061a800b9601346fb71fa6807f114031146882297
:1061b800184637f06efcfb6841331b68c7f89c3003
:1061c800fb6841331b68c7f8a030002387f8a43068
:1061d800fa7907f11403b968184600f005f8034680
:1061e8001846a837bd4680bdf0b5c1b004aff86009
:1061f800b9601346fb71f42387f8ef30fb68002b76
:1062080054d0f868fef7c6f90346002b51d1fa6856
:1062180007f1140311468822184637f03afcfb6848
:1062280003f1880207f1dd0310685168926818606d
:1062380059609a60bb681b78002b02d0bb68002ba2
:106248000cd127f0c7f90346002b31d027f096f977
:1062580003461b49184612f05dfd2ae0bb681c4640
:1062680007f19c0604f1400c354623461868596826
:106278009a68db680fc5103410366445f4d1fb7991
:1062880087f8dc300f4b00221a7007f11402002344
:1062980002930023019300230093d823882101202f
:1062a8000df06cfc034687f8ef3002e000bf00e019
:1062b80000bf97f9ef301846f437bd46f0bd00bf70
:1062c800bcfb01012ccc002080b584b004af0023b6
:1062d80002930023019300230093002300220a2144
:1062e80001200df04bfc03461846bd4680bd80b525
:1062f80084b004af0023029300230193002300938a
:1063080000230022052101200df038fc0346184621
:10631800bd4680bd80b586b004af78603a1d0023c5
:106328000293002301930023009308230b210120eb
:106338000df024fc034618460837bd4680bd80b5dd
:1063480084b004af00230293002301930023009339
:10635800002300221a2101200df010fc03461846e4
:10636800bd4680bd80b588b004af0346fb71fb799c
:10637800002b01d00c2300e00d23fb73f97b0023d5
:10638800029300230193002300930023002201209d
:106398000df0f4fb034618461037bd4680bd80b5a6
:1063a80088b004af0346fb710023fb73fb793b7293
:1063b80007f10802002302930023019300230093ae
:1063c8000423162101200df0d9fb0346fb7397f92e
:1063d8000f3018461037bd4680bd80b588b004af71
:1063e8000346fb710023fb73fb793b7207f108023c
:1063f8000023029300230193002300930423172111
:1064080001200df0bbfb0346fb7397f90f301846cc
:106418001037bd4680bd80b588b004af0346fb7118
:106428000023fb73fb793b7207f1080200230293f8
:1064380000230193002300930423262101200df05b
:106448009dfb0346fb7397f90f3018461037bd467e
:1064580080bd80b588b004af0346fb710023fb7391
:10646800fb793b7207f10802002302930023019392
:10647800002300930423192101200df07ffb03461c
:10648800fb7397f90f3018461037bd4680bd80b5ad
:1064980088b004af0346fb800023fb730023bb6076
:1064a800fb883b8107f10802002302930023019334
:1064b800002300930423182101200df05ffb0346fd
:1064c800fb7397f90f3018461037bd4680bd80b56d
:1064d8008ab004af78600b467b80f423fb7507f124
:1064e8000c0300221a605a607b8840f22c629342a7
:1064f80016d87b68002b13d07b883b827b68fb60b7
:1065080007f10c0200230293002301930023009358
:1065180008239f2101200df031fb0346fb750de098
:1065280027f058f80346002b08d027f027f8034631
:1065380018467b881a46044912f0ecfb97f9173085
:1065480018461837bd4680bdd4fb010180b588b018
:1065580004af7860f423fb730023029300230193b4
:10656800002300930c237a68242101200df006fbf8
:106578000346fb7397f90f3018461037bd4680bda8
:10658800f0b58bb004af78600b46fb70f423fb7555
:106598007b68002b32d0fb78bb747a6807f10c0358
:1065a8001068186092889a8027f014f80346032b25
:1065b80015d926f0e3ff03461c463b7b1d467b7b33
:1065c8001e46bb7bfa7b397c787c03900291019252
:1065d800009333462a460c49204612f09bfb07f1ec
:1065e8000c02002302930023019300230093082345
:1065f8001e2101200df0c2fa0346fb7597f91730ea
:1066080018461c37bd46f0bd0cfc010180b584b0ae
:1066180000af78600b467b800023fb737b68002b00
:1066280006d00d4a7b6813600c4a7b8813800de006
:10663800f423fb7326f0ceff0346002b06d026f08a
:106648009dff03460649184612f064fb97f90f3080
:1066580018461037bd4680bd48cc00204ccc0020e1
:1066680030fc010180b584b000af786000f011f80b
:106678000346fb7397f90f30002b04d1786800f0bc
:1066880012f80346fb7397f90f3018461037bd46ca
:1066980080bd80b500af0020fef707fafef7d7f8f7
:1066a8000346184680bd80b582b000af7860786830
:1066b800fef7e6f8034618460837bd4680bd80b4a5
:1066c80000af044b1b78dbb21846bd465df8047b6f
:1066d800704700bf25cc002080b588b004af0346c2
:1066e800fb7101233b73fb79002b02d0fb79012b53
:1066f80010d1fb797b7307f10c020023029300236e
:106708000193002300930423692101200df036fa38
:10671800034601e06ff00e0318461037bd4680bdf2
:1067280080b586b004af00233b713a1d0023029365
:1067380000230193002300930423692101200df015
:106748001dfa034618460837bd4680bd80b588b097
:1067580004af0346fb71fb79002b02d0fb79012bb8
:1067680010d1fb793b7307f10c020023029300233d
:1067780001930023009304236a2101200df0fef900
:10678800034601e06ff00e0318461037bd4680bd82
:1067980080b58cb004aff860b9603b601346fb80ed
:1067a800fb889b00184616f03bfc78617b69002b40
:1067b8000ed0542016f034fcf861fb69002b03d08e
:1067c800fb697a691a6305e0786916f0ddfc01e077
:1067d8000023fb61fb69002b13d0fa880023039385
:1067e800fb690293fb6a0193bb6a00933b68b96833
:1067f800f86800f00ef8f86900f091f80123bb6121
:1068080002e04ff0ff33bb61bb6918462037bd4635
:1068180080bd80b586b000aff860b9607a603b6033
:10682800bb6a186b7b689b001a46a52137f0e8fb0a
:10683800bb6a1a6b7b6803f18043013b9b001344de
:106848003b613b6923f007033b61bb68002b1fd00a
:1068580000237b6112e0ba687b6913441978ba6a2d
:106868007b69134434330a461a70ba687b69134447
:106878001b78002b06d07b6901337b617b690f2b6a
:10688800e9d900e000bfbb6a002283f8432003e097
:10689800bb6a002283f834203b6a042b01d9042305
:1068a8003b62bb6a3a6ada62bb6a3a6a5a64bb6a92
:1068b80000229a64bb6a0433184621f011fbbb6ab4
:1068c8001833184621f00cfbbb6aba6a1a613b6a96
:1068d800c3f10502bb6a9a61bb6aba6a5a62bb6aab
:1068e8004c3304220021184637f08afbbb6a503328
:1068f80001220021184637f083fb3a68f9683869a5
:1069080016f05af90246bb6a1a607b6a002b02d05d
:106918007b6aba6a1a6000bf1837bd4680bd80b569
:1069280084b000af786016f0f0f93f4b1b68013374
:106938003d4a13603d4b1b68002b09d13b4a7b68dd
:106948001360394b1b68012b10d101f0b7f90de02a
:10695800374b1b68002b09d1344b1b68da6a7b68fc
:10696800db6a9a4202d8314a7b681360314b1b6854
:106978000133304a13607b68db6a01229a402e4b50
:106988001b6813432c4a13607b68da6a2b49134649
:106998009b0013449b000b4404331b68fb607b681b
:1069a800fa689a60fb689a687b68da60fb689b689b
:1069b8007a6804325a607b681a1dfb689a607b68a3
:1069c800da6a13469b0013449b001c4a1a447b68ee
:1069d8005a617b68da6a194913469b0013449b0085
:1069e8000b441b68591c154813469b0013449b0015
:1069f8000344196016f0a2f90d4b1b68002b0ed04a
:106a08000a4b1b68da6a7b68db6a9a4207d20c4b2e
:106a18004ff080521a60bff34f8fbff36f8f00bfe4
:106a28001037bd4680bd00bfccbc0020f4bb0020a1
:106a3800d8bc0020e8bc0020d4bc0020f8bb002053
:106a480004ed00e080b584b000af786016f05df921
:106a58007b68002b02d1344b1b6800e07b68fb602d
:106a6800fb680433184621f0a5fa0346002b15d11c
:106a7800fb68da6a2d4913469b0013449b000b44bc
:106a88001b68002b0ad1fb68db6a012202fa03f3b8
:106a9800da43274b1b681340254a1360fb689b6a3f
:106aa800002b04d0fb681833184621f083fa214bd9
:106ab8001b6801331f4a13601b4b1b68fa689a4214
:106ac8000bd1fb68043319461b4821f016fa1b4bff
:106ad8001b680133194a136006e0194b1b68013b18
:106ae800174a136001f066f916f028f90e4b1b6877
:106af800fa689a4202d0f86801f04cf9114b1b6809
:106b0800002b0cd0084b1b68fa689a4207d10e4b31
:106b18004ff080521a60bff34f8fbff36f8f00bfe3
:106b28001037bd4680bd00bff4bb0020f8bb002075
:106b3800d4bc0020e8bc0020a0bc0020b4bc0020cd
:106b4800ccbc0020d8bc002004ed00e080b586b0a5
:106b580000af7860396000237b6100f0f5fa224bc2
:106b68001b683b617b681b683a681344fb607b6861
:106b78001b683a699a420bd27b681b68fa689a428a
:106b880011d2fa683b699a420dd901237b610ae068
:106b98007b681b68fa689a4203d3fa683b699a4291
:106ba80001d901237b617b68fa681a607b69002b35
:106bb80006d0fa683b69d31a0021184601f022ff73
:106bc80000f00afbb860bb68002b07d1074b4ff0f9
:106bd80080521a60bff34f8fbff36f8f7b691846df
:106be8001837bd4680bd00bfd0bc002004ed00e0d2
:106bf80080b584b000af78600023fb607b68002b11
:106c080008d000f0a1fa0021786801f0fbfe00f03e
:106c1800e3faf860fb68002b07d1064b4ff080526f
:106c28001a60bff34f8fbff36f8f00bf1037bd4699
:106c380080bd00bf04ed00e080b584b000af78608f
:106c480016f063f87b68002b02d1074b1b6800e045
:106c58007b68fb60fb68db6abb6016f06ff8bb689b
:106c680018461037bd4680bdf4bb002080b489b0fb
:106c780000af7860eff311824ff0200383f311889f
:106c8800bff36f8fbff34f8f3a61fb603b69fb61c6
:106c98007b68002b02d10a4b1b6800e07b68bb6154
:106ca800bb69db6a7b61fb69bb60bb6883f31188e6
:106cb8007b6918462437bd465df8047b704700bfe2
:106cc800f4bb002080b588b000af7860396000233d
:106cd800fb613b68042b01d904233b6016f015f8cf
:106ce8007b68002b02d1554b1b6800e07b68bb61b9
:106cf800bb695b6c7b617a693b689a4200f098805b
:106d08003a687b699a420dd94c4b1b68ba699a421a
:106d18000fd04a4b1b68db6a3a689a4209d30123b1
:106d2800fb6106e0454b1b68ba699a4201d1012311
:106d3800fb61bb69db6a3b61bb695a6cbb69db6a97
:106d48009a4202d1bb693a68da62bb693a685a6406
:106d5800bb699b69002b04db3b68c3f10502bb6977
:106d68009a61bb6959693a6913469b0013449b00b1
:106d7800334a1344994250d1bb690433184621f071
:106d880019f90346002b09d101223b6902fa03f3e2
:106d9800da432c4b1b6813402a4a1360bb69db6a31
:106da80001229a40274b1b681343264a1360bb698c
:106db800da6a234913469b0013449b000b440433af
:106dc8001b68fb60bb69fa689a60fb689a68bb69d4
:106dd800da60fb689b68ba6904325a60bb691a1d9d
:106de800fb689a60bb69da6a13469b0013449b00f0
:106df800134a1a44bb695a61bb69da6a10491346d7
:106e08009b0013449b000b441b68591c0c481346f9
:106e18009b0013449b0003441960fb69002b07d0b7
:106e2800094b4ff080521a60bff34f8fbff36f8f3b
:106e380015f084ff00bf2037bd4680bdf4bb00209d
:106e4800f8bb0020d4bc002004ed00e080b584b07d
:106e580000af786015f059ff7b68002b02d13b4bdf
:106e68001b6800e07b68bb60bb680433184621f0f0
:106e7800a1f80346002b15d1bb68da6a34491346da
:106e88009b0013449b000b441b68002b0ad1bb6872
:106e9800db6a012202fa03f3da432e4b1b68134024
:106ea8002c4a1360bb689b6a002b04d0bb6818335c
:106eb800184621f07ff8bb6804331946264821f0ac
:106ec8001cf80023fb6010e0ba68fb6813445033d9
:106ed8001b78dbb2012b05d1ba68fb681344503329
:106ee80000221a70fb680133fb60fb68002bebdda6
:106ef80015f024ff194b1b68002b05d015f005ff72
:106f080000f058ff15f01aff104b1b68ba689a4238
:106f180018d1124b1b68002b08d0114b4ff0805230
:106f28001a60bff34f8fbff36f8f0be00a4b1a68dd
:106f38000c4b1b689a4203d1044b00221a6001e0f3
:106f480000f0b0fb00bf1037bd4680bdf4bb002089
:106f5800f8bb0020d4bc0020b8bc0020d8bc00205e
:106f680004ed00e0ccbc002080b485b000af7860b0
:106f78000023fb607b68bb60bb685b690a4a93427d
:106f88000ad1bb689b6a094a934205d0bb689b6ad1
:106f9800002b01d10123fb60fb6818461437bd465e
:106fa8005df8047b704700bfb8bc00208cbc002093
:106fb80080b584b000af78607b68fb60344b1b6899
:106fc800fa689a425fd0fb68002b5cd015f09dfef2
:106fd800f868fff7c9ff0346002b52d0fb6804335b
:106fe800184620f0e7fffb68db6a01229a40294b2c
:106ff8001b681343274a1360fb68da6a264913465d
:107008009b0013449b000b4404331b68bb60fb6864
:10701800ba689a60bb689a68fb68da60bb689b6864
:10702800fa6804325a60fb681a1dbb689a60fb68ec
:10703800da6a13469b0013449b00174a1a44fb68fc
:107048005a61fb68da6a144913469b0013449b0093
:107058000b441b68591c104813469b0013449b00a3
:1070680003441960fb68da6a094b1b68db6a9a42b9
:1070780007d30a4b4ff080521a60bff34f8fbff30c
:107088006f8f15f05bfe00bf1037bd4680bd00bf97
:10709800f4bb0020d4bc0020f8bb002004ed00e0c5
:1070a80080b584b002af154b0193002300930023f1
:1070b8004ff4807212491348fff76afb78607b68c7
:1070c800012b14d14ff0200383f31188bff36f8f86
:1070d800bff34f8f3b600c4b4ff0ff321a600b4be6
:1070e80001221a600a4b00221a6015f0dcfd094bd8
:1070f8001b6800bf0837bd4680bd00bff0bc00203c
:1071080054e50301fd7b0001ecbc0020d8bc002045
:10711800d0bc002004cf002080b582b000af4ff073
:10712800200383f31188bff36f8fbff34f8f7b600a
:10713800044b00221a6015f0e1fd00bf0837bd4678
:1071480080bd00bfd8bc002080b400af044b1b68d2
:107158000133034a136000bfbd465df8047b7047e6
:10716800f4bc002080b485b000af0023bb600123cd
:107178007b60144b1b687a689a4201d20123bb607a
:10718800114b1b68db6a002b02d00023fb6012e066
:107198000e4b1b68012b02d90023fb600be0bb6878
:1071a800002b02d00023fb6005e0094b1a68094b4d
:1071b8001b68d31afb60fb6818461437bd465df898
:1071c800047b7047d4bc0020f4bb0020f8bb00202f
:1071d800ecbc0020d0bc002080b586b000af0023f6
:1071e8007b6100233b6115f090fd684b1b68013bf8
:1071f800664a1360654b1b68002b40f0c080644be7
:107208001b68002b00f0bb808ae0624bdb68db6800
:107218007b617b699b6abb607b69db697a69126aff
:107228009a607b691b6a7a69d2695a60bb685a6836
:107238007b6918339a4203d17b691a6abb685a6022
:107248007b6900229a62bb681b685a1ebb681a6079
:107258007b695b697b607b699b687a69d2689a60a5
:107268007b69db687a6992685a607b685a687b69cf
:1072780004339a4203d17b69da687b685a607b6978
:1072880000225a617b681b685a1e7b681a607b69fa
:10729800db6a01229a40404b1b6813433e4a136045
:1072a8007b69da6a3d4913469b0013449b000b44f3
:1072b80004331b683b607b693a689a603b689a684c
:1072c8007b69da603b689b687a6904325a607b693b
:1072d8001a1d3b689a607b69da6a13469b0013445f
:1072e8009b002e4a1a447b695a617b69da6a2b49ea
:1072f80013469b0013449b000b441b68591c2748ea
:1073080013469b0013449b00034419607b69da6aa7
:10731800234b1b68db6a9a4202d3224b01221a6074
:107328001c4b1b68002b7ff470af7b69002b01d0ce
:1073380000f040fd1c4b1b68fb60fb68002b10d065
:1073480000f0a2f80346002b02d0164b01221a6067
:10735800fb68013bfb60fb68002bf1d1124b00225c
:107368001a60104b1b68002b09d001233b610f4b9f
:107378004ff080521a60bff34f8fbff36f8f15f035
:10738800ddfc3b6918461837bd4680bdf4bc0020bb
:10739800ccbc00208cbc0020d4bc0020f8bb002052
:1073a800f4bb0020e0bc0020dcbc002004ed00e0c1
:1073b80080b483b000af054b1b687b607b681846c0
:1073c8000c37bd465df8047b704700bfd0bc002079
:1073d80080b483b000af00237b60054b1b683b6023
:1073e8003b6818460c37bd465df8047b704700bf04
:1073f800d0bc002080b400af034b1b681846bd46c4
:107408005df8047b704700bfccbc002080b485b019
:1074180000af78607b68002b02d1064b1b6800e048
:107428007b68fb60fb68343318461437bd465df84b
:10743800047b7047f4bb002080b483b000af786051
:10744800054b1a687b681344034a136000bf0c3766
:10745800bd465df8047b7047d0bc002080b584b081
:1074680000af7860fff770fe064b1a687b6813441c
:10747800044a1360fff7b0fef860fb68184610373f
:10748800bd4680bddcbc002080b588b000af0023bd
:10749800fb61794b1b68002b40f0e280774b1b683f
:1074a8000133bb61754abb691360bb69002b10d1fe
:1074b800734b1b687b61734b1b68714a1360714a7d
:1074c8007b691360704b1b6801336f4a136000f0cf
:1074d80071fc6e4b1b68ba699a42c0f0a680684b73
:1074e8001b681b68002b04d1684b4ff0ff321a60f1
:1074f8009be0634b1b68db68db683b613b695b684f
:10750800fb60ba69fb689a4203d2604afb68136061
:107518008be03b695b69bb603b699b683a69d268f1
:107528009a603b69db683a6992685a60bb685a6836
:107538003b6904339a4203d13b69da68bb685a60f5
:107548003b6900225a61bb681b685a1ebb681a60f7
:107558003b699b6a002b1ed03b699b6a7b603b6939
:10756800db693a69126a9a603b691b6a3a69d269af
:107578005a607b685a683b6918339a4203d13b6961
:107588001a6a7b685a603b6900229a627b681b68aa
:107598005a1e7b681a603b69db6a01229a403c4ba1
:1075a8001b6813433a4a13603b69da6a3949134640
:1075b8009b0013449b000b4404331b683b603b69ee
:1075c8003a689a603b689a683b69da603b689b68ee
:1075d8003a6904325a603b691a1d3b689a603b69f4
:1075e800da6a13469b0013449b002a4a1a443b69f3
:1075f8005a613b69da6a274913469b0013449b008a
:107608000b441b68591c234813469b0013449b00da
:10761800034419603b69da6a1f4b1b68db6a9a42ac
:10762800fff45daf0123fb6159e71b4b1b68da6a66
:10763800184913469b0013449b000b441b68012bfd
:1076480001d90123fb61154b1b68002b01d12bf0dd
:1076580092ff134b1b68002b09d00123fb6106e046
:107668000e4b1b6801330d4a13602bf084fffb6936
:1076780018462037bd4680bdf4bc0020d0bc002091
:1076880084bc002088bc0020e4bc0020ecbc0020a6
:10769800d4bc0020f8bb0020f4bb0020dcbc0020d8
:1076a800e0bc002080b586b000af2f4b1b68002bd4
:1076b80003d02e4b01221a6051e02c4b00221a6095
:1076c8002b4b1b681b6b7b614ff0a5333b617b69c0
:1076d8001b683a699a4211d17b6904331b683a697d
:1076e8009a420bd17b6908331b683a699a4205d1e3
:1076f8007b690c331b683a699a4208d01c4b1a689c
:107708001b4b1b683433194610462bf011ff194bdd
:107718001b687b607b68b3fa83f3fb70fb78c3f16b
:107728001f03fb60fa6813469b0013449b00124a30
:107738001344bb60bb685b685a68bb685a60bb6827
:107748005a68bb6808339a4204d1bb685b685a68b8
:10775800bb685a60bb685b68db68054a136000bf9a
:107768001837bd4680bd00bff4bc0020e0bc002037
:10777800f4bb0020d4bc0020f8bb002080b582b048
:1077880000af78603960074b1b6818331946786872
:1077980020f0d7fb0121386801f034f900bf083721
:1077a800bd4680bdf4bb002080b586b000aff86050
:1077b800b9607a60174b1b68ba6842f000429a6158
:1077c800fb685b687b61134b1b687a69da61114b54
:1077d8001b687a6992681a620e4b1a687b699b6803
:1077e80018325a600b4b1b6803f118027b699a60c8
:1077f800084b1b68fa689a62fb681b685a1cfb688e
:107808001a600121786801f0fdf800bf1837bd46fd
:1078180080bd00bff4bb002080b588b000af7860a1
:107828007b68db68db68bb61bb699b6a7b61bb69a2
:10783800db69ba69126a9a60bb691b6aba69d2695c
:107848005a607b695a68bb6918339a4203d1bb698d
:107858001a6a7b695a60bb6900229a627b691b6855
:107868005a1e7b691a604a4b1b68002b60d1bb69a2
:107878005b693b61bb699b68ba69d2689a60bb69fe
:10788800db68ba6992685a603b695a68bb69043315
:107898009a4203d1bb69da683b695a60bb69002226
:1078a8005a613b691b685a1e3b691a60bb69db6aef
:1078b80001229a40374b1b681343364a1360bb6951
:1078c800da6a354913469b0013449b000b44043382
:1078d8001b68fb60bb69fa689a60fb689a68bb69b9
:1078e800da60fb689b68ba6904325a60bb691a1d82
:1078f800fb689a60bb69da6a13469b0013449b00d5
:10790800254a1a44bb695a61bb69da6a2249134697
:107918009b0013449b000b441b68591c1e481346cc
:107928009b0013449b000344196000f043fa1be0da
:107938001a4b5b68bb60bb69ba68da61bb689a6856
:10794800bb691a62bb689b68ba6918325a60bb691e
:1079580003f11802bb689a60bb69104a9a620f4b20
:107968001b6801330d4a1360bb69da6a0c4b1b684c
:10797800db6a9a4205d90123fb610a4b01221a608e
:1079880001e00023fb61fb6918462037bd4680bd36
:10799800f4bc0020d4bc0020f8bb00208cbc002024
:1079a800f4bb0020e0bc002080b586b000af786052
:1079b80039603b6843f000427b681a607b68db688b
:1079c8007b617b681b693b617b685b687a6892684e
:1079d8009a607b689b687a6852685a603b695b6802
:1079e8007a689a4203d17b689a683b695a607b68d7
:1079f80000221a613b691b685a1e3b691a6000f035
:107a0800d9f97b695b69fb607b699b687a69d26895
:107a18009a607b69db687a6992685a60fb685a6881
:107a28007b6904339a4203d17b69da68fb685a6040
:107a38007b6900225a61fb681b685a1efb681a6042
:107a48007b69db6a01229a40244b1b681343234a53
:107a580013607b69da6a224913469b0013449b0032
:107a68000b4404331b68bb607b69ba689a60bb68c7
:107a78009a687b69da60bb689b687a6904325a60e5
:107a88007b691a1dbb689a607b69da6a13469b009a
:107a980013449b00124a1a447b695a617b69da6a6b
:107aa8000f4913469b0013449b000b441b68591c49
:107ab8000b4813469b0013449b00034419607b69e1
:107ac800da6a084b1b68db6a9a4202d9064b012224
:107ad8001a6000bf1837bd4680bd00bfd4bc002067
:107ae800f8bb0020f4bb0020e0bc002080b582b0c9
:107af80000af786015f009f9064b1a687b681a60c0
:107b0800054b1a687b685a6015f018f900bf0837ea
:107b1800bd4680bde4bc0020d0bc002080b483b04a
:107b280000af7860064b1a687b681a60054b1a68c4
:107b38007b685a6000bf0c37bd465df8047b704710
:107b4800e4bc0020d0bc002080b586b000af7860cf
:107b5800396015f0daf81f4b1b683b617b685b687e
:107b68003a69d31afb603b681b68b3f1ff3f02d147
:107b780000237b6126e07b681a68174b1b689a42d2
:107b88000ad07b685b683a699a4205d301237b6116
:107b98003b6800221a6015e03b681b68fa689a4245
:107ba8000bd23b681a68fb68d21a3b681a6078687f
:107bb800fff7b4ff00237b6104e03b6800221a60f2
:107bc80001237b6115f0baf87b6918461837bd4662
:107bd80080bd00bfd0bc0020e4bc002080b400af52
:107be800034b01221a6000bfbd465df8047b704755
:107bf800e0bc002080b584b000af786000f09ef84b
:107c0800104b1b68012b07d90f4b4ff080521a609d
:107c1800bff34f8fbff36f8f2bf0a6fcfff7a2facd
:107c2800f860fb68042be9d9fff78efafff79afa98
:107c3800f860fb68042b02d9f86815f0f1f8fff733
:107c4800cbfadbe7f8bb002004ed00e080b483b09a
:107c580000af01233b600123fb71134b1b68002b12
:107c680002d00023fb7117e0104b1b68002b02d0d9
:107c78000023fb7110e00e4b1b68002b02d0002381
:107c8800fb7109e00b4b1a680b4b19683b68cb1a60
:107c98009a4201d10223fb71fb7918460c37bd4685
:107ca8005df8047b704700bf8cbc0020e0bc00205e
:107cb800dcbc0020b8bc0020ccbc002080b582b061
:107cc80000af00237b600ce07a6813469b001344e6
:107cd8009b00124a1344184620f0e2f87b680133ef
:107ce8007b607b68042befd90d4820f0d9f80d484c
:107cf80020f0d6f80c4820f0d3f80c4820f0d0f843
:107d08000b4820f0cdf80b4b054a1a600a4b054a80
:107d18001a6000bf0837bd4680bd00bff8bb002011
:107d28005cbc002070bc00208cbc0020a0bc0020e3
:107d3800b8bc002084bc002088bc002080b582b07c
:107d480000af19e014f0e1ff0f4bdb68db687b60e4
:107d58007b680433184620f02df90c4b1b68013b57
:107d68000a4a13600a4b1b68013b094a136014f066
:107d7800e5ff786800f00ef8054b1b68002be1d191
:107d880000bf0837bd4680bda0bc0020ccbc002089
:107d9800b4bc002080b582b000af78607b681b6bf4
:107da800184615f0f1f9786815f0eef900bf0837b4
:107db800bd4680bd80b400af0a4b1b681b68002b12
:107dc80004d1094b4ff0ff321a6005e0054b1b68e0
:107dd800db681b68044a136000bfbd465df8047b7e
:107de800704700bf84bc0020ecbc002080b483b086
:107df80000af054b1b687b607b6818460c37bd4697
:107e08005df8047b704700bff4bb002080b586b0e6
:107e180000af78607b683b6100237b617b68002b47
:107e280000f087803b69da6a444b1b68db6a9a4238
:107e380076d23b699b69002b06db404b1b68db6aeb
:107e4800c3f105023b699a613b6959693b69da6a82
:107e580013469b0013449b00394a1344994257d157
:107e68003b690433184620f0a5f80346002b0ad1d5
:107e78003b69db6a012202fa03f3da43314b1b68e0
:107e88001340304a13602d4b1b68da6a3b69da628b
:107e98003b69db6a01229a402a4b1b681343294a33
:107ea80013603b69da6a264913469b0013449b001a
:107eb8000b4404331b68fb603b69fa689a60fb68f3
:107ec8009a683b69da60fb689b683a6904325a60d1
:107ed8003b691a1dfb689a603b69da6a13469b0086
:107ee80013449b00164a1a443b695a613b69da6a93
:107ef800134913469b0013449b000b441b68591cf1
:107f08000f4813469b0013449b000344196004e088
:107f18000a4b1b68da6a3b69da6201237b6108e075
:107f28003b695a6c054b1b68db6a9a4201d20123f4
:107f38007b617b6918461837bd4680bdf4bb0020bd
:107f4800f8bb0020d4bc002080b586b000af7860b4
:107f58007b683b6100237b617b68002b6cd03b69ad
:107f68009b6c5a1e3b699a643b69da6a3b695b6c95
:107f78009a4261d03b699b6c002b5dd13b6904330d
:107f8800184620f017f80346002b0ad13b69db6a34
:107f9800012202fa03f3da432a4b1b681340294ae9
:107fa80013603b695a6c3b69da623b69db6ac3f16f
:107fb80005023b699a613b69db6a01229a40214bc1
:107fc8001b6813431f4a13603b69da6a1e4913464c
:107fd8009b0013449b000b4404331b68fb603b6904
:107fe800fa689a60fb689a683b69da60fb689b6884
:107ff8003a6904325a603b691a1dfb689a603b690a
:10800800da6a13469b0013449b000f4a1a443b69e3
:108018005a613b69da6a0c4913469b0013449b007a
:108028000b441b68591c084813469b0013449b00cb
:108038000344196001237b617b6918461837bd46e4
:1080480080bd00bfd4bc0020f8bb002080b588b03c
:1080580000af786039607b68bb6101237b617b6816
:10806800002b00f08180bb695b6c3a689a4202d9a8
:108078003b68fb6102e0bb695b6cfb61bb69db6a67
:10808800fa699a4270d0bb699b6c7a699a426bd143
:10809800bb69db6a3b61bb69fa69da62bb699b69e8
:1080a800002b04dbfb69c3f10502bb699a61bb695c
:1080b80059693a6913469b0013449b002c4a1344a0
:1080c800994251d1bb69043318461ff073ff034628
:1080d800002b0ad1bb69db6a012202fa03f3da43f7
:1080e800244b1b681340234a1360bb69db6a0122d7
:1080f8009a40204b1b6813431e4a1360bb69da6a17
:108108001b4913469b0013449b000b4404331b6814
:10811800fb60bb69fa689a60fb689a68bb69da60b9
:10812800fb689b68ba6904325a60bb691a1dfb6810
:108138009a60bb69da6a13469b0013449b000c4a99
:108148001a44bb695a61bb69da6a094913469b003c
:1081580013449b000b441b68591c054813469b009d
:1081680013449b000344196000bf2037bd4680bdff
:10817800f8bb0020d4bc002080b483b000af094b0a
:108188001b689b697b60074b1b68da6a054b1b6899
:10819800c2f105029a617b6818460c37bd465df846
:1081a800047b7047f4bb002080b400af074b1b680a
:1081b800002b04d0054b1b689a6c01329a64034b60
:1081c8001b681846bd465df8047b7047f4bb002069
:1081d80080b586b000aff860b9607a6014f095fd9c
:1081e800284b1a68fb6812339b0013445b68002b0a
:1081f80015d1244b1a68fb681344503301221a70b6
:108208007b68002b0bd00121786800f0fbfb1e4b2c
:108218004ff080521a60bff34f8fbff36f8f14f087
:108228008dfd14f072fd174b1a68fb6812339b0022
:1082380013445b687b617b69002b14d0bb68002bff
:1082480008d0104b1a68fb6812339b0013440022b5
:108258005a6008e00b4b19687b695a1efb68123399
:108268009b000b445a60074b1a68fb681344503351
:1082780000221a7014f062fd7b6918461837bd4653
:1082880080bd00bff4bb002004ed00e080b586b0df
:1082980000aff860b9607a603b6014f036fd344b8b
:1082a8001a68fb68134450331b78dbb2022b24d0c6
:1082b8002f4b1a68fb6812339b0013445968bb683c
:1082c800db431940fb6812339b0013445960284b69
:1082d8001a68fb681344503301221a703b6a002b5a
:1082e8000bd00121386a00f08dfb224b4ff08052f1
:1082f8001a60bff34f8fbff36f8f14f01ffd14f098
:1083080004fd3b68002b08d0194b1a68fb68123330
:108318009b0013445a683b681a60154b1a68fb683f
:10832800134450331b78dbb2022b02d000237b614d
:1083380010e00f4b1a68fb6812339b00134459680e
:108348007b68db431940fb6812339b001344596078
:1083580001237b61064b1a68fb68134450330022e3
:108368001a7014f0ebfc7b6918461837bd4680bdbf
:10837800f4bb002004ed00e080b58ab000aff860df
:10838800b9607a60fb7001237b62fb683b6214f082
:10839800bcfc3b6b002b07d03a6abb6812339b00ce
:1083a80013445a683b6b1a603a6abb6813445033eb
:1083b8001b78fb773a6abb681344503302221a7061
:1083c800fb78042b3fd801a252f823f04f84000118
:1083d800e98300010784000123840001338400013c
:1083e8003a6abb6812339b0013445a687b681a4385
:1083f800396abb6812339b000b445a6024e03a6a1e
:10840800bb6812339b0013445b685a1c396abb680b
:1084180012339b000b445a6016e03a6abb68123369
:108428009b0013447a685a600ee0fb7f022b07d04a
:108438003a6abb6812339b0013447a685a6003e0b7
:1084480000237b6200e000bffb7f012b6ed13b6afb
:108458005b69bb613b6a9b683a6ad2689a603b6a0f
:10846800db683a6a92685a60bb695a683b6a0433a7
:108478009a4203d13b6ada68bb695a603b6a0022b8
:108488005a61bb691b685a1ebb691a603b6adb6a82
:1084980001229a40294b1b681343284a13603b6a00
:1084a800da6a274913469b0013449b000b440433a4
:1084b8001b687b613b6a7a699a607b699a683b6a48
:1084c800da607b699b683a6a04325a603b6a1a1d13
:1084d8007b699a603b6ada6a13469b0013449b00e7
:1084e800174a1a443b6a5a613b6ada6a14491346c6
:1084f8009b0013449b000b441b68591c10481346ef
:108508009b0013449b0003441960fff753fc3b6a2c
:10851800da6a0c4b1b68db6a9a4207d90a4b4ff0a0
:1085280080521a60bff34f8fbff36f8f14f006fcb1
:108538007b6a18462837bd4680bd00bfd4bc0020e2
:10854800f8bb0020f4bb002004ed00e080b48fb03d
:1085580000aff860b9607a60fb7001237b63fb6849
:108568003b63eff311824ff0200383f31188bff3cd
:108578006f8fbff34f8fba617b61bb69fb623b6c46
:10858800002b07d03a6bbb6812339b0013445a6820
:108598003b6c1a603a6bbb68134450331b7887f8fe
:1085a8002b303a6bbb681344503302221a70fb78a5
:1085b800042b41d801a252f823f000bf41860001e4
:1085c800d9850001f7850001138600012386000183
:1085d8003a6bbb6812339b0013445a687b681a4392
:1085e800396bbb6812339b000b445a6025e03a6b29
:1085f800bb6812339b0013445b685a1c396bbb6819
:1086080012339b000b445a6017e03a6bbb68123375
:108618009b0013447a685a600fe097f82b30022bbe
:1086280007d03a6bbb6812339b0013447a685a60d0
:1086380003e000237b6300e000bf97f82b30012b99
:1086480040f08f804d4b1b68002b5ed13b6b5b6904
:108658007b623b6b9b683a6bd2689a603b6bdb68ca
:108668003a6b92685a607b6a5a683b6b04339a4249
:1086780003d13b6bda687b6a5a603b6b00225a6114
:108688007b6a1b685a1e7b6a1a603b6bdb6a012295
:108698009a403b4b1b681343394a13603b6bda6ab9
:1086a800384913469b0013449b000b4404331b6852
:1086b8003b623b6b3a6a9a603b6a9a683b6bda604a
:1086c8003b6a9b683a6b04325a603b6b1a1d3b6ae3
:1086d8009a603b6bda6a13469b0013449b00294a55
:1086e8001a443b6b5a613b6bda6a264913469b0076
:1086f80013449b000b441b68591c224813469b00db
:1087080013449b00034419601be01f4b5b68fb612b
:108718003b6bfa69da61fb699a683b6b1a62fb6921
:108728009b683a6b18325a603b6b03f11802fb697d
:108738009a603b6b144a9a62134b1b680133124ac6
:1087480013603b6bda6a114b1b68db6a9a4208d9e3
:108758007b6c002b02d07b6c01221a600c4b01222f
:108768001a60fb6a3b613b6983f311887b6b18468f
:108778003c37bd465df8047b704700bff4bc002061
:10878800d4bc0020f8bb00208cbc0020f4bb002027
:10879800e0bc002080b48fb000aff860b9607a60a8
:1087a800fb687b63eff311824ff0200383f311889a
:1087b800bff36f8fbff34f8ffa61bb61fb693b63f8
:1087c8007a6bbb68134450331b7887f82f307a6b69
:1087d800bb681344503302221a707a6bbb68123399
:1087e8009b0013445b685a1c796bbb6812339b006f
:1087f8000b445a6097f82f30012b40f08f804d4b77
:108808001b68002b5ed17b6b5b69bb627b6b9b68d3
:108818007a6bd2689a607b6bdb687a6b92685a6075
:10882800bb6a5a687b6b04339a4203d17b6bda6864
:10883800bb6a5a607b6b00225a61bb6a1b685a1e6e
:10884800bb6a1a607b6bdb6a01229a403a4b1b6851
:108858001343394a13607b6bda6a384913469b0025
:1088680013449b000b4404331b687b627b6b7a6a5e
:108878009a607b6a9a687b6bda607b6a9b687a6b22
:1088880004325a607b6b1a1d7b6a9a607b6bda6aca
:1088980013469b0013449b00284a1a447b6b5a6179
:1088a8007b6bda6a254913469b0013449b000b44f3
:1088b8001b68591c214813469b0013449b00034422
:1088c80019601be01e4b5b683b627b6b3a6ada619e
:1088d8003b6a9a687b6b1a623b6a9b687a6b1832b0
:1088e8005a607b6b03f118023b6a9a607b6b144aef
:1088f8009a62134b1b680133114a13607b6bda6a67
:10890800104b1b68db6a9a4208d97b68002b02d09f
:108918007b6801221a600c4b01221a603b6b7b6159
:108928007b6983f3118800bf3c37bd465df8047b43
:10893800704700bff4bc0020d4bc0020f8bb002066
:108948008cbc0020f4bb0020e0bc002080b584b0c3
:1089580000af786039607b68002b02d1104b1b6830
:1089680000e07b68bb6014f0d0f9ba683b68134438
:1089780050331b78dbb2022b08d1ba683b6813442a
:10898800503300221a700123fb6001e00023fb60d2
:1089980014f0d4f9fb6818461037bd4680bd00bff7
:1089a800f4bb002080b586b000aff860b9607a608b
:1089b800fb68002b02d1124b1b6800e0fb687b614f
:1089c80014f0a3f97a69bb6812339b0013445b68ff
:1089d8003b617a69bb6812339b0013445a687b6811
:1089e800db431a407969bb6812339b000b445a6019
:1089f80014f0a4f93b6918461837bd4680bd00bf7e
:108a0800f4bb002080b586b000af78603960364b83
:108a18001b687b61354b1b68043318461ff0cafa84
:108a28000346002b0bd1314b1b68db6a012202fa8b
:108a380003f3da432e4b1b6813402d4a13607b68ff
:108a4800b3f1ff3f24d13b68002b21d0294b5b6851
:108a58003b61264b1b683a699a60244b1b683a694c
:108a68009268da60214b1a683b699b6804325a6045
:108a78001e4b1b681a1d3b699a601c4b1b681d4adc
:108a88005a611c4b1b6801331a4a136000bf26e069
:108a98007a697b681344fb60144b1b68fa685a6058
:108aa800fa687b699a4209d2134b1a680f4b1b6804
:108ab8000433194610461ff044fa10e00f4b1a68a9
:108ac8000a4b1b680433194610461ff03afa0c4b40
:108ad8001b68fa689a4202d2094afb68136000bf11
:108ae8001837bd4680bd00bfd0bc0020f4bb0020b5
:108af800d4bc0020b8bc002088bc002084bc002066
:108b0800ecbc0020f0b5fbb002af02463b46196052
:108b1800fb1d1a70d44bc7f8d8313b461b68002b95
:108b280000f0e583d7f8d8315b68002b00f0df83cd
:108b3800fb1d1b78043b2e2b00f2db8301a252f8ad
:108b480023f000bfdd910001fb920001b19000010c
:108b5800fb920001fb920001bb8f0001fb92000118
:108b6800fb920001fb920001fb920001fb920001c5
:108b7800fb920001fb920001098c0001fb920001ad
:108b8800978c0001fb920001fb920001fb9200010f
:108b9800fb920001fb920001fb920001fb92000195
:108ba8007f8f0001fb920001fb920001fb92000104
:108bb800fb920001fb920001fb920001fb92000175
:108bc800fb920001fb920001fb920001fb92000165
:108bd800fb920001fb920001fb920001758e0001df
:108be800fb920001d18d0001fb920001fb92000174
:108bf80031920001fb920001fb920001f58e000109
:108c08003b461b68c7f8d431d7f8d8315b681b7a64
:108c180083f00103dbb2002b40f06d83d7f8d83125
:108c28005b6800221a72d7f8d43193f90130002b0f
:108c380027d1d7f8d8315b68d7f8d42112789a723f
:108c4800d7f8d4311b78002b07d0d7f8d8315b6818
:108c58005b7a1846fdf79af94fe3d7f8d8315b6885
:108c6800d3f88430002b00f04883d7f8d8315b68fc
:108c7800d3f88440d7f8d801002300220021a04768
:108c88003be3d7f8d8315b6800229a7235e33b465c
:108c98001b68c7f8d031d7f8d8315b6803f12d00cd
:108ca800d7f8d03104330622194634f0f2fed7f84b
:108cb800d8315b68012283f83320d7f8d8315b6854
:108cc80003f10c00d7f8d0310a332022194634f0ca
:108cd800e0fed7f8d0310a33184635f099f9024644
:108ce800d7f8d8315b68d2b283f82c20d7f8d831be
:108cf8005b68d7f8d02192f9012083f83620d7f89d
:108d0800d8315b68d7f8d021927883f83720d7f824
:108d1800d8315b68d7f8d021d27883f83420d7f8d7
:108d2800d8315b680122da72d7f8d8315b68d3f89a
:108d38008430002b00f0e382d7f8d8315b68d3f891
:108d48008440d7f8d801d7f8d8315b685b7a01330b
:108d5800d9b2d7f8d8315b689a7ad7f8d8315b6836
:108d68000c33a047034687f8cf3197f8cf31002b53
:108d780023d0d7f8d8315b685a7a0132d2b25a7206
:108d8800d7f8d8315b685c7afdf71ef903469c4238
:108d98000cd2d7f8d8315b685b7a1846fdf7f6f83d
:108da800d7f8d8315b680022da72a8e2d7f8d83150
:108db8005b680022c3f88420a1e2d7f8d8315b6849
:108dc8000022c3f884209ae23b461b68c7f8c831e2
:108dd800d7f8c8311b78012b1cd1d7f8d8315b687c
:108de8000122da71d7f8d8315b6893f89e3083f0a6
:108df8000103dbb2002b1dd0d7f8d8315b68d3f85c
:108e0800a030002b16d0d7f8d8315b68012283f840
:108e18009d200fe0d7f8c8311b78002b0ad1d7f86e
:108e2800d8315b680022da71d7f8d8315b68002244
:108e380083f85020d7f8d8315b68d3f88830002bf6
:108e480000f05f82d7f8d8315b68d3f88840d7f84c
:108e5800d801d7f8d811d7f8c8311a78d7f8c83157
:108e68005b78a0474de200bfe4ba00203b461b6890
:108e7800c7f8c431d7f8d8315b68d3f88830002bed
:108e880000f04182d7f8c43193f900301733032b2f
:108e98001ad801a252f823f0b18e0001b98e000150
:108ea800c18e0001c98e0001052387f8df310fe06c
:108eb800032387f8df310be0012387f8df3107e070
:108ec800062387f8df3103e0072387f8df3100bf87
:108ed800d7f8d8315b68d3f88840d7f8d801d7f8e5
:108ee800d81197f8df310022a0470ce23b461b68f7
:108ef800c7f8c031d7f8d8315b685b7983f00103d4
:108f0800dbb2002b05d0d7f8d8315b68012283f893
:108f18009d20d7f8c03103331b781a06d7f8c03123
:108f280002331b781b041a43d7f8c03101331b786e
:108f38001b021a43d7f8c0311b781946d7f8d83125
:108f48005b680a43c3f8a020d7f8d8315b68d3f828
:108f5800b430002b00f0d981d7f8d8315b68d3f84a
:108f6800b430d7f8d801d7f8d8215268d2f8a02061
:108f780011469847c9e13b461b68c7f8bc31d7f88a
:108f8800bc0119f0b7fbc7f8b801d7f8d8315b684e
:108f9800d3f88c30002b00f0ba81d7f8d8315b6851
:108fa800d3f88c30d7f8d821d7f8b811104698479d
:108fb800ade1d7f8d8315b68d3f8bc30002b00f0ae
:108fc800a8813b461b68c7f8b431d7f8b4311846b6
:108fd80035f01ef80346dab207f10c0383f82020b7
:108fe80007f10c0393f82030202b00f2948107f14d
:108ff8000c0320220021184635f002f8d7f8b411e6
:1090080007f10c0393f820301a4607f10c031846b1
:1090180034f03ffdd7f8b43193f8622007f13803f4
:109028001a70d7f8b43193f86230022b20d1d7f8f0
:10903800b4312133184634f0ebff0346dab207f1b6
:1090480038031a7107f13803053340220021184606
:1090580034f0d6ffd7f8b43103f1210107f1380312
:109068001b791a4607f138030533184634f011fd09
:10907800d7f8d8315b68d3f8bc40d7f8d801d7f80f
:10908800b43193f86330002b0cbf01230023dbb20b
:1090980007f1380207f10c01a047d7f8d8315b680f
:1090a8000022c3f8bc2034e13b461b68c7f8b03146
:1090b800d7f8b031184634f0abff0246d7f8d831ac
:1090c8005b68d2b283f87120d7f8d8315b6893f81f
:1090d8007130202b00f22181d7f8d8315b685133e9
:1090e80020220021184634f08bffd7f8d8315b686e
:1090f80003f15100d7f8b011d7f8d8315b6893f86d
:1091080071301a4634f0c5fcd7f8d8315b68d7f807
:10911800b02192f8212083f88020d7f8b03193f855
:1091280025301a06d7f8b03193f824301b041a43b7
:10913800d7f8b03193f823301b021a43d7f8b0316f
:1091480093f822301946d7f8d8315b680a435a6732
:10915800d7f8d8315b6803f17800d7f8b0312633f7
:109168000622194634f095fcd7f8d8315b680122fd
:1091780083f87e20d7f8d8315b68012283f8502025
:10918800d7f8d8315b68d3f89030002b00f0c7804f
:10919800d7f8d8315b68d3f89040d7f8d801d7f81a
:1091a800d811d7f8d8315b6803f15105d7f8d83111
:1091b8005b6803f17406d7f8d8315b6893f88030a0
:1091c800d7f8b02192f92c200192009333462a4611
:1091d800a047a4e03b461b68c7f8ac31d7f8d831a4
:1091e8005b68d7f8ac2192f9002083f84820d7f8bb
:1091f800d8315b68d3f89430002b00f09280d7f810
:10920800d8315b68d3f89430d7f8d801d7f8d8218b
:10921800526892f9482011469847d7f8d8315b68c8
:109228000022c3f894207ce03b461b68c7f8a831ad
:10923800d7f8d8315b68d3f89830002b73d007f192
:109248000c0318461af086f8d7f8a8319c1cd7f8f2
:10925800a8310233184634f0dbfe0346dab207f1d0
:109268000c03214618461af09af8d7f8a8315a780c
:1092780007f10c03114618461af0f9f8d7f8a83187
:109288001b78012b02d0022b06d018e007f1380317
:10929800184614f0f9f91de0d7f8a83103f12304b2
:1092a800d7f8a8312333184634f0b2fe0346dab2b1
:1092b80007f138032146184614f0f9f90ae0d7f8ff
:1092c800d8315b68d3f89830d7f8d801002200214c
:1092d800984729e0d7f8d8315b68d3f89830d7f8a1
:1092e800d80107f1380207f10c0198471be000bfcd
:1092f8001ae000bf18e000bf16e000bf14e000bf8e
:1093080012e000bf10e000bf0ee000bf0ce000bf9d
:109318000ae000bf08e000bf06e000bf04e000bfad
:1093280002e000bf00e000bf07f5f277bd46f0bde0
:1093380080b584b000af03460a46fb711346bb7183
:10934800204bfb60fb685b68002b34d0fb79012b5a
:1093580004d0002b31dd032b2fdc18e0fb685b68a1
:10936800d3f8c030002b07d0fb685b68d3f8c03057
:10937800fa68b97910469847fb685b68002283f859
:109388009c20fb685b680022c3f8c02016e0fb68dd
:109398005b68d3f8c430002b07d0fb685b68d3f850
:1093a800c430fa68b97910469847fb685b680022b0
:1093b800c3f8c42002e000bf00e000bf1037bd467c
:1093c80080bd00bfe4ba0020b0b5a4b000af03462a
:1093d8003960fb71674bc7f888303b68002b00f099
:1093e800bc80d7f888305b68002b00f0b680fb792a
:1093f800012b1dd0062b40f0b280d7f888305b686f
:10940800d3f8c830002b00f0ac803b68c7f8843034
:10941800d7f884301b68bb67d7f888305b68d3f807
:10942800c830d7f8882007f178011046984798e0a7
:109438003b68c7f8803007f10c03c7f88c30d7f8c1
:1094480088305b68d3f8cc30002b00f08c80d7f8dc
:1094580080301b8887f87f30d7f880305b683b679f
:10946800d7f880309b687b6707f10c0364220021e2
:10947800184634f0c5fd97f87f30013b042b74d8ab
:1094880001a252f823f000bfa5940001a5940001a1
:109498001f9500012795000139950001d7f8803004
:1094a8000c3307f10c041d4628686968aa68eb6844
:1094b8000fc428696969aa69eb690fc4d7f88030b5
:1094c8002c3307f12c041d4628686968aa68eb68e4
:1094d8000fc428696969aa69eb690fc4d7f8803095
:1094e800b3f84c30a7f84c30d7f88030b3f84e308a
:1094f800a7f84e30d7f88030503307f150041d4696
:1095080028686968aa68eb680fc428696969aa6944
:10951800eb690fc411e00023c7f88c300de0d7f8d1
:1095280080309b89bb81d7f88030db89fb8104e0e0
:10953800d7f88030db68fb6000bfd7f888305b68fd
:10954800d3f8cc40d7f8880007f1700297f87f105d
:10955800d7f88c30a04700bf08e000bf06e000bf86
:1095680004e000bf02e000bf00e000bf9037bd4646
:10957800b0bd00bfe4ba002090b585b000af034687
:109588003a60fb710b46bb71244bfb60fb685b6860
:10959800002b3cd0fb685b68d033bb60bb684ff6e0
:1095a800ff71184617f0aef80346012b31d1fb794d
:1095b800002b06d1bb68ba791a71bb683a68da61c0
:1095c80005e0bb68ff221a71bb680022da61bb683c
:1095d80000225a61bb6800229a61bb6800221a62a5
:1095e800bb6800225a62bb68184617f0aef8fb68e1
:1095f8005b68d3f8f830002b0cd0fb685b68d3f8b5
:10960800f840f868b968fb790122a04702e000bf7a
:1096180000e000bf1437bd4690bd00bfe4ba00208b
:1096280090b58db004af0346b9607a60fb73744b94
:10963800bb61bb695b68002b00f0d880bb695b68c5
:10964800d0337b61fb7b002b40f0bd807b694ff6fc
:10965800ff71184617f056f80346012b40f0c880f2
:109668007b691b6a002b00f0a7807b699b697a687d
:109678009a4200f2a1807b699b697a689a4202d972
:109688007b699b697b607b68fb615ae07b695b6aed
:10969800fa699a4241d97b69186a7b695b6a1a46fa
:1096a800b96834f0f6f97b695b6aba681344bb6041
:1096b8007b695b6afa69d31afb617b6900221a62cb
:1096c8007b6900225a62bb695b68d3f8f830002bcb
:1096d80037d07b69184617f038f8bb695b68d3f850
:1096e800f840b8697969fb7b0422a0477b694ff68b
:1096f800ff71184617f006f80346012b7ad17b69eb
:109708001b6a002b03d07b695b6a002b19d17b692c
:1097180000229a6100237b6016e07b691b6afa6964
:10972800b968184634f0b5f97b691a6afb691a44b6
:109738007b691a627b695a6afb69d21a7b695a6229
:1097480002e0fb69002ba1d17b699a697b68d21a78
:109758007b699a617b695a697b681a447b695a619b
:109768007b699b69002b13d07b69184616f0edffc7
:10977800b8697969bb695b68d3f8f830029300234c
:109788000193002300930023002211f096fc33e09c
:109798007b69184616f0d9ffbb695b68d3f8f830c7
:1097a800002b29d0bb695b68d3f8f840b8697969a0
:1097b800fb7b0222a0471fe07b69184616f0c5ff15
:1097c8000123fb7319e0bb695b68d3f8f830002b01
:1097d80013d0bb695b68d3f8f840b869bb695b68ac
:1097e800d0331946fb7b0222a04706e000bf04e005
:1097f80000bf02e000bf00e000bf2437bd4690bdb7
:10980800e4ba002090b585b000af0346fb71194b50
:10981800fb60fb685b68002b26d0fb685b68d03375
:10982800bb60fb685b68d3f8f830002b1fd0fb687f
:109838005b68d3f8f840f868b968fb790322a04759
:10984800bb684ff6ff71184616f05cff0346012b04
:109858000cd1bb68ff221a71bb680022da61bb68b1
:10986800184616f072ff02e000bf00e000bf143790
:10987800bd4690bde4ba002080b483b000af7860e4
:109888007b68002b00f09f807b6800225a717b6800
:1098980000229a717b680022da717b6800221a72b2
:1098a8007b680022da727b68012283f838207b68a3
:1098b800022283f839207b681e2283f83a207b68cd
:1098c800022283f83b207b68d32283f83c207b6804
:1098d8004ff49672da877b680022a3f840207b68f1
:1098e800002283f848207b680022da647b68002223
:1098f80083f850207b680022c3f884207b6800220c
:10990800c3f888207b680022c3f88c207b6800227b
:10991800c3f890207b680022c3f894207b6800225b
:10992800c3f898207b68002283f89c207b6800227b
:1099380083f89d207b68012283f89e207b680022a3
:10994800c3f8a0207b680022c3f8a4207b6800220b
