:020000040000fa
:10000000f0ff0120194a0001bf4e0001af4f00016f
:100010009b560001e76000015b65000100000000e5
:1000200000000000000000000000000071690001f5
:10003000675200010000000071550001fd660001db
:10004000a5670001dd5e0001bf4d0001bf4d00014d
:10005000bf4d0001bf4d0001bf4d0001bf4d00016c
:10006000bf4d0001bf4d0001bf4d0001bf4d00015c
:10007000d926000109200001bf4d0001bf4d00013c
:10008000bf4d0001bf4d0001bf4d0001bf4d00013c
:10009000bf4d0001bf4d0001bf4d0001bf4d00012c
:1000a000bf4d0001bf4d0001bf4d0001bf4d00011c
:1000b000bf4d0001bf4d0001bf4d0001bf4d00010c
:1000c000bf4d0001bf4d0001bf4d0001bf4d0001fc
:1000d000bf4d0001bf4d0001bf4d0001bf4d0001ec
:020000040000fa
:020000040004f6
:045f8800ffff000017
:020000040000fa
:020000040004f6
:045f8c0000400e843f
:020000040000fa
:020000040004f6
:045f900038fc745f06
:020000040000fa
:020000040004f6
:045f94003844161463
:020000040000fa
:020000040004f6
:045f98000300007191
:020000040000fa
:020000040004f6
:045f9c0002000000ff
:020000040000fa
:020000040004f6
:045fbc0000000010d1
:020000040000fa
:020000040100f9
:10000000f8b500bff8bc08bc9e467047cd5f000144
:10001000f8b500bff8bc08bc9e467047a95f000158
:020000040000fa
:020000040100f9
:08002000700f00000100000058
:020000040000fa
:020000040100f9
:100028001cb100201c0000000000000060af002090
:100038005c00000000000000b5b2002001000000d4
:10004800000000006cb00020040000000000000068
:10005800dcb100200400000000000000e0b1002036
:100068000400000000000000e4b1002004000000cb
:1000780000000000e8b100200400000001000000ba
:10008800ffffffffd4b100200800000000000000bf
:10009800ecb100200400000000000000f0b10020d6
:1000a8000400000000000000f4b10020040000007b
:1000b80000000000f8b1002004000000000000006b
:1000c800fcb10020040000000000000000b2002085
:1000d800040000000000000004b20020040000003a
:1000e80000000000bcb20020010000000100000078
:1000f800ff00000008b2002004000000000000001b
:10010800b8b2002002000000010000000001000059
:10011800bdb2002001000000000000000cb2002069
:10012800040000000000000010b2002004000000dd
:100138000000000014b200200400000000000000cd
:1001480018b200200400000000000000b6b2002031
:100158000200000000000000beb200200100000004
:1001680000000000bfb200200100000000000000f5
:10017800c0b200200100000000000000ccb0002048
:1001880028000000000000001cb20020040000004d
:100198000000000020b20020040000000000000061
:1001a80024b200200400000000000000c1b20020ba
:1001b8000100000001000000040000001cad002048
:1001c800b000000000000000c2b2002001000000e2
:1001d8000000000028b20020040000000000000019
:1001e8002cb20020040000000000000030b2002003
:1001f8000400000000000000bab200200200000065
:100208000000000034b200200400000000000000dc
:1002180038b2002004000000000000001cac0020e0
:1002280000010000000000009cb100201000000048
:10023800000000000cb000203000000000000000aa
:10024800bcb100200c00000000000000c3b2002078
:100258000100000000000000a0b000202c000000f9
:10026800000000003cb0002030000000000000004a
:10027800acb1002010000000000000001ca8002005
:1002880000020000000000003cb200200400000052
:100298000000000040b20020040000000000000040
:1002a80044b2002004000000000000001caa002046
:1002b800000200000000000048b200200400000016
:1002c800000000004cb20020040000000000000004
:1002d80050b20020040000000000000054b20020ca
:1002e800040000000000000070b000203000000092
:1002f80000000000ccad0020a000000000000000bd
:10030800f4b0002028000000000000006cae0020bf
:100318009000000000000000c8b100200c000000a0
:100328000000000058b20020040000000000000097
:100338005cb200200400000001000000aaaaaaaada
:1003480060b200200400000000000000000000204f
:1003580000a000000000000064b2002004000000bb
:100368000000000068b20020040000000000000047
:100378006cb20020040000000000000070b20020f1
:100388000400000000000000fcae00206400000033
:100398000000000074b2002004000000000000000b
:1003a80078b2002004000000000000007cb20020a9
:1003b800040000000000000080b2002004000000db
:1003c8000000000084b200200400000000000000cb
:1003d80038b1002014000000000000004cb10020db
:1003e800140000000000000088b200200400000093
:1003f800000000008cb20020040000000000000093
:1004080090b20020040000000000000094b2002018
:10041800040000000000000060b10020140000008b
:100428000000000098b20020040000000000000056
:1004380074b10020140000000000000088b1002002
:1004480014000000000000009cb20020040000001e
:1004580000000000a0b2002004000000000000001e
:10046800a4b2002004000000010000000400000005
:10047800b4b20020010000000000000000a000202d
:100488001c08000000000000a8b2002004000000c2
:1004980000000000bcaf0020500000000000000079
:1004a800acb200200400000000000000b0b2002040
:1004b8000400000000000000000000000000000030
:020000040000fa
:020000040100f9
:1004c800002900f0e581f0b5ebb00c46a04b5d6863
:1004d800002d00f0c18004382e2800f2bd80dfe82e
:1004e80010f08f01bb004e01bb00bb000c01bb002c
:1004f800bb00bb00bb00bb00bb00bb002f00bb00a8
:100508004c00bb00bb00bb00bb00bb00bb00bb007a
:10051800ff00bb00bb00bb00bb00bb00bb00bb00b7
:10052800bb00bb00bb00bb00bb00bb00bb00cc00da
:10053800bb00a800bb00bb00a001bb00bb00e700dc
:100548002b7a002b00f0888000232b7291f9013060
:1005580083b90b78ab724bb9d5f88440002c7bd0ab
:1005680000231a4619467a48a04775e0687a06f0cb
:1005780043fa71e00023ab726ee00b4653f8042f88
:10058800c5f82d209b88a5f83130012785f83370f0
:1005980005f10c06084650f80acf41688268c3681e
:1005a800c5f80cc029616a61ab61d0f810c0416917
:1005b8008269c369c5f81cc029626a62ab6206f029
:1005c80099fc85f82c0094f9013085f83630a37829
:1005d80085f83730e37885f83430ef72d5f8844001
:1005e800002c39d0697a39443346aa7ac9b25848b6
:1005f800a04728b9564b5b680022c3f884202be03b
:10060800534b5b685c7a3c44e4b25c7206f0a2fc33
:10061800844205d34e4b5b680022c3f884201be05c
:100628004b4c6368587a06f0e7f963680022da727f
:1006380012e00b78012b11d023b9eb71444a5268b0
:1006480082f85030424b5b68d3f8885025b1404857
:10065800637822780146a8476bb0f0bdeb713c4b3c
:100668005b6893f89e20002aecd1d3f8a020002ada
:10067800e8d0012283f89d20e4e7d5f88850002dc2
:10068800ead091f900301733032b09d8dfe803f0db
:100698000a020406032306e0012304e0062302e01d
:1006a800072300e005232a4800220146a847d3e78c
:1006b8006b7913b9012385f89d30e378a178090493
:1006c80041ea036123781943637841ea0321c5f8b5
:1006d800a010d5f8b430002bbed01d489847bbe712
:1006e800084605f057fd1a4b5b68d3f88c30002b91
:1006f800b2d0014616489847aee7d5f8bc30002b73
:10070800aad0084606f0f6fb06468df82c002022f3
:10071800002103a806f0e6fb3246214603a806f0ae
:100728002bfb94f862308df83830022b12d094f8f5
:100738006330074cd5f8bc50b3fa83f35b090eaab3
:1007480003a92046a84763680022c3f8bc2083e7b2
:100758009cb1002004f12106304606f0cbfb074689
:100768008df83c00402200210df13d0006f0bafb57
:100778003a4631460df13d0006f0fefad7e7084645
:1007880006f0b8fb074685f8710005f151062022ee
:100798000021304606f0a6fb3a462146304606f0d0
:1007a800ebfa94f8212085f8802094f8251094f825
:1007b80024301b0443ea016394f822100b4394f895
:1007c800231043ea01236b67234653f8261fa967c2
:1007d8009b88a5f87c30012385f87e3085f8503059
:1007e800d5f89070002f3ff437af2a4894f92c3091
:1007f8000193009205f1740332460146b8472be78e
:1008080091f9001085f84810d5f89430002b3ff482
:1008180023af204c2046984763680022c3f89420f1
:100828001ae7d5f89830002b3ff416af03a806f066
:1008380051f8a51c284606f05dfbc2b2294603a85c
:1008480005f004fb617803a805f07fff2378012bee
:1008580009d0022b12d00f484368d3f898300022f1
:1008680011469847f8e60ea806f053fb0948436876
:10087800d3f898300eaa03a99847ede6233420460a
:1008880006f038fbc2b221460ea805f009fcede7d8
:08089800704700bf9cb1002075
:020000040000fa
:020000040100f9
:1008a000f0b597b0144641283cd00d46542839d0b5
:1008b00042284ed0432864d0442800f092814b282f
:1008c00000f08f81572800f087814a2800f0ab8024
:1008d000462800f0bc80482800f0e7804d2800f052
:1008e000b480452800f04181472800f066814c28fb
:1008f00000f0398152282ad1012314220deb020184
:10090000204604f08ffb10bbad4b1b68069a9a4241
:100910001dd1ac4b1b68d3b19df8242007990598d5
:10092000984714e00023042205a9204604f07afb2e
:1009300068b99df815308df80430a34b1b6833b1ae
:10094000a14b1b6801aa01219df91400984717b01b
:10095000f0bd0023042205a9204604f063fb002813
:10096000f5d19df815308df80430974b1b68002b9e
:10097000edd0954b1b6801aa02219df91400984700
:10098000e5e700230c2201a9204604f04bfb0028d8
:10099000ddd19df90d30dab20a2a23d89df90c1069
:1009a0008a4a02eb0111c97ac9b202eb0312d17271
:1009b00001219172bdf80e10083989b21181844964
:1009c0000a88013292b20a800a8892b21ab90a8859
:1009d000013292b20a807e4a118889b27b4a02ebc8
:1009e0000312d1808df814300223adf81830bdf811
:1009f0000630adf81a30029b0793734b1b68002b2f
:100a0000a5d0714b1b6805aa04219df90c009847dd
:100a10009de79df816206d4b03eb00139a739df82c
:100a20001720da730ce10023442205a9204604f0c4
:100a3000f9fa00288bd1674b1b68002b87d0654bd8
:100a40001b68159905a8984781e7062700e0062747
:100a50000023102201a9204604f0e4fa00287ff4c4
:100a600076af9df91060f3b20a2b3ff670af574b8b
:100a700003eb061300221a73bdf90c20bdf80e001b
:100a8000bdf80610adf81e1002990891db88bdf87c
:100a9000121099420bd0102d7ff659af012300227e
:100aa0001146104604f0befa51e70927d0e7002aa4
:100ab00001ddaa420fdbadf8182000230593424b5d
:100ac0001b68002b3ff443af3f4b1b6805aa394618
:100ad000304698473be795b2adf81a5033013b4a90
:100ae000d358002b3ff433af02eb06139b889bb225
:100af000002b3ff42caf02eb06139b7adbb2012be9
:100b00007ff425af02eb06139b88eb1a1bb2002b78
:100b100003dd02eb06139a8895b233012b4ad158b4
:100b200001232a46204404f07dfa00287ff40faf09
:100b3000264a3301d018d1580591adf81850bdf8a8
:100b40001a104d1badf81a5000218180d1501e4b58
:100b50001b68002b3ff4fbae1b4b1b6805aa3946f4
:100b600030469847f3e6072500e0072500230822d2
:100b700005a9204604f056fa00287ff4e8ae9df956
:100b80001400c3b20a2b3ff6e2aebdf81630adf842
:100b900004300e4b03eb0013db88bdf818209a429b
:100ba0007ff4d5ae084b1b68002b3ff4d0ae064b4c
:100bb0001b6801aa29469847c9e60825d6e700bf61
:100bc00034b2002028b2002030b200201cad00203a
:100bd000bab200202cb2002000230593069308220d
:100be00003e00023059306930422002305a9204671
:100bf00004f018fa00287ff4aaae9df91400c3b2dd
:100c00000a2b3ff6a4ae8df804009df915208df84f
:100c10000520104b03eb00131b899bb2002b0cbf6c
:100c200005210a21002a7ff4f4aebdf81630083bf6
:100c30009bb2084a02eb001213819df818305373df
:100c4000054b1b68002b3ff482ae034b1b6801aac7
:0c0c500098477ce61cad002030b200206c
:020000040000fa
:020000040100f9
:100c5c002de9f0419cb014462c286dd01b287cd07b
:100c6c00062800f08a800e2874d0322800f0958077
:100c7c003d2800f0a2802f2800f0af80342800f02f
:100c8c00c280112800f0d080132800f0e4800428e2
:100c9c0000f0f380652800f00281092800f0118132
:100cac002a2800f02081272800f03081202800f02d
:100cbc0040811d284ed1002304226946204604f0b1
:100ccc00abf9002846d1bdf80280bdf80030adf874
:100cdc000630a64b1b68002b3cd0a54b1b68002b89
:100cec0038d0a44b1b88002b34d0a24ea04d9f4f64
:100cfc00bdf80630328893429abf1a46012300236e
:100d0c00adf80420296808eb040004f085f908bb51
:100d1c00bdf80430bdf80620d21aadf806204344c5
:100d2c001ffa83f83b6801aa29681d209847bdf873
:100d3c000630002bdcd10de0002304220deb020168
:100d4c00204604f069f928b98b4b1b6813b101a933
:100d5c002c2098471cb0bde8f0810023082201a983
:100d6c00204604f059f90028f4d1834b1b68002b62
:100d7c00f0d001a91b209847ece70123302201a9f0
:100d8c00204604f049f90028e4d17b4b1b68002b6a
:100d9c00e0d001a906209847dce70023182201a91e
:100dac00204604f039f90028d4d1734b1b68002b72
:100dbc00d0d001a932209847cce70123002211465c
:100dcc00204604f029f90028c4d16b4b1b68002b7a
:100ddc00c0d000213d209847bce764252a4600215d
:100dec0001a806f07df800232a4601a9204604f04c
:100dfc0013f90028aed1604b1b68002baad001a9b7
:100e0c002f209847a6e7002304220deb0201204671
:100e1c0004f002f900289dd1574b1b68002b99d088
:100e2c0000213420984795e70023544a137004227c
:100e3c000deb0201204604f0eff800288ad19df852
:100e4c0004204f4b1a704c4b1b68002b82d001a90d
:100e5c00112098477ee700232c2201a9204604f09c
:100e6c00dbf800287ff476af434b1b68002b3ff474
:100e7c0071af01a9132098476ce7002304221aa92b
:100e8c00204604f0c9f800287ff464af3a4b1b6885
:100e9c00002b3ff45faf1aa9042098475ae70023b0
:100eac0004221aa9204604f0b7f800287ff452afa8
:100ebc00314b1b68002b3ff44daf1aa965209847a6
:100ecc0048e70123642201a9204604f0a5f8002874
:100edc007ff440af284b1b68002b3ff43baf01a9bc
:100eec000920984736e7012304220deb0201204626
:100efc0004f092f800287ff42daf1f4b1b68002bd9
:100f0c003ff428af01a92a20984723e700230422a5
:100f1c000deb0201204604f07ff800287ff41aaf95
:100f2c00154b1b68002b3ff415af01a927209847e0
:100f3c0010e70023082201a9204604f06df80028d0
:100f4c007ff408af0123bdf80820019904f10800d3
:100f5c0004f062f800287ff4fdae074b1b68002bf1
:100f6c003ff4f8ae01a920209847f3e614b2002014
:100f7c0010b20020b6b2002018b20020c0b200207f
:040f8c00beb20020d1
:020000040000fa
:020000040100f9
:100f90002de9f04f099f154604468e461e46002b4c
:100fa00040f0cc808a42b2fa82fc4cd9bcf1000fee
:100fb0000bd0ccf1200801fa0cfe20fa08f802fa56
:100fc0000cf548ea0e0e00fa0cf44fea15491ffa28
:100fd00085f8befbf9fa210c09fb1ae30afb08fbb2
:100fe00041ea03439b452ad9eb180af1ff3004d2aa
:100ff0009b4502d9aaf102002b44a3eb0b03a4b238
:10100000b3fbf9f209fb123302fb08f844ea03448c
:10101000a04516d92c1902f1ff3303d2a04501d9fe
:10102000931e2c44a4eb080443ea004027b124faa1
:101030000cf400233c607b603146bde8f08f5046e5
:10104000dbe71346eee702b9ffdebcf1000f2ed15d
:101050008b1a01264fea154eaab2b3fbfef8210cfb
:101060000efb183308fb02f941ea0343994561d9a5
:10107000eb1808f1ff3004d2994502d9a8f102001b
:101080002b44a3eb0903a4b2b3fbfef10efb113317
:101090004a4344ea0344a2424ed92c1901f1ff33da
:1010a00003d2a24201d98b1e2c44a41abce7ccf176
:1010b000200e02fa0cf521fa0ef901fa0cf320facf
:1010c0000efe4eea03034fea154800fa0cf4b9fb92
:1010d000f8f11ffa85fe08fb1192180c01fb0ef6c1
:1010e00040ea0242964221d9aa1801f1ff3003d208
:1010f000964201d9881e2a44921b9bb2b2fbf8f992
:1011000008fb192209fb0efe43ea02439e450fd954
:10111000eb1809f1ff3604d29e4502d9a9f1020667
:101120002b44a3eb0e0346ea004693e70846e3e7a9
:101130004e46f6e74046a4e70b46b6e78b4206d993
:10114000002f7ed00026c7e90001304674e7b3facd
:1011500083fcbcf1000f0fd18b4201d3824209d82e
:10116000841a61eb030e0120002f6dd0c7e9004ef9
:10117000002661e76046f7e7ccf1200e03fa0cf396
:1011800022fa0ef521fa0ef41d4301fa0cf320faaf
:101190000ef10b434fea154a00fa0cf6b4fbfaf9cc
:1011a0001ffa85f80afb19401c0c09fb08f144eaf8
:1011b0000044a14202fa0cf23fd92c1909f1ff3088
:1011c00004d2a14202d9a9f102002c44641a9bb2b4
:1011d000b4fbfaf90afb194409fb08f843ea044195
:1011e00088452cd9691809f1ff3304d2884502d902
:1011f000a9f10203294443ea0040a1eb0801a0fb46
:1012000002894945c2464c4602d306d1464504d21e
:10121000b8eb020a69eb05040138afb1b6eb0a037b
:1012200061eb040606fa0efe23fa0cf34eea030302
:1012300026fa0cf6c7e900369ae74846c6e74b4659
:0c124000d9e73e463846f7e63e46f5e6a4
:020000040000fa
:020000040100f9
:10124c002de9f84f80460e4699469500284603f046
:10125c0021fc002800f0d1800746542003f01afc32
:10126c000446002800f0908007632a46a5213846e2
:10127c0005f036fe276b002e00f08c80337884f856
:10128c00343053b1334604f134010f3613f8012fc7
:10129c0001f8012f0ab1b342f8d1002384f843308e
:1012ac000a9b042b28bf04239a46e36263644ff025
:1012bc00000bc4f848b0261d304605f0c0fe04f102
:1012cc00180005f0bcfe2461caf10503a361646239
:1012dc00c4f84cb084f850b0043d3d444a464146f5
:1012ec0025f0070005f0eef920600b9b03b11c60a4
:1012fc0005f0c2fb454a136801331360444b1b686d
:10130c00002b4bd0434b1b683bb9414b1b68da6a33
:10131c00e36a9a429cbf3e4b1c603f4a1368013300
:10132c001360e36a3d49086801229a4002430a604f
:10133c003b4a03eb830302eb83035b68a36099686e
:10134c00e1604e609e60e06a8300191889005518b0
:10135c0065615158013103449b00d15005f03efdad
:10136c002c4b1b68002b4cd0294b1b68da6ae36aa8
:10137c009a4248d22b4b4ff080521a60bff34f8fda
:10138c00bff36f8f01203ae0384605f044fb4ff075
:10139c00ff3034e0002384f8343081e71c4b1c60b0
:1013ac001368012bb9d11e4d284605f0d8fc05f168
:1013bc00140005f0d4fc05f1280005f0d0fc05f173
:1013cc003c0005f0ccfc05f1500005f0c8fc164fb4
:1013dc00384605f0c4fc154d284605f0c0fc1448f1
:1013ec0005f0bdfc134805f0bafc134805f0b7fc3a
:1013fc00124b1f60124b1d608fe74ff0ff30bde8a2
:10140c00f88f0120fbe70120f9e700bf74b2002040
:10141c0068b2002098b2002080b2002084b2002074
:10142c00fcae002004ed00e038b100204cb10020ef
:10143c0060b1002088b1002074b100206cb2002093
:04144c0070b200205a
:020000040000fa
:020000040100f9
:10145000431e13f1030f00f2e3802de9f04186b043
:10146000044690f901300133032b00f2d680dfe807
:1014700003f004021db6037813b906b0bde8f0818d
:101480004068fc3005f0cdfc6068d03005f0c9fc48
:10149000636800251d71284605f040fb04f0f6ff47
:1014a00004f040fe05f090fd2570e6e743683bb18f
:1014b00004f024f905f0d6fb28b1ff236370dce7c4
:1014c000ff234370d9e7606800230a220121fc3022
:1014d00004f04efa012802d0ff236370cde705f037
:1014e000b5fb002302930393049305934d4b0193a3
:1014f00001a803f04ff810b1ff236370bde704f0bb
:101500002ffe494805f0b8f8484d00266e71ae71bf
:10151000ee712e72ee72012785f838704ff00208d6
:1015200085f839801e2385f83a3085f83b80d3232f
:1015300085f83c304ff49673eb87a5f8406085f84a
:101540004860ee6485f85060c5f88460c5f888602e
:10155000c5f88c60c5f89060c5f89460c5f89860cf
:1015600085f89c6085f89d6085f89e70c5f8a06040
:10157000c5f8a460c5f8a860c5f8ac602c4bc5f8e8
:10158000b030c5f8b460c5f8b860c5f8bc60c5f83f
:10159000c060c5f8c460c5f8c860ff2385f8d430c2
:1015a000c5f8f060234ac5f8d820234bc5f8dc30d5
:1015b000224bc5f8e030c5f8f8603146204804f009
:1015c00013fd3b463a46314605f1d00004f0d0f910
:1015d0006068423005f070f984f801804de740689a
:1015e0004ff6ff71fc3005f06cfa01287ff445af2f
:1015f00094f90130022b7ff440af63681b7913f03c
:10160000080f7ff43aaf05f0f8fc00283ff435af3f
:101610006068fc3005f03efb2fe7ff2343702ce7aa
:10162000704700bfc9040001653100011cac0020f7
:10163000c0a80a0199500001d9220001995e000159
:041640007d5d0001cb
:020000040000fa
:020000040100f9
:101644002de9f04f87b006460f4693469a46bdf8fb
:101654004490bdf848806e4d4ff6ff7421462846ed
:1016640005f02dfa0028f9d007f07f038df8153026
:101674008df81460109b93b109f1080343449bb2a5
:10168400adf8163040f23c6293420cd94ff0ff346f
:101694005f4805f0fdfa204607b0bde8f08f0af177
:1016a40008039bb2ece704f065fe04460028efd182
:1016b40000230393adf806300293029b1e43029667
:1016c400029b43ea07270297029bbdf8162043ead0
:1016d40002430293029941f28c0005f088fc04460f
:1016e40010b105f0c9fad3e700230293029b43f03b
:1016f40002030293029941f2780005f078fc044653
:101704000028eed100230393adf80630bdf806306f
:101714009bb2b3f57a7f2bd241f2780401250fe016
:10172400029b13f0020f1cd0bdf8063001339bb2ac
:10173400adf80630bdf806309bb2b3f57a7f17d208
:1017440002a9204605f04ffc90b9bdf806309bb2c3
:10175400b3f5fa7fe4d3bdf80630284605f037fc2c
:10176400dee703a92b4805f03efc0446002846d1d9
:10177400039b002b46d0039b04930498082205a9dd
:1017840004f0c8f804460028abd1049b0833049342
:10179400bbf1000f0ad004985246594604f0baf837
:1017a400044600289dd1049b53440493109b7bb1b1
:1017b400049aa8eb0a031344049304984a46109924
:1017c40004f0a8f8044600288bd1049b4b440493ee
:1017d400039b9b000293029b43f002030293029932
:1017e40041f26c0005f003fc044600287ff479af55
:1017f40004f0b2fe0446064805f04afa4be700231b
:1018040003936ee704f0a8fe6ff0020440e700bf04
:081814001cb2002000041500c5
:020000040000fa
:020000040100f9
:04181c0000207047f1
:020000040000fa
:020000040100f9
:101820002de9f84f002310eb030a674b144641ebf8
:10183000030b63a3d3e900235b4508bf5245c0f007
:10184000bc80624d624a451941f1ff3800232846a9
:10185000414602f0b3fd5e4a82468b46284600238d
:10186000414602f0abfd151e07da05f5a8351af161
:10187000ff3a05f5c0754bf1ff3b1af103004bf140
:1018800000010722002302f099fd0023b2f10008b5
:101890005046504a5946b8bf08f1070802f08efd7d
:1018a0004c4a814600235046594602f087fd002ae3
:1018b000bebf02f50e3202f2b12209f1ff3948f63d
:1018c000ac634548b2fbf3f3042b08bf032300fbd2
:1018d0000320424940f2b55290fbf2fcbcf1190fd3
:1018e00008bf4ff0180c01fb0c01920891fbf2f2bb
:1018f000042a08bf03226ff4b67000fb0211002a0d
:1019000052d1bcf1000f51d1b3fa83f0400902eb80
:101910008c024ff0640c0cfb0322b1f5997f0cf59f
:10192000967c4feae273ccfb0923b8bf01f13b0e72
:10193000dff8ac90b4bf7044a1f599704ff0000c83
:1019400019f801eb8e4533ddbcf1090f04dd0132de
:10195000acf10c0c43f10003dff888e012eb0e064b
:101960004ff0000e43eb0e07012f08bf002e24d2cc
:1019700064320cf10203013162613c222361e160b7
:101980004ff46163b5fbf3f3a360b5fbf2f3b3fb74
:10199000f2f102fb135502fb1131c4e906806160cc
:1019a00025607046bde8f88f0020b0e70120aee763
:1019b000a1eb0e010cf1010cc2e74ff0ff30f1e793
:1019c000007b1dfeff84e2018042f10080a243c73c
:1019d00080510100b13a02005471ffff4bfaffff42
:0819e000bc6f000164000080ef
:020000040000fa
:020000040100f9
:1019e80030b585b0624d4ff6ff742146284605f0a4
:1019f80064f80028f9d001a941f2700005f0f1fa65
:101a0800044618b9019911f0010f05d1584805f09d
:101a18003df9204605b030bd21f00101019141f2a8
:101a2800700005f0e2fa04460028efd1514b01227c
:101a38009a70019dc5f38b0515b96ff00104e5e7b0
:101a48000023039303a941f2840005f0cafa04466f
:101a58000028dbd10398474b58609d60042202a9f7
:101a680003f02aff04460028d0d1bdf80a309d4271
:101a780002d0ed1a042d75dc3d4805f007f99df8f4
:101a88000830012b18d0022b2cd0042b3ad0062b6f
:101a980048d0072b56d0052b67d1364b5b6acbb1a4
:101aa800344b5b6abdf80a100839039a083289b2c8
:101ab8009df8090098470de02e4bdb6853b12d4b7c
:101ac800db68bdf80a100839039a083289b29df814
:101ad80009009847274b9b78002b9ad004f02cfce0
:101ae800044696e7234b1b69002bf3d0214b1b6957
:101af800bdf80a100839039a083289b29df809001e
:101b08009847e7e71b4b5b69002be3d0194b5b69f0
:101b1800bdf80a100839039a083289b29df80900fd
:101b28009847d7e7134b1b6a002bd3d0114b1b6a7e
:101b3800bdf80a100839039a083289b29df80900dd
:101b48009847c7e70b4b9b69002bc3d0094b9b6990
:101b5800bdf80a100839039a083289b29df80900bd
:101b68009847b7e76ff0050450e76ff0050450e7b2
:081b78001cb20020ccb00020db
:020000040000fa
:020000040100f9
:101b80002de9f84f584b1b68002b40f0a780574bae
:101b90001c6801341c60b4b1554b1b68a3421fd9ab
:101ba0000020544b1b68db6a03eb83039b00524a03
:101bb000d358022b28bf0120504b1b68002b18bfa5
:101bc0000120bde8f88f4e4a11684e4b186810602e
:101bd00019604d4a13680133136004f033fedbe7ec
:101be000002047498346494d4ff0010e424adff835
:101bf00004c137e03e4b4ff0ff321a60d1e73c4b57
:101c00001e60cee7de6ad5f800a00efa06f848eab4
:101c10000a08c5f8008006eb860602eb86067668a1
:101c20009e60d6f80880c3f80c80c8f80490c6f807
:101c30000890d3f82c904fea890606eb090802ebce
:101c4000880ac3f814a052f8288008f101084e440d
:101c500042f82680dcf80080de6ad8f82c309e42fc
:101c600028bf01200b681b68002bc3d00b68db6802
:101c7000db685e68b442c2d3d3f81480de689f6824
:101c8000be609f68776003f10409d8f804604e4590
:101c900004bfde68c8f80460c3f814b0d8f8006068
:101ca000013ec8f80060d3f82880b8f1000fa9d031
:101cb0001e6adf69be60df69776003f1180ad8f831
:101cc0000460564504bf1e6ac8f80460c3f828b013
:101cd000d8f80060013ec8f8006093e70c4a13682a
:101ce0000133136000206ce77cb200209cb200201e
:101cf0008cb2002068b20020fcae0020a0b2002010
:101d00006cb2002070b2002090b2002084b200209b
:041d100094b2002069
:020000040000fa
:020000040100f9
:101d14002de9f04f83b00d9e3eb3009315460f4658
:101d2400019104464ff0ff33336003f06bff8046ac
:101d3400d8b1edb1e7b1b8f80090554a5c2303fb84
:101d4400092393f844302bb15c2303fb09231b6c58
:101d5400a3420ad14ff05c0b0bfb09fb4c4b03eb8a
:101d64000b0a504602f0e9ff48b903b0bde8f08f12
:101d74000c9b002bf9d0009b002bdcd1f5e7b8f8c5
:101d840000e0434b5c2202fb0e32d2f818c0d36c45
:101d9400d06970b10022984298bf002303ebc301bd
:101da4000ceb81071cf8211039b101320133904248
:101db400f1d1504603f01cfad7e701223a70002211
:101dc4003a62334a5c2101fb0e21888c98f800208a
:101dd400120242ea0042d8b20243fa618a8c01320a
:101de40092b24ff6ff718a4208bf012228495c2053
:101df40000fb0e1eaef824200133cef84c30009bbd
:101e04007b60019bbb6001237b7500233b75bc6138
:101e1400d8f818303bb1082b16d86d00fd600c9b28
:101e24005b003b6102e0fd600c9b3b61fb6933603e
:101e3400daf8203073b1164b9b44dbf8203013b32f
:101e44001a6ae2b91a461de0ad00fd600c9b9b00c6
:101e54003b61ebe7caf8207002237b75384602f039
:101e6400e3fb0b4b5c2202fb0939d9f814305c68a4
:101e74003b697a68f968b868a04704e01a46136aaf
:101e8400002bfbd11762504603f0b2f96de700bf97
:041e940060af00201b
:020000040000fa
:020000040100f9
:101e98002de9f04704f0f2fd504b1a68013a1a6038
:101ea8001b68002b40f093804d4b1b680bb9002436
:101eb8008ee000234b491c464b4801264b4adff86d
:101ec8003ca1dff830c10d68002d5fd0cb68db681e
:101ed800d3f828e0dd691f6aaf601d6adf696f60ab
:101ee80003f11808def80450454504bf1d6acef812
:101ef80004509c62def80050013dcef80050d3f843
:101f08001480dd689f68bd609f686f6003f1040ef0
:101f1800d8f80450754504bfdd68c8f804505c6102
:101f2800d8f80050013dc8f80050dd6ad0f800909c
:101f380006fa05f848ea0908c0f8008005eb8505a7
:101f480002eb85056d689d60d5f80880c3f80c80a4
:101f5800c8f804e0c5f808e0d3f82c804fea8805f3
:101f680005eb080e02eb8e09c3f8149052f82ee028
:101f78000ef1010e454442f825e0daf80050ed6a0a
:101f8800df6aaf429fd3ccf800609ce70bb104f046
:101f980055fc174b1c686cb1164e012501e0013c3d
:101fa80005d0fff7e9fd0028f9d03560f7e7104bb9
:101fb80000221a600f4b1c6854b10f4b4ff080522f
:101fc8001a60bff34f8fbff36f8f012400e0002426
:101fd80004f006ff2046bde8f08700bf7cb2002071
:101fe80074b2002060b1002084b20020fcae002052
:101ff80094b20020a0b2002004ed00e068b20020f6
:020000040000fa
:020000040100f9
:1020080008b5574b9b7d002b53d0554a536803f0b6
:102018000703127e12f0040f5bd0514a906a5149af
:102028004a69c9688a4254d2002b43d14d4b59683a
:10203800885401325a614a4b1b7e13f0010f18d0a5
:10204800474b01221a75474a93699268934258d2be
:10205800444a1168c85c4249886201339361414b24
:102068009a699b689a4261d03e4b5a69db689a42ea
:1020780069d03b4b1b7e13f0020f14d03a4b1b78f0
:10208800bbb1384b5a69db689a420fd1354b0022f5
:102098001a7733490720087533490a701b6a43b118
:1020a800304a506a9847304b1b7813b12c4b0222a8
:1020b8009a7508bd2b4b596821f8120001325a61f4
:1020c800274b1b7e13f0010fd3d0254b01221a7525
:1020d80009e0234a127e12f0010fcad0204a0121da
:1020e8001175002bafd01f4a93699268934212d2a0
:1020f8001c4a116831f81300194988620133936149
:10210800ade7184b1b6923b3154aff219162013bc8
:10211800144a1361a3e7134b1b69d3b1104a4ff656
:10212800ff719162013b0f4a136198e70d4b1b69e0
:10213800002b99d10c4b01221a70094b1b7e13f00e
:10214800020f9ed1b2e7064b01229a7504221a7536
:102158008fe7044b9a699b689a4285d1eae700bfea
:0c21680000100040a0b00020c3b2002016
:020000040000fa
:020000040100f9
:1021740030b5a3b014466a280bd06b281cd0722843
:102184002ed074284ad0762866d078287dd023b003
:1021940030bd00230193029303930493102201a9f9
:1021a400204602f03dff0028f1d1444b1b68002b70
:1021b400edd001a89847eae70023019304220deb30
:1021c4000201204602f02cff0028e0d13c4b1b68a2
:1021d400002bdcd09df805109df804009847d6e745
:1021e4000023019302930123082201a9204602f04f
:1021f40017ff0028cbd19df8080018b99df80920d5
:10220400304b1a70304b1b68002bc0d0019a2d49fb
:10221400097898472c4b00221a60b8e700230193f1
:1022240002930123082201a9204602f0f9fe0028a6
:10223400add19df8080018b99df80920214b1a70fa
:10224400214b1b68002ba2d0019a1e49097898479c
:102254001d4b00221a609ae784252a46002101a812
:1022640004f042fe01232a4601a9204602f0d8feca
:1022740000288cd1154b1b68002b88d0bdf8042096
:1022840002a99df80600984781e7002301930123e2
:1022940004220deb0201204602f0c2fe00287ff466
:1022a40076af0b4b1b68002b3ff471af9df8040015
:1022b4009847074b00221a6069e700bff8b1002075
:1022c400fcb10020bcb20020f0b10020f4b1002029
:0422d400ecb1002049
:020000040000fa
:020000040100f9
:1022d8002de9f04f85b0554b5c6864b10d469246c8
:1022e80004f1d00750b1d4f8f84024b103460222d3
:1022f80039464e48a04705b0bde8f08f4ff6ff714c
:10230800384604f0dafb0128f5d1d4f8f030002b78
:1023180000f08780d4f8e8305345c0f08280baf1e5
:10232800000f1bd0d4f8f420924598bf564605d923
:1023380056464ff00008dff8f49032e0324629465e
:10234800d4f8f00004f018fdd4f8f0303344c4f8a1
:10235800f030d4f8f4309b1bc4f8f430d4f8e830eb
:10236800a3eb0a03c4f8e830d4f8e4205244c4f8d4
:10237800e420002b45d0384604f088fc2b484368fd
:10238800d3f8f8300293002201920092134639469e
:1023980000f064ffafe7002ee0d0d4f8f420b2429a
:1023a800ccd22946d4f8f00004f0e6fcd4f8f43096
:1023b8001d44f61ac4f8f080c4f8f480d9f8043043
:1023c800d3f8f830002be6d0384604f05ffcd9f893
:1023d8000430d3f8f8b04346042239464846d84773
:1023e8004ff6ff71384604f068fb012883d1d4f812
:1023f800f0301bb1d4f8f430002bccd10023c4f852
:10240800e830384604f042fc084b5b68d3f8f840e3
:10241800002c3ff470af0023022239460348a0473e
:1024280069e7384604f032fc65e700bf9cb100203c
:020000040000fa
:020000040100f9
:102438002de9f04184b0044601914ff0000846466a
:1024480045464f4f43e0013ba36323684bb12369e3
:102458005bb904f0c5fc4ff00108404604b0bde884
:10246800f08104f0abfba060f1e704f1100001f08b
:1024780041fa0028edd0424b4ff080521a60bff36a
:102488004f8fbff36f8fe4e704f0aafc4ff000080a
:10249800e3e702a804f04efc23e004f0effaa0689a
:1024a80001f0c4fb804604f09bfc40e0204602f0ab
:1024b800c3fcfff7edfc09e0204602f0bdfcfff786
:1024c800e7fc204604f042fc002844d1012604f031
:1024d800d5faa36b002bb6d1019b002bd4d0002ecc
:1024e800d7d004f07dfc04f0f5fc04f0c7fa94f8aa
:1024f80044305bb2b3f1ff3f08bf84f8445094f80e
:1025080045305bb2b3f1ff3f08bf84f8455004f093
:1025180067fc01a902a803f0bdf80028ccd1204629
:1025280004f014fc0028c1d02368002bb5d0019911
:1025380004f1240004f034fb204602f07dfcfff790
:10254800a7fc0028c2d14ff080533b60bff34f8fe8
:10255800bff36f8fbae7b8f1000f3ff47eaf04f016
:102568008dfa616a19b1236b1968c1f10501a06878
:1025780001f0beff04f034fc4ff000086de700bf27
:0425880004ed00e07e
:020000040000fa
:020000040100f9
:10258c00002800f0a28030b583b004460378013bec
:10259c00032b7ed8dfe803f00219797f01210df1be
:1025ac00070002f0a7f9002873d09df80730122b12
:1025bc0007d0a52b6dd1022323700023a4f8083873
:1025cc0067e05b2004f0a8fb63e0b0f8081801f1a9
:1025dc000800c1f10c01204402f08cf9b4f8083861
:1025ec00184480b2a4f808080c2852d1e21d04f15a
:1025fc001305002100e0194612f8010f80ea0103cf
:10260c00dbb2aa42f7d1884236d1217a84f80a1873
:10261c00e37aa27a42ea0322a4f80c28e07ba37b9b
:10262c001b0443ea0063207b0343607b43ea0023e3
:10263c00c4f81038e07ca37c1b0443ea0063207cc4
:10264c000343607c43ea0023c4f8143803290ed0fa
:10265c000023a4f81838ac2004f05efbb4f818384a
:10266c0083b1042323700023a4f8083811e0a4f8e4
:10267c001828b2f5006feed9012323705a2004f00c
:10268c004bfb06e00323237003e000f05fff012304
:10269c00237003b030bdb0f80838b0f8181803f147
:1026ac000800c91a204402f025f9b4f80838184477
:1026bc0080b2a4f80808b4f818388342e9d120464f
:0c26cc0000f044ff01232370e3e7704797
:020000040000fa
:020000040100f9
:1026d80038b54f4b9b7dd3b14d4a137edbb2927d0b
:1026e80012f0800f14d14a4a137edbb2927d12f0a9
:1026f800010f02d013f0010f50d1454a137edbb20f
:10270800927d12f0040f02d013f0040f18d138bdd7
:1027180013f0800fe7d03e4b5b8b13f00703e2d03a
:102728003c4ce38503f02eff394b84221a750023b5
:1027380084f82c30636a002bd5d0a06a9847d2e77a
:10274800344b93f82c30002be1d0324b1a6adb69fa
:102758009a42dcd22e4b9a6a5b6803f00703012b7e
:102768002c4b196a9b6914bf5a5423f81120294b22
:102778001a6a01321a621a6adb699a42c7d1254b72
:10278800002283f82c20da61214a842111755b6ac2
:10279800002bbcd01f4a906a9847b8e71d4b1b7d99
:1027a800002baad01b4b9a685c68194b1b7e13f050
:1027b800010f18d0a24216d2164b1d6814494a6858
:1027c80002f00702012a9a6814bfaa5c35f81220a1
:1027d8008a629a6801329a6098680a7e12f0010f3c
:1027e80001d08442ebd80b4b9a685b689a4284d339
:1027f800084b00221a755a60054a01211175db68d9
:10280800002b3ff47aaf034a1069984775e700bf79
:08281800000c00403cb0002060
:020000040000fa
:020000040100f9
:1028200070b504464c4b187d93f82c30002b40f0cb
:102830008e80c0b203f0ff02002840f08a80002c96
:1028400000f086802568002d00f08280434b00292f
:1028500008bf1946b1eb051f3dd300260a46334693
:102860002805290b03f0c2fec0f5803033463c4af0
:10287000116821f0020111601146ca69002afcd1d9
:1028800080b2374a90816268022a4ed0344802688a
:1028900022f0706222f4604242ea433242f08072d7
:1028a00002604268a368e1680b4322f4015222f0ff
:1028b00007021343626813434360294ad369002b1c
:1028c000fcd1274a136843f002031360d369002b3d
:1028d000fcd101203ce0b1ebc50f09d30a4600232f
:1028e000e804690b03f082fec0f580300223bee7e6
:1028f00005eb45038b4215d80022681942eb020311
:10290000401943eb02052b0443ea1043020410462e
:102910001d460a460023294603f068fec0f58030b4
:102920000423a4e700231846a1e70d490a6822f012
:10293000706222f4604242ea43320a604a68a36845
:10294000e068034322f0470213434b60b5e70020e1
:1029500070bd1046fce700bf3cb000200090d003e3
:04296000000c004027
:020000040000fa
:020000040100f9
:1029640070b584b09df820408df80400c3380c285d
:1029740000f28d80dfe800f05a2e8b8b48487307f5
:102984008b8b8b8b3f000b0c8df805300b0a8df86d
:1029940006308df8071005213e4b1b78002b73d1b0
:1029a4004c1e01ab1e197f203b4d13f8012b82ea0c
:1029b4004002a85cb342f8d104ab1c44420004f8c2
:1029c4000c2c01a803f0b4f980f00100404240b29d
:1029d40004b070bdc1f3072344b98df805308df8f8
:1029e400061000238df807300521d5e763f07f0337
:1029f4008df80530f3e7ff238df805308df80630a8
:102a04008df807300521c7e70a0c8df805200a0a5e
:102a14008df806208df807101a0c8df808201a0a74
:102a24008df809208df80a300821b5e7c1f3072392
:102a340084b98df805308df80610130e8df8073023
:102a4400130c8df80830130a8df809308df80a201c
:102a54000821a1e763f07f038df80530ebe70b0c49
:102a64008df805300b0a8df806308df80710130e1b
:102a74008df80830130c8df80930130a8df80a30dc
:102a84008df80b20092187e70139c9b299e74ff086
:0c2a9400ff309de7bdb20020643000015f
:020000040000fa
:020000040100f9
:102aa0004ff08842d2f8003113f4007ffad00023af
:102ab000434901334a6a12f0010f11d1b3f5fa5fad
:102ac000f7d13f4b5b6a13f0010f0cd13c4a5368be
:102ad00043f480735360536a13f0010ffbd002e09c
:102ae000b3f5fa5fedd2374ab2f8ba3403f0fd031a
:102af000a2f8ba340022324901324b6a03f00303d0
:102b0000032b13d0b2f5fa5ff6d12d4b5b6a03f0bd
:102b10000303032b0dd02a4a536843f40073536018
:102b2000536a03f00303032bfad102e0b2f5fa5f14
:102b3000ebd24ff088430022c3f8b020224ac3f8fa
:102b4000b02002f12b42a2f54b12a2f6ab42c3f821
:102b5000b02003f520631d4a1a624ff480721a6098
:102b600001229a601a46136813f0010ffbd1184b2b
:102b700048f20902c3f8502140f201221a674ff4cb
:102b800000429a674ff0884349f209021a66002210
:102b90001a67c3f880200f4ac3f8c02047f6fc72ba
:102ba000c3f8e0204ff03332c3f8b020044b5a682a
:102bb00042f010025a604ff080721a60704700bff6
:102bc0000040014100200141556699aa080101c059
:082bd000000a0044cf010020bf
:020000040000fa
:020000040100f9
:102bd8002de9f04f89b004908b4692464ff6ff716d
:102be800454803f079ff012866d1baf1010f08bf03
:102bf8004ff0020a0a274ff00008dff80091cdf8dd
:102c080014a038e0b4f5005f94bf0323022363f0f7
:102c18000f038df81b3051460df11b0003f086f8a9
:102c280018b329460beb060003f080f8e8b199f8d1
:102c38000030a3b12e4436b2641ba4b2002c3fd09e
:102c48002546b4f5005f28bf4ff40055adb2002efd
:102c5800d8d1b4f5005f94bf03230123d7e702213d
:102c680007a803f063f80028e4d103f059fd013ff9
:102c780017f0ff0716d0cdf80080059c2346424682
:102c88000499c720fff76afe0028eed1c72002f09a
:102c980011f803900028e8d1adf81c8046464ff0a3
:102ca800010acde7144804f009f86ff0050303930f
:102cb800039809b0bde8f08f6ff005030393f7e7b9
:102cc80099f80030002b0cbf02240324214607a8e2
:102cd80002f076fe0028c8d008ab234413f8053c60
:102ce800002bc2d108ab1c4414f8063cc32bbcd142
:102cf800014803f0e3ffdbe70cb20020bdb200207f
:020000040000fa
:020000040100f9
:102d080030b40c4600294dd000284bd04649097fe5
:102d1800002940f08680454d6d6805f00705012db6
:102d280046d0414908604a6000254d618d610d61ba
:102d3800a84208bf2c468c60aa4218bf1d460a4606
:102d4800cd6001211177394a127e12f0040f05d0a7
:102d5800364a916a117e11f0040ffad1334a518b29
:102d680041f004015183117e41f080011176a542a2
:102d780002d92a1b2c490a612c4a526812f0070f03
:102d88002bd1294a9269a2421cd20078274988622d
:102d9800013225498a61002b3bd0244b04229a75c5
:102da80001213be0002b38d0002aafd1002135e0cb
:102db80014b114f0010f31d1002bb2d013f0010f70
:102dc800afd02be0184a1269002ae4d01749ff2037
:102dd8008862013a14490a61dde76408124a94607e
:102de8001169490811616d08d5609269944206d944
:102df80000880e49886201320b498a61cbe70029b5
:102e0800c9d00a4a4ff6ff7090620139064a11612b
:102e1800c1e70121054b997500e00021084630bc47
:102e280070470021fae700bfa0b000200010004062
:020000040000fa
:020000040100f9
:102e38002de9f04784b00446884601921d464ff0bc
:102e480000094e46424f33e02a464146204602f0ea
:102e58006ff8636a73b938b13d4b4ff080521a600e
:102e6800bff34f8fbff36f8f03f0baff012004b099
:102e7800bde8f08704f1240000f03cfd0028f3d001
:102e8800334b4ff080521a60bff34f8fbff36f8ff1
:102e9800eae703f0a5ff0020e9e702a803f04affec
:102ea80014e0204601f0c8fffef7f2ff4ff00109d9
:102eb80003f0e4fda26be36b9a42c5d3022dc3d0a5
:102ec800019b002be5d0b9f1000fe6d003f088ff95
:102ed80004f000f803f0d2fd94f844305bb2b3f18b
:102ee800ff3f08bf84f8446094f845305bb2b3f103
:102ef800ff3f08bf84f8456003f072ff01a902a8ec
:102f080002f0c8fbe8b903f0b9fdd4f838a0d4f84a
:102f18003c9003f065ffca45c3d1019904f1100044
:102f280003f03efe204601f087fffef7b1ff0028c0
:102f3800bcd14ff080533b60bff34f8fbff36f8f0f
:102f4800b4e7204601f078fffef7a2ff00208ee7e5
:042f580004ed00e0a4
:020000040000fa
:020000040100f9
:102f5c0010b59cb01446062818d0072826d0012896
:102f6c0001d01cb010bd002370226946204602f02f
:102f7c0053f80028f5d1354b1b68002bf1d0703479
:102f8c00334a1460694601209847eae7002304227b
:102f9c006946204602f040f80028e2d12b4b1b6812
:102fac00002bded0694606209847dae7002308227a
:102fbc006946204602f030f800282dd1bdf80420d7
:102fcc00bdf80600bdf802309df8001062b9214a28
:102fdc0001241470984214bf00230123032931d813
:102fec00dfe801f00d18152202449a4214bf0023a9
:102ffc000123032922d8dfe801f0020d0a17154a34
:10300c001278012a06d1134a0021117002e0114aec
:10301c0002211170002ba4d00c4b1b68002ba0d0ec
:10302c000c49072098479ce70a4a1278022af1d0eb
:10303c00042aefd0074a03211170ebe7054a1278f6
:10304c00022ae7d0034a04211170e3e720b20020e2
:08305c0024b20020c1b20020e3
:020000040000fa
:020000040100f9
:103064000009121b242d363f48415a536c657e7764
:1030740019100b023d342f265158434a757c676e54
:10308400323b2029161f040d7a7368615e574c4544
:103094002b2239300f061d14636a7178474e555c34
:1030a400646d767f4049525b2c253e3708011a1324
:1030b4007d746f6659504b42353c272e1118030a14
:1030c400565f444d727b60691e170c053a33282104
:1030d4004f465d546b627970070e151c232a3138f4
:1030e4004148535a656c777e09001b122d243f36e4
:1030f40058514a437c756e671019020b343d262fd4
:10310400737a6168575e454c3b3229201f160d04c3
:103114006a6378714e475c55222b3039060f141db3
:10312400252c373e0108131a6d647f7649405b52a3
:103134003c352e2718110a03747d666f5059424b93
:10314400171e050c333a21285f564d447b72696083
:103154000e071c152a233831464f545d626b707973
:020000040000fa
:020000040100f9
:10316400002979d0f0b59db00c463c4b5b685bb14f
:1031740001280bd0062807d1d3f8c83023b10a6838
:10318400039203a9354898471db0f0bdd3f8cc503d
:10319400002df9d00e784b6801938b68029364225a
:1031a400002103a803f0a0fe731e042becd8dfe873
:1031b40003f003034d41490003afa4465cf80c0f30
:1031c400dcf80410dcf80820dcf80c300fc7dcf85d
:1031d4001000dcf81410dcf81820dcf81c300fc7e1
:1031e4000bafa4465cf82c0fdcf80410dcf80820c4
:1031f400dcf80c300fc7dcf81000dcf81410dcf835
:103204001820dcf81c300fc7b4f84c30adf84c3043
:10321400b4f84e30adf84e3014af54f8500f616826
:10322400a268e3680fc720696169a269e3690fc7ef
:1032340003ab0ce0a389adf80c30e389adf80e3094
:1032440003ab04e0e368039303ab00e0002301aaab
:1032540031460248a84797e7704700bf9cb1002059
:020000040000fa
:020000040100f9
:10326400f8b5441e14f1030f71d84468002c70d0d3
:10327400002970d084780cb90120f8bd1f46164689
:103284000d4604464ff6ff71284603f018fc01284a
:1032940063d1636803f1d002954229d12a79ff2ac8
:1032a40026d00022c3f8f8202eb12e626f62069b4e
:1032b4006b61079bab61eb6913b16a6993421cd9db
:1032c40063681b7913f0080f1cd1aa69eb68802a84
:1032d40028bf80226969287902f03cfa90bb6368b0
:1032e400089ac3f8f820284603f0d2fc0020c4e76b
:1032f400284603f0cdfc0220bfe7284603f0c8fcb3
:103304000220bae7012000f087fa88b9079b069ae1
:103314003146287900f05cff0446002000f07cfa76
:1033240058b9002cdfd0284603f0b2fc0820a4e7eb
:10333400284603f0adfc08209fe7284603f0a8fccc
:1033440008209ae7284603f0a3fc082095e702200a
:0e33540093e7022091e702208fe70d208de71e
:020000040000fa
:020000040100f9
:023362007047b2
:020000040000fa
:020000040100f9
:10336400002871d138b50d464ff6ff71394803f086
:10337400b5fb00286bd0384b93f91030022b48d1a1
:10338400354b1b78002b44d0334b5b78002b46d154
:10339400314b5b68002b48d12f4b996800294dd0e5
:1033a400da681446d3784bb12832002301338b42b8
:1033b40044d014462832e0780028f7d10122e27084
:1033c40015f0080f02d0244a01215170224a516895
:1033d40001315160918cdbb243ea01436362938c07
:1033e40001339bb24ff6ff72934208bf01231a4880
:1033f4008384503003f064fc45f00405a570002379
:103404006360a360ff22227784f820302380606aff
:1034140004e0104803f054fc4ff0ff3038bd0d4871
:1034240003f04efc4ff0ff30f8e715f0080fb3d06f
:10343400084803f045fc4ff0ff30efe7054803f080
:103444003ffc4ff0ff30e9e74ff0ff3070474ff09b
:0c345400ff30e3e7b0af002060af0020c5
:020000040000fa
:020000040100f9
:103460002de9f041804641f214040125204603f085
:10347000b8fd002803db284603f0abfdf6e7304833
:1034800003f0affd10f0010f19d1012003f0a1fdf1
:103490004ff00c1003f0a5fd4ff40054294d012707
:1034a0004ff00c16a8420ad0384603f092fd304681
:1034b00003f097fd013cf5d16ff0040020e0b8f176
:1034c000020f1fd0b8f1030f28d0b8f1040f30d08d
:1034d0001d4941f28c0003f08cfd002400f0c8fc73
:1034e000c0f30b00b0f5687f2cbf44f0020020460b
:1034f00003f094f815494ff00c1003f07afd00200a
:10350000bde8f0811249134803f073fd4ff48011b8
:1035100041f28c0003f06dfd0024dfe70c490d48fb
:1035200003f067fd002141f28c0003f062fd0024ee
:10353000d4e7054941f28c0003f05bfd8024cde720
:10354000bc0702009ed0ad1076133013612f52efee
:083550007dd51c3cac07020014
:020000040000fa
:020000040100f9
:1035580000286fd070b5044690f80a38052b6cd84f
:10356800dfe803f003161e4b6b5fd0f8100803f07a
:1035780034fd030e2372030c6372030aa372e07214
:10358800042104f1080000f021fa0346184670bd32
:10359800d0f81418d0f8100803f027fd0123f5e738
:1035a800b0f80c28b2f5006f13d300f108064ff4f9
:1035b80000652a463146d4f8100802f07df9002843
:1035c8003dd12946304600f001fa03460028f0d1e3
:1035d800dce70ab90123d9e700f108052946d0f844
:1035e800100802f069f908b10023cfe7b4f80c1805
:1035f800284600f0ebf90346c8e700f10805b0f8e3
:103608000c282946d0f8100802f082f900280cbfcf
:10361800ac235a2323720121284600f0d7f9034628
:10362800b4e7d0f8140801f053fed4f814386360f6
:103638000123abe70023184670470123a6e70023c0
:02364800a4e7f5
:020000040000fa
:020000040100f9
:02364a007047c7
:020000040000fa
:020000040100f9
:10364c000378002b6dd090f91030022b69d170b536
:10365c000446056aab69c3f3072232495c2000fbc0
:10366c000212dbb203eb8303d66806ebc30696f9b2
:10367c001c00b0f1ff3f0cd0737fe3b900f00f03d7
:10368c00000900f58800223001219940000203f066
:10369c0067f9726aab699a4219d0236a2bb11a6a1c
:1036ac00226200225a751a621a70256a15b16b7d56
:1036bc00012b29d070bd00f00f03000900f5880024
:1036cc00223001219940000203f0bcfce1e7012308
:1036dc002b75e969236a2bb11a6a226200225a758a
:1036ec001a621a707368002bdfd094f826300133fd
:1036fc0084f826307368b2680120984794f8263015
:10370c00013b84f82630d0e7284600f089ff0223dd
:10371c006b7563695c682b696a68e968a868a0477f
:08372c00c8e7704760af002000
:020000040000fa
:020000040100f9
:103734008b2871f100032de9f3471646dff8d48096
:1037440018daa0f1440300f003029b1072b9013ba4
:103754000eb1012232602d4c46385c4308fb004414
:10376400e5172046294602b0bde8f087002ef2d0c6
:103774000022efe70ab9019201aeb0f1640941f108
:10378400ff3aa0f164074ff4c8734ff4c87297fb73
:10379400f3f748460023514600f00efec2b9012358
:1037a4003360114618235a43612303fb0727326809
:1037b400164bbf1a0f44a9fb080108fb0a11c3fbef
:1037c4000701134bc4184ff0000341eb0305c8e78e
:1037d400c72a0cddb2f5967fa7bfa2f59672032324
:1037e400c83a02234ab9326011461a46dae7632a14
:1037f40002dd643a0123f5e7002312f0030f4fead8
:1038040092010cbf012200223260eee780510100d8
:0838140000956e388033e101dc
:020000040000fa
:020000040100f9
:10381c0030b583b0054600f025fbc0f30b00b0f5c6
:10382c00687f03d20024204603b030bd01a941f2c9
:10383c00104003f0d4fb04460028f4d1019921f088
:10384c00ee6121f4ee2101911db341f0887141f438
:10385c008831019141f2104003f0c5fb00211e4854
:10386c0003f0c1fbab211d4803f0bdfb01211c483b
:10387c0003f0b9fb00211b4803f0b5fb81211a486a
:10388c0003f0b1fb194d284603f0a5fb0128fad132
:10389c00c9e70021104803f0a6fbb9210f4803f03b
:1038ac00a2fb01210e4803f09efb00210d4803f002
:1038bc009afb81210c4803f096fb0c4d284603f033
:1038cc008afb0128fad1019941f48031019141f22e
:1038dc00104003f088fba6e7080201000c0201006f
:1038ec00140201001c020100040201001802010074
:020000040000fa
:020000040100f9
:1038fc0030b4c368db689a6ad869196a8160d86980
:10390c00486003f118005168814204bf196a516084
:10391c0000219962116801391160254a1268002a48
:10392c0039d15a699868d968816098684860181dbf
:10393c005168814204bfd9685160002159611168f6
:10394c0001391160da6a1b4c256801219140294329
:10395c002160194902eb820201eb820252689a60e3
:10396c009468dc6060609060dc6aa20010198000d2
:10397c000d185d61085801302244920088500f4a9e
:10398c001168da6acb6a9a4283bf01200c4b18602b
:10399c00002030bc70470b4a5168d9618c681c629e
:1039ac00606088609a62116801311160e7e700bfbe
:1039bc007cb2002084b20020fcae002068b2002053
:0839cc00a0b2002060b1002050
:020000040000fa
:020000040100f9
:1039d400002859d02de9f041054611b90020bde871
:1039e400f0810c464ff6ff71284803f077f8012860
:1039f40001d00120f3e702f093ff2044b0f5007feb
:103a04002cd8234b1e683719b7f5007f2bd9c6f580
:103a14000078204f42462946b81903f0aff9a6f5bd
:103a240000762644324605eb0801384603f0a6f931
:103a3400174b1e600c2002f093fa174b19682144af
:103a4400196018b1154b4ff480521a6003f09cfab8
:103a540090b10e4803f034f90120c0e70b4803f09d
:103a64002ff90020bbe7224629460a48304403f0d8
:103a740085f9074b1f60dde7094b1b6801210548e9
:103a8400184401f0effbe4e70020704754b2002033
:103a940048b200201caa00204cb2002000e100e043
:043aa40050b20020fc
:020000040000fa
:020000040100f9
:103aa8002de9f843814602f0abf860b10546078876
:103ab8005c2202fb07f4294e26444ff6ff7130467c
:103ac80003f00af808b9bde8f883254b03eb0408ae
:103ad800404601f030f90028f5d0214ad8f84030a6
:103ae8004b4505d01f4a224400244ff0010c10e03a
:103af800002188f84410c8f848104ff0ff31c8f882
:103b0800401004f15800104403f0d8f8eae703f134
:103b18002002136873b19869696a8842f7d1597da0
:103b28000129f4d1196a11605c7583f814c01c620c
:103b38001c70eee7404601f059fb094b5c2202fb82
:103b480007377b68013b7b6000237b704ff0ff32b7
:103b58006a62eb70304603f0b1f8b4e7b0af00200a
:083b680060af002080af0020d7
:020000040000fa
:020000040100f9
:103b700030b585b00023039301930293002843d00e
:103b800004462822194603f0b1f903a9284803f096
:103b90002cfa0346002838d10398002838d0082290
:103ba00001a940f4403001f08bfe034668bbbdf82c
:103bb0000800039078b32822214640f4403001f0f9
:103bc0007ffe034608bb2279a17901f00f0141ea8b
:103bd000022160790001c0b2e579627a02f00f0239
:103be00042ea0522247a2401e4b22243014315d09b
:103bf000bab141f27630824216d841f27532914222
:103c000098bf6ff00c0300e00023184605b030bdec
:103c10006ff00b03f9e76ff00b03f6e76ff00b03a0
:103c2000f3e76ff00b03f0e76ff00c03ede700bf75
:043c300008000c007c
:020000040000fa
:020000040100f9
:103c3400002856d070b50446c26a2b490968c96a7f
:103c44008a4245d28169002905db27490968c96a86
:103c5400c1f10501816102eb8202244901eb820278
:103c64006169914205d0204a1268d26ae262012059
:103c740036e0251d284602f0affe38b91c490b6812
:103c8400e06a0122824023ea02030b60164b1b68a0
:103c9400db6ae36216490e68012000fa03f232433c
:103ca4000a60124a03eb830302eb83035b68a3609d
:103cb4009968e1604d609d60e56aab00591989001f
:103cc40056186661515801442b449b00d15007e0bb
:103cd400054a1268406cd36a98422cbf0020012028
:103ce40070bd0020704700bf68b20020fcae002009
:043cf40084b2002076
:020000040000fa
:020000040100f9
:103cf800f8b52d494c6ad1e90623561c43f1000753
:103d0800c1e90667002c4dd091f82030013381f8c5
:103d18002030a36823b1a368013ba3604c6afcb1bf
:103d2800a368ebb9012500271f4e0ae0e06902f0fd
:103d3800e5fae3680bb120699847746a84b1a3680f
:103d480073b925756575a37813b9e368002bedd1b0
:103d5800204601f005ffa378002bead16770e8e759
:103d6800124d00242e46274603e001342035052c49
:103d780012d006eb44135b7d002bf6d006eb441300
:103d88005f75ab78012bf0d16b6806eb441293603a
:103d9800284600f04dffe8e7034a92f82030013b3f
:103da80082f82030f8bd00bf70b00020ccad0020f4
:020000040000fa
:020000040100f9
:103db800002845d1274b1b78002b44d170b50c4601
:103dc800254802f06fff012802d04ff0ff3070bd88
:103dd800224802f067ff012802d04ff0ff30f6e7d3
:103de8001f4802f05fff012830d11a4e01223270bd
:103df80023687361e169b161a169f16100253562e8
:103e08006168f160a168b1607560b2844ff0ff32fb
:103e1800b26286f826507570e268f26222693263ef
:103e280062697263226af26386f84450b564f56485
:103e3800db6831460b489847022333742846c6e7a7
:103e48004ff0ff3070474ff0ff3070474ff0ff30b2
:103e5800bde700bf60af0020b0af0020b4af0020c6
:083e6800b8af00204d36000147
:020000040000fa
:020000040100f9
:103e700010b582b0254b1c6824b1244b1c68204629
:103e800002b010bd19464ff4805003f0aef818b1df
:103e90001e4b00221a60f2e701a941f2f43003f050
:103ea000a4f890b9194b1b68194a934211d0194aca
:103eb000934215d0184a93421cd0144a136823f435
:103ec000702343f4a0231360d7e7104b00221a603d
:103ed000d5e7019b012bf0d00c4b01321a60ece7c7
:103ee000019b032be9d0042b084b0cbf01320b4a7a
:103ef0001a60e2e705494ff46c1003f076f80028e9
:103f0000dbd0024b00221a60b9e700bf08b20020e4
:103f1000a0021000b0021000f0001000b202100069
:020000040000fa
:020000040100f9
:103f20002de9f04f85b081460d464ff6ff712748c9
:103f300002f0d6fd012812d1b9f1ff0f95bfc424bc
:103f4000ca24012600264ff00a0b04274ff0000a6e
:103f50000fe01e4802f0b6fe6ff0050831e06ff08a
:103f600005082ee002f0e0fb0bf1ff3313f0ff0b2e
:103f7000efd000963b46524649462046fef7f2fcfb
:103f80000028efd1204600f099fe0028ead1324601
:103f9000394603a800f074f880460028e2d19df865
:103fa0000d209df80e301b0443ea02239df80c20df
:103fb00013439df80f2043ea02632b60034802f08d
:103fc00081fe404605b0bde8f08f00bf0cb2002076
:020000040000fa
:020000040100f9
:103fd00070b504460e46234b1d68234b1868043009
:103fe00002f0fcfc48b9204b1a6820490b68d06ae3
:103ff0000122824023ea02030b60b4f1ff3f0dd09f
:104000002c44194b1b685c60a5421dd9184b1868dd
:10401000154b1968043102f06dfa70bd002eefd017
:10402000144a5168104b1868816018688c68c46025
:104030001868043060601868043088601b685a6132
:10404000136801331360e8e70b4b1868064b1968d7
:10405000043102f04ffa094b1b68a34284bf074b9f
:104060001c60dae79cb2002068b2002084b2002015
:1040700070b2002074b100206cb200208cb200201d
:020000040000fa
:020000040100f9
:104080002de9f04f83b08146884693460027dff83c
:1040900098a016e0002c40dd314609eb070001f046
:1040a00093fc00283cd09af800305bea030326d04a
:1040b00037443fb2a8eb06081ffa88f8b8f1000fa2
:1040c00026d04646b8f5005f28bf4ff400560a24b4
:1040d000012529460df1030001f076fcd0b19df8d1
:1040e000033003f0f003f02bd4d0013c24b2b4f140
:1040f000ff3feed14ff0ff3003b0bde8f08f02215b
:1041000001a801f061fc0028d2d14ff0ff30f3e7a5
:104110000020f1e74ff0ff30eee74ff0ff30ebe724
:0c4120004ff0ff30e8e700bfbdb2002008
:020000040000fa
:020000040100f9
:10412c00244b1b681bb1244b01221a60704710b53d
:10413c00214b00221a60214b1b681b6b1a68b2f1d1
:10414c00a53f03d15a68b2f1a53f23d01b4b186889
:10415c001968343102f07afe194b1b68b3fa83f3f9
:10416c00dbb2c3f11f03174a9900c81802eb800099
:10417c00446864684460194402460832944212d080
:10418c0003eb83030f4a02eb83035b68da680b4b88
:10419c001a6010bd9a68b2f1a53fd7d1db68b3f1b4
:1041ac00a53fd3d1d8e760680a46064901eb8202e5
:1041bc005060e5e77cb20020a0b2002068b200207d
:0841cc0084b20020fcae0020cb
:020000040000fa
:020000040100f9
:1041d400ff2837d0002938d0f8b51f4616460d46bb
:1041e400044602f0bffe012833d1204b1b6813b1f3
:1041f4001f4b1b6833b91e4a1c49412000f05efa6c
:104204000146e8b90422194b1968284600f030fb2e
:104214000146a8b92b78a34212d1154b1b68b342af
:104224001ad9bb421bd3f21993421bd90f4b1968fd
:1042340001f580513a463144284600f019fb014605
:104244000846f8bd6ff00e0101e06ff00e0108465c
:1042540070476ff00b01f3e76ff00b01f0e76ff0bd
:104264000b01ede76ff00b01eae700bf04b2002099
:0442740000b2002074
:020000040000fa
:020000040100f9
:10427800264b002908bf1946254a136823f0020374
:104288001360d369002bfcd1002833d00368b3eb4b
:10429800510f31d830b4002b2ad05b00b1fbf3f1b9
:1042a8000139ff2928bfff21194b1a6822f0405213
:1042b8001a601c68826845682a4322431a60c9b29a
:1042c80019735a6822f007025a605a68c1680a438b
:1042d8005a601a46d369002bfcd101200c4a136896
:1042e80043f002031360d369002bfcd130bc704744
:1042f8001f21d9e7002000e00020054a136843f099
:1043080002031360d369002bfcd170470090d003df
:044318000010004051
:020000040000fa
:020000040100f9
:10431c0070b582b005460e460023019311461d4828
:10432c0002f061fe0446310a01f47f41330203f4ca
:10433c007f03194341ea066141f00b01164802f074
:10434c0052fe0444e4b2a521144802f04cfe04448d
:10435c00e4b21f21124802f046fe0444e4b229469e
:10436c00104802f040fe0444e4b285210e4802f0ed
:10437c003afe044464b20d4d01a9284602f02ffe0a
:10438c00044464b214b9019b012bf5d1204602b050
:10439c0070bd00bf080201000c02010010020100f8
:1043ac00140201001c0201000402010018020100a9
:020000040000fa
:020000040100f9
:1043bc007bb972b90029bebf00204ff0004106e066
:1043cc0008bf00281cbf6ff000414ff0ff3002f017
:1043dc003dbeadf1080c6de904ce002909db002bc4
:1043ec001adbfcf7cffdddf804e0dde9022304b0b5
:1043fc007047404261eb4101002b1bdbfcf7c2fd17
:10440c00ddf804e0dde9022304b0404261eb410138
:10441c00524263eb43037047524263eb4303fcf796
:10442c00b1fdddf804e0dde9022304b0404261ebac
:10443c0041017047524263eb4303fcf7a3fdddf8e7
:10444c0004e0dde9022304b0524263eb43037047fe
:020000040000fa
:020000040100f9
:10445c002de9f04f85b081468a46164600238df82b
:10446c000c308df80d304ff6ff711f4802f032fb07
:10447c00012836d1012e30d0d0460a240025c82779
:10448c00009533462a4649463846fef765fa50b938
:10449c00384600f00dfc30b92a4631464046fff74d
:1044ac00e9fd834670b102f039f9631e13f0ff0485
:1044bc00e6d10d4802f000fc6ff0050b584605b034
:1044cc00bde8f08f084802f0f7fb03ab9845f5d137
:1044dc009df80c308af80030f0e70df10c0802263c
:0c44ec00cbe76ff0050be9e70cb20020f5
:020000040000fa
:020000040100f9
:1044f800002846d038b50446426c914238bf114670
:10450800c26a8a4202d0806c012800d038bde162bc
:10451800a0690028a4bfc1f10501a16102eb8202d4
:10452800184901eb820261699142efd1251d2846a5
:1045380002f050fa38b914490b68e06a0122824047
:1045480023ea02030b60e36a0f49086801229a40d4
:1045580002430a600b4a03eb830302eb83035b68a5
:10456800a3609968e1604d609d60e06a8300191856
:104578008900551865615158013103449b00d15099
:0c458800c4e77047fcae002084b20020a5
:020000040000fa
:020000040100f9
:1045940010b58cb001238df80730002832d00168a3
:1045a4001a4a116081681a4a1160c168194a116077
:1045b400018a194a1180837c13b104238df80730d2
:1045c400164b00221a700df1070001f067fb044638
:1045d40010b120460cb010bd114b02221a7001f02c
:1045e400e5fe044628b100200d4b187002f02bf8ac
:1045f400efe70c49012001f00ffa02a8fff7b6fa21
:104604000446e6e76ff00b04e3e700bf18b20020ae
:1046140014b2002010b20020b6b20020c0b20020b4
:08462400bfb200205d0c000193
:020000040000fa
:020000040100f9
:10462c0070b505468169224cc1f307205c2202fb60
:10463c000040cbb203eb8303db00c0681e181b5a8f
:10464c0002fb0342926a914221d0194c5c2202fb7c
:10465c00034463691b68002106f10c009847ab69a1
:10466c00a362002386f8203096f91c00b0f1ff3fbe
:10467c000cd0737f83b900f00f03000900f588009c
:10468c00223001219940000202f0dcfc70bd96f84a
:10469c002020002ae8d0d8e700f00f03000900f52d
:1046ac008800223001219940000202f059f9ede70f
:0446bc0060af0020cb
:020000040000fa
:020000040100f9
:1046c00000293dd02de9f04383b00e46002a3bd0af
:1046d00014460546042241f24801684600f0caf833
:1046e000024628bb9df80030202b30d803b3013b95
:1046f000dbb241f2540808ebc30841f24c074ff01b
:1047000008094a463946684600f0b4f8024678b9c6
:104710009df801109df8003043ea0123ab420bd114
:104720009df802301b0333609df803301b032360a8
:10473000104603b0bde8f08308374745e1d1f7e7fd
:104740006ff00e02104670476ff00e02f0e76ff048
:044750000b02ede784
:020000040000fa
:020000040100f9
:1047540010b582b000230093204a137069464ef6c8
:104764002400fff7dbfb30bb1c4b1b786bb90099b3
:1047740021f07c0141f0500100914ef6240000f03c
:104784001dfb28bb154b01221a7001a94ff4805060
:10479400fff7c4fb0446f0b94ef6240002f036fbe2
:1047a40020f0700141f050014ef6240000f006fba9
:1047b400204602b010bd094b01221a7069464ef61c
:1047c4002400fff7abfb0028ced06ff00504efe721
:1047d4006ff00504ece76ff00504e9e7bdb20020d3
:020000040000fa
:020000040100f9
:1047e40000283ed038b50446c36b002b3bd0006c88
:1047f400a0fb03230bb1002036e00d4602f040f984
:104804002268216ce36b03fb01f3d018a060002045
:10481400a06362605b1a1344e360ff2384f84430ae
:1048240084f84530a5b923691bb902f0dbfa0120ed
:104834001ae004f11000fff75ff80028f5d00b4be5
:104844004ff080521a60bff34f8fbff36f8fece7c6
:1048540004f1100002f087fa04f1240002f083fa54
:10486400e3e700207047002038bd00bf04ed00e0fe
:020000040000fa
:020000040100f9
:104874002de9f04105469046b2f5004f2ed9a2f538
:104884000047013f27f4ff4727f07f0701f5004366
:104894001f440c464ff40046a1f5004188440fe044
:1048a400324629464ff4502001f008f8034680b9f7
:1048b400a8eb040204f5004405f50045bc420bd006
:1048c400324621464ff45020fff726fd03460028c8
:1048d400e6d01846bde8f0819046394642464ff48a
:1048e4005020fff719fd03460028f2d1424629461d
:0c48f4004ff4502000f0e2ff0346eae71a
:020000040000fa
:020000040100f9
:104900002de9f04106460d4601f0faff044640b39a
:10491000a84228bf2c46194b1d682f19b7f5007ff8
:1049200022d9c5f50077dff860803a4608eb05012b
:10493000304602f025faa5f5007525442a46414681
:10494000f01902f01dfa0d4b1d600c2001f00afb5e
:104950000b4a13681b1b136018b10a4b4ff48052ab
:104960001a602046bde8f0812246074929443046b6
:1049700002f006fa014b1f60e7e700bf44b20020d7
:0c49800040b2002000e100e01ca8002074
:020000040000fa
:020000040100f9
:10498c0000283bd070b50446826c013a8264c06a40
:10499c00616c884234d00ab1002070bd251d2846b8
:1049ac0002f016f838b917490b68e06a0122824008
:1049bc0023ea02030b60636ce362c3f10502a2619c
:1049cc0010490e68012000fa03f232430a600e4ac5
:1049dc0003eb830302eb83035b68a3609968e160dc
:1049ec004d609d60e56aab005919890056186661e7
:1049fc00515801442b449b00d150cee70020704706
:0c4a0c000020cae784b20020fcae0020ad
:020000040000fa
:020000040100f9
:104a180008b5194b9847194b9847eff3108172b6b0
:104a2800174ad2f8883043f47003c2f88830bff3cd
:104a38004f8fbff36f8f01b962b6124a936823f0a4
:104a4800010393601346da6812f0010ffbd10d4b96
:104a580024225a6001229a6000f062f80a4b23f07f
:104a68007f03074a9360094b9847094b9847094bbe
:104a7800984702f055fafee7374c0001374c000121
:104a880000ed00e00020004100000000b5570001e3
:084a9800374c0001374c00010e
:020000040000fa
:020000040100f9
:104aa00038b5044610f0070f05d020f0070308338f
:104ab000834225d91c4602f011fa184b1b686bb1d2
:104ac00024b3174b1b681c4449f6f77294420bd869
:104ad000a3420cd3fdf7e0f91ae000240f4a114b72
:104ae00023f007031360ebe7fdf7d6f910e00b4a5c
:104af00015681d440a4b1c60fdf7cef95db907e04f
:104b000002f0ecf9054b1b68002be6d0fdf7c4f969
:104b100002f0abf90025284638bd00bf60b2002086
:084b200064b200200700002030
:020000040000fa
:020000040100f9
:104b28001e4b1f4a9342f0b438bf002103d203f84a
:104b3800011b9342fbd11b4ad2e9000150ea010351
:104b48004ff0000610d09468034602f10c076cb9c8
:104b580021b1014403f8016b9942fbd13a46d2e9ed
:104b6800000150ea0103eed1f0bc704759b101f1e0
:104b78000c030c38801a1a443b461c1813f8015bc6
:104b880025709342f9d111f0030318bf012303ebf9
:104b9800910107eb81073a46e1e700bf00000020da
:084ba8000000002028000001bc
:020000040000fa
:020000040100f9
:104bb000f0b583b000230193009301a90b2002f00c
:104bc00014fa044640bb019911f0010f06d141f0df
:104bd00001010b2002f00dfa0446e8b901a90120f9
:104be00002f003fa0446b8b9019911f0020f16d089
:104bf00005250f2602276946304602f0f6f90446dd
:104c000050b9009b13f0040f12d1384602f0e1f9bd
:104c1000013df0d16ff00304204603b0f0bd41f038
:104c20000201012002f0e5f904460028e0d0f3e794
:064c300002f0d3f9f0e7e9
:020000040000fa
:020000040100f9
:024c36007047c5
:020000040000fa
:020000040100f9
:104c380000283cd02de9f04186461d4b5a6ad0f831
:104c48000880c2b1936844460025984518d30020cf
:104c580000219368c01841f100019369abb1d3f802
:104c680008c010eb0c0641f10007bd4208bfb44272
:104c78000bd31a46ede7c0f808800d4b586214e0d4
:104c88000b4b58628261002003e0cef81830c2f85e
:104c980018e0a8eb0000cef80800def8183023b1c1
:104ca800def808109a68521a9a60bde8f0817047d9
:044cb80070b00020b8
:020000040000fa
:020000040100f9
:104cbc0070b582b00546cf2811d00a2401263146a2
:104ccc000df1070000f07afe50b39df80730ab42af
:104cdc000fd0013c64b2b4f1ff3ff0d11de00121d3
:104cec000df1070000f06afe0028e6d14ff0ff340a
:104cfc0013e0002c17db0a24012529460df10700cf
:104d0c0000f05cfe90b19df8073023b1013c64b219
:104d1c00b4f1ff3ff1d1e41764b2204602b070bd8c
:104d2c004ff0ff34f9e74ff0ff34f6e74ff0ff3464
:024d3c00f3e79b
:020000040000fa
:020000040100f9
:104d3e0070b590f8263013b10125284670bd044693
:104d4e004ff6ff71543001f0c4fe08b90025f4e7a8
:104d5e00e66b357835b196f9040001f0fcf884f86d
:104d6e003b00eae702f046f905467068b0f1ff3ff6
:104d7e000cd1b068b0f1ff3f0ed1f068b0f1ff3f3b
:104d8e0010d1284602f03af90125d6e740b201f0db
:104d9e00e2f884f83800ece740b201f0dcf884f871
:104dae003900eae740b201f0d6f884f83a00e8e7b5
:020000040000fa
:020000040100f9
:024dbe00fee70e
:020000040000fa
:020000040100f9
:104dc0002de9f04782b0054688464ff6ff711b4833
:104dd00001f086fe01282dd1302d95bfc326c926ae
:104de000012700270a244ff0040909e03046fff7a5
:104df00065ff90b101f098fc631e13f0ff0410d022
:104e000000974b46424629463046fdf7abfd8246a9
:104e10000028efd1b5f5a05fe8d1084801f052ffb6
:104e200004e0064801f04eff6ff0050a504602b05c
:104e3000bde8f0876ff0050af8e700bf0cb200206c
:020000040000fa
:020000040100f9
:104e400070b5054601f01efe95f8454064b2002c91
:104e500011dd6b6a7bb105f1240606e002f0a8f8cb
:104e6000013c64b23cb16b6a2bb13046fef746fda3
:104e70000028f5d0f2e7ff2385f8453001f0b4ffb4
:104e800001f000fe95f8444064b2002c11dd2b695e
:104e90007bb105f1100606e002f08af8013c64b22d
:104ea0003cb12b692bb13046fef728fd0028f5d028
:0e4eb000f2e7ff2385f8443001f096ff70bd55
:020000040000fa
:020000040100f9
:024ebe00fee70d
:020000040000fa
:020000040100f9
:104ec00059b338b50d4658bb174801f0effe01281d
:104ed00002d04ff0ff3025e02b68144c63604ff494
:104ee0007a72e26095f90420227200200021c4e960
:104ef00006010025656284f820501b6829460c488d
:104f0000984763685b689847a0222946094801f0e2
:104f1000edff02232370204604e04ff0ff3070477e
:104f20004ff0ff3038bd00bf98b0002070b00020b7
:084f3000f93c0001ccad0020aa
:020000040000fa
:020000040100f9
:104f380070b504461646856b026c5ab903681bb1f6
:104f480000200135a56370bd8068fff71bfd0023b5
:104f5800a360f6e76eb9406801f00eff6368226c43
:104f680013446360a268934219d323686360304690
:104f7800e7e7c06801f000ff226c5242e36813447f
:104f8800e36021688b4202d2a3681a44e260022ed1
:104f980001d00020d5e725b1013d0020d1e73046fa
:064fa800cfe70020cde779
:020000040000fa
:020000040100f9
:024fae00fee71c
:020000040000fa
:020000040100f9
:104fb00030b583b041f28c030193184b0093023853
:104fc000c0b2012811d94ff4005400200225009be3
:104fd000834214d0284601f0fcff019802f001f84a
:104fe000013cf4d16ff004000ee00d4b0193a3f1ee
:104ff0002253a3f51113a3f2e9530093e3e7009ab8
:10500000064b9a4202d0002003b030bd002141f28d
:105010008c0001f0eeff0020f6e700bf36265302b9
:04502000ac070200d7
:020000040000fa
:020000040100f9
:1050240070b51c4608b30346f9b1f2b1184880685c
:10503400824223d816484068984222d8d518144e84
:105044007068b668304485421ed8184600f036fcb5
:10505400034668b90e494a6889680a44954200d0f3
:1050640034b101f06bf9034602e01cb96ff00b0395
:10507400184670bd01f062f90346f9e76ff00b03bf
:10508400f6e76ff00b03f3e76ff00b03f0e700bff5
:04509400ccb000207c
:020000040000fa
:020000040100f9
:105098002de9f0411a4c646844b315460e46804623
:1050a80004f1d0074ff6ff71384601f006fd0128dc
:1050b8001cd1b8f1000f1bd184f8d460c4f8ec50af
:1050c8000023c4f8e430c4f8e830c4f8f030c4f879
:1050d800f430384601f0dafd094b5b68d3f8f84044
:1050e80024b14346012239460548a047bde8f0816e
:1050f800ff2384f8d4300023c4f8ec30e0e700bf85
:045108009cb1002036
:020000040000fa
:020000040100f9
:10510c0010b5124b186000249c6002225a60dc60bf
:10511c0021461846fdf77efb21460d4801f036ff6f
:10512c0021460c4801f038ff0b4b1c600b4b1c60ec
:10513c000b4b1c600b4b1c600b4b1c600b4b1c601b
:10514c0001210b4800f08aff10bd00bfacb100205c
:10515c00215f00015162000148b2002050b20020d2
:10516c004cb200203cb2002044b2002040b20020df
:04517c001ca800204b
:020000040000fa
:020000040100f9
:10518000f7b50646406937690b2f4feae0710cd935
:105190000c2297fbf2f302fb1377002fbcbf03f145
:1051a000ff33bf18c01841ebe37101aafef7c2fa42
:1051b00004460d463846019901f012fd221845ebd0
:1051c000e0731946f3681046094a013bc2fb03012c
:1051d000b2684ff46163c3fb020172683c23c3fbf6
:1051e00002013368c01841ebe37103b0f0bd00bfaa
:0451f00080510100e9
:020000040000fa
:020000040100f9
:1051f40090f8263003b1704770b50446c56b2b7820
:1052040053b190f83b1095f9040001f019fc04f136
:10521400540001f055fd70bd01f0f1fe06466868ca
:10522400b0f1ff3f0bd1a868b0f1ff3f0dd1e868a2
:10523400b0f1ff3f0fd1304601f0e5fee7e794f807
:10524400381040b201f0fcfbede794f8391040b29d
:1052540001f0f6fbebe794f83a1040b201f0f0fbf2
:02526400e9e778
:020000040000fa
:020000040100f9
:02526600fee761
:020000040000fa
:020000040100f9
:1052680068b310b40446184b1b7d53bb164b18602b
:10527800596001221a75154b1b7e13f0010f1ad0c5
:10528800d9b100231148426802f00702012a14bf6d
:10529800e25c34f8132082620133027e12f0010fbf
:1052a80001d09942efd8084a93600120074b9875be
:1052b8005df8044b70470023f5e70b46f3e7002041
:1052c80070470020f4e700bf3cb00020000c00400d
:020000040000fa
:020000040100f9
:1052d800f8b5154b1b6883420cd004464ff6ff7196
:1052e800124801f0f9fb012805d000f0bdfb20466b
:1052f800fff708fff8bd0e4d0e4f0f4e01f042feae
:105308000028fbd12b682bb1306801213844fff706
:10531800a7fff3e7094a137e13f0020ffbd00348f7
:1053280001f0ccfce1e700bfacb1002054b2002092
:105338004cb200201caa002050b20020000c0040f3
:020000040000fa
:020000040100f9
:1053480080b5164c164f174edff860802368bbb146
:1053580001f094fbfb68dd68281d01f03bfb336816
:10536800013b33602368013b236001f039fd286b62
:1053780001f053fb284601f050fb2368002be7d1ce
:10538800094b1b68012be1d94ff08053c8f8003056
:10539800bff34f8fbff36f8fd8e700bf78b20020fd
:1053a80088b1002074b20020fcae002004ed00e0bb
:020000040000fa
:020000040100f9
:1053b800184bda6822f4e0621204120c42f0bf6261
:1053c80042f40032da60bff35f8f62b6e02183f8ff
:1053d8002310114a82f800130120106082f801138b
:1053e8000220106082f80c134ff48050106082f88d
:1053f8000d134ff4005111605a6a42f480225a6228
:105408005a6942f010025a615a6a42f400325a62ea
:0c541800704700bf00ed00e000e100e084
:020000040000fa
:020000040100f9
:1054240010b5fdf73bfb154a136823f49f7323f073
:10543400010343f01103136001f04efc00f0e8fe99
:1054440000f014fbfef7fff800f0bafc00f062fb7a
:105454000021084600f0c6ff094c206009490020dd
:10546400fef7a8fc606008490020fff727fda06054
:1054740001f0c2fcfff79eff10bd00bf00240144f1
:0c548400c8b1002048690001247000013c
