:020000040000fa
:10000000f0ff0120fd440001db4e00016f530001b1
:10001000175e0001876200013b66000100000000de
:10002000000000000000000000000000b1660001b8
:10003000675a000100000000e1510001596400010d
:100040002d650001c95b00013b4900013b490001ee
:100050003b4900013b4900013b4900013b4900018c
:100060003b4900013b4900013b4900013b4900017c
:100070009d230001c91c00013b4900013b490001cf
:100080003b4900013b4900013b4900013b4900015c
:100090003b4900013b4900013b4900013b4900014c
:1000a0003b4900013b4900013b4900013b4900013c
:1000b0003b4900013b4900013b4900013b4900012c
:1000c0003b4900013b4900013b4900013b4900011c
:1000d0003b4900013b4900013b4900013b4900010c
:020000040000fa
:020000040004f6
:045f8800ffff000017
:020000040000fa
:020000040004f6
:045f8c0000400e843f
:020000040000fa
:020000040004f6
:045f900038fc745f06
:020000040000fa
:020000040004f6
:045f94003844161463
:020000040000fa
:020000040004f6
:045f98000300007191
:020000040000fa
:020000040004f6
:045f9c0002000000ff
:020000040000fa
:020000040004f6
:045fbc0000000010d1
:020000040000fa
:020000040100f9
:10000000f8b500bff8bc08bc9e467047fd5c000117
:10001000f8b500bff8bc08bc9e467047d95c00012b
:020000040000fa
:020000040100f9
:08002000600f00000100000068
:020000040000fa
:020000040100f9
:100028000cb100201c0000000000000060af0020a0
:100038005800000000000000a5b2002001000000e8
:1000480000000000ccb10020040000000000000007
:10005800d0b100200400000000000000d4b100204e
:100068000400000000000000d8b1002004000000d7
:1000780000000000dcb100200400000001000000c6
:10008800ffffffffc4b100200800000000000000cf
:10009800e0b100200400000000000000e4b10020ee
:1000a8000400000000000000e8b100200400000087
:1000b80000000000ecb10020040000000000000077
:1000c800f0b100200400000000000000f4b100209e
:1000d8000400000000000000f8b100200400000047
:1000e80000000000acb20020010000000100000088
:1000f800ff000000fcb10020040000000000000028
:10010800a8b2002002000000010000000001000069
:10011800adb20020010000000000000000b2002085
:10012800040000000000000004b2002004000000e9
:100138000000000008b200200400000000000000d9
:100148000cb200200400000000000000a6b200204d
:100158000200000000000000aeb200200100000014
:1001680000000000afb20020010000000000000005
:10017800b0b20020010000000000000094b0002090
:10018800280000000000000010b200200400000059
:100198000000000014b2002004000000000000006d
:1001a80018b200200400000000000000b1b20020d6
:1001b8000100000001000000040000001cad002048
:1001c800b000000000000000b2b2002001000000f2
:1001d800000000001cb20020040000000000000025
:1001e80020b20020040000000000000024b200201b
:1001f8000400000000000000aab200200200000075
:100208000000000028b200200400000000000000e8
:100218002cb2002004000000000000001cac0020ec
:1002280000010000000000008cb100201000000058
:100238000000000008b000203000000000000000ae
:10024800acb100200c00000000000000b3b2002098
:10025800010000000000000068b000202c00000031
:100268000000000038b0002030000000000000004e
:100278009cb1002010000000000000001ca8002015
:10028800000200000000000030b20020040000005e
:100298000000000034b2002004000000000000004c
:1002a80038b2002004000000000000001caa002052
:1002b80000020000000000003cb200200400000022
:1002c8000000000040b20020040000000000000010
:1002d80044b20020040000000000000048b20020e2
:1002e8000400000000000000bcb00020280000004e
:1002f80000000000ccad0020a000000000000000bd
:10030800e4b0002028000000000000006cae0020cf
:100318009000000000000000b8b100200c000000b0
:10032800000000004cb200200400000000000000a3
:1003380050b200200400000001000000aaaaaaaae6
:1003480054b200200400000000000000000000205b
:1003580000a000000000000058b2002004000000c7
:10036800000000005cb20020040000000000000053
:1003780060b20020040000000000000064b2002009
:100388000400000000000000fcae00206400000033
:100398000000000068b20020040000000000000017
:1003a8006cb20020040000000000000070b20020c1
:1003b800040000000000000074b2002004000000e7
:1003c8000000000078b200200400000000000000d7
:1003d80028b1002014000000000000003cb10020fb
:1003e80014000000000000007cb20020040000009f
:1003f8000000000080b2002004000000000000009f
:1004080084b20020040000000000000088b2002030
:10041800040000000000000050b10020140000009b
:10042800000000008cb20020040000000000000062
:1004380064b10020140000000000000078b1002022
:10044800140000000000000090b20020040000002a
:100458000000000094b2002004000000000000002a
:10046800a4b20020010000000000000000a000204d
:100478001c0800000000000098b2002004000000e2
:1004880000000000b8af002050000000000000008d
:100498009cb200200400000000000000a0b2002070
:1004a8000400000000000000000000000000000040
:020000040000fa
:020000040100f9
:1004b800002900f0e581f0b5ebb00c46a04b5d6873
:1004c800002d00f0c18004382e2800f2bd80dfe83e
:1004d80010f08f01bb004e01bb00bb000c01bb003c
:1004e800bb00bb00bb00bb00bb00bb002f00bb00b8
:1004f8004c00bb00bb00bb00bb00bb00bb00bb008b
:10050800ff00bb00bb00bb00bb00bb00bb00bb00c7
:10051800bb00bb00bb00bb00bb00bb00bb00cc00ea
:10052800bb00a800bb00bb00a001bb00bb00e700ec
:100538002b7a002b00f0888000232b7291f9013070
:1005480083b90b78ab724bb9d5f88440002c7bd0bb
:1005580000231a4619467a48a04775e0687a06f0db
:10056800ebf871e00023ab726ee00b4653f8042ff2
:10057800c5f82d209b88a5f83130012785f8337000
:1005880005f10c06084650f80acf41688268c3682e
:10059800c5f80cc029616a61ab61d0f810c0416927
:1005a8008269c369c5f81cc029626a62ab6206f039
:1005b80059fb85f82c0094f9013085f83630a3787a
:1005c80085f83730e37885f83430ef72d5f8844011
:1005d800002c39d0697a39443346aa7ac9b25848c6
:1005e800a04728b9564b5b680022c3f884202be04b
:1005f800534b5b685c7a3c44e4b25c7206f068fb7f
:10060800844205d34e4b5b680022c3f884201be06c
:100618004b4c6368587a06f08ff863680022da72e8
:1006280012e00b78012b11d023b9eb71444a5268c0
:1006380082f85030424b5b68d3f8885025b1404867
:10064800637822780146a8476bb0f0bdeb713c4b4c
:100658005b6893f89e20002aecd1d3f8a020002aea
:10066800e8d0012283f89d20e4e7d5f88850002dd2
:10067800ead091f900301733032b09d8dfe803f0eb
:100688000a020406032306e0012304e0062302e02d
:10069800072300e005232a4800220146a847d3e79c
:1006a8006b7913b9012385f89d30e378a1780904a3
:1006b80041ea036123781943637841ea0321c5f8c5
:1006c800a010d5f8b430002bbed01d489847bbe722
:1006d800084605f0f7fb1a4b5b68d3f88c30002b03
:1006e800b2d0014616489847aee7d5f8bc30002b83
:1006f800aad0084606f0b6fa06468df82c00202245
:10070800002103a806f0a6fa3246214603a806f0ff
:10071800ebf994f862308df83830022b12d094f847
:100728006330074cd5f8bc50b3fa83f35b090eaac3
:1007380003a92046a84763680022c3f8bc2083e7c2
:100748008cb1002004f12106304606f08bfa0746ea
:100758008df83c00402200210df13d0006f07afaa8
:100768003a4631460df13d0006f0bef9d7e7084696
:1007780006f078fa074685f8710005f1510620223f
:100788000021304606f066fa3a462146304606f021
:10079800abf994f8212085f8802094f8251094f876
:1007a80024301b0443ea016394f822100b4394f8a5
:1007b800231043ea01236b67234653f8261fa967d2
:1007c8009b88a5f87c30012385f87e3085f8503069
:1007d800d5f89070002f3ff437af2a4894f92c30a1
:1007e8000193009205f1740332460146b8472be79e
:1007f80091f9001085f84810d5f89430002b3ff493
:1008080023af204c2046984763680022c3f8942001
:100818001ae7d5f89830002b3ff416af03a805f077
:10082800f6fea51c284606f01dfac2b2294603a802
:1008380005f082f9617803a805f04bfe2378012bb7
:1008480009d0022b12d00f484368d3f89830002201
:1008580011469847f8e60ea806f013fa09484368c7
:10086800d3f898300eaa03a99847ede6233420461a
:1008780006f0f8f9c2b221460ea805f0a9faede78c
:08088800704700bf8cb1002095
:020000040000fa
:020000040100f9
:10089000f0b597b0144641283cd00d46542839d0c5
:1008a00042284ed0432864d0442800f092814b283f
:1008b00000f08f81572800f087814a2800f0ab8034
:1008c000462800f0bc80482800f0e7804d2800f062
:1008d000b480452800f04181472800f066814c280b
:1008e00000f0398152282ad1012314220deb020194
:1008f000204604f097f910bbad4b1b68069a9a424c
:100900001dd1ac4b1b68d3b19df8242007990598e5
:10091000984714e00023042205a9204604f082f938
:1009200068b99df815308df80430a34b1b6833b1be
:10093000a14b1b6801aa01219df91400984717b02b
:10094000f0bd0023042205a9204604f06bf900281d
:10095000f5d19df815308df80430974b1b68002bae
:10096000edd0954b1b6801aa02219df91400984710
:10097000e5e700230c2201a9204604f053f90028e2
:10098000ddd19df90d30dab20a2a23d89df90c1079
:100990008a4a02eb0111c97ac9b202eb0312d17281
:1009a00001219172bdf80e10083989b21181844974
:1009b0000a88013292b20a800a8892b21ab90a8869
:1009c000013292b20a807e4a118889b27b4a02ebd8
:1009d0000312d1808df814300223adf81830bdf821
:1009e0000630adf81a30029b0793734b1b68002b3f
:1009f000a5d0714b1b6805aa04219df90c009847ee
:100a00009de79df816206d4b03eb00139a739df83c
:100a10001720da730ce10023442205a9204604f0d4
:100a200001f900288bd1674b1b68002b87d0654be1
:100a30001b68159905a8984781e7062700e0062757
:100a40000023102201a9204604f0ecf800287ff4ce
:100a500076af9df91060f3b20a2b3ff670af574b9b
:100a600003eb061300221a73bdf90c20bdf80e002b
:100a7000bdf80610adf81e1002990891db88bdf88c
:100a8000121099420bd0102d7ff659af012300228e
:100a90001146104604f0c6f851e70927d0e7002aae
:100aa00001ddaa420fdbadf8182000230593424b6d
:100ab0001b68002b3ff443af3f4b1b6805aa394628
:100ac000304698473be795b2adf81a5033013b4aa0
:100ad000d358002b3ff433af02eb06139b889bb235
:100ae000002b3ff42caf02eb06139b7adbb2012bf9
:100af0007ff425af02eb06139b88eb1a1bb2002b89
:100b000003dd02eb06139a8895b233012b4ad158c4
:100b100001232a46204404f085f800287ff40faf13
:100b2000264a3301d018d1580591adf81850bdf8b8
:100b30001a104d1badf81a5000218180d1501e4b68
:100b40001b68002b3ff4fbae1b4b1b6805aa394604
:100b500030469847f3e6072500e0072500230822e2
:100b600005a9204604f05ef800287ff4e8ae9df960
:100b70001400c3b20a2b3ff6e2aebdf81630adf852
:100b800004300e4b03eb0013db88bdf818209a42ab
:100b90007ff4d5ae084b1b68002b3ff4d0ae064b5c
:100ba0001b6801aa29469847c9e60825d6e700bf71
:100bb00028b200201cb2002024b200201cad00206e
:100bc000aab2002020b20020002305930693082239
:100bd00003e00023059306930422002305a9204681
:100be00004f020f800287ff4aaae9df91400c3b2e7
:100bf0000a2b3ff6a4ae8df804009df915208df860
:100c00000520104b03eb00131b899bb2002b0cbf7c
:100c100005210a21002a7ff4f4aebdf81630083b06
:100c20009bb2084a02eb001213819df818305373ef
:100c3000054b1b68002b3ff482ae034b1b6801aad7
:0c0c400098477ce61cad002024b2002088
:020000040000fa
:020000040100f9
:100c4c002de9f0419cb014462c286dd01b287cd08b
:100c5c00062800f08a800e2874d0322800f0958087
:100c6c003d2800f0a2802f2800f0af80342800f03f
:100c7c00c280112800f0d080132800f0e4800428f2
:100c8c0000f0f380652800f00281092800f0118142
:100c9c002a2800f02081272800f03081202800f03d
:100cac0040811d284ed1002304226946204603f0c2
:100cbc00b3ff002846d1bdf80280bdf80030adf876
:100ccc000630a64b1b68002b3cd0a54b1b68002b99
:100cdc0038d0a44b1b88002b34d0a24ea04d9f4f74
:100cec00bdf80630328893429abf1a46012300237e
:100cfc00adf80420296808eb040003f08dff08bb55
:100d0c00bdf80430bdf80620d21aadf806204344d5
:100d1c001ffa83f83b6801aa29681d209847bdf883
:100d2c000630002bdcd10de0002304220deb020178
:100d3c00204603f071ff28b98b4b1b6813b101a936
:100d4c002c2098471cb0bde8f0810023082201a993
:100d5c00204603f061ff0028f4d1834b1b68002b65
:100d6c00f0d001a91b209847ece70123302201a900
:100d7c00204603f051ff0028e4d17b4b1b68002b6d
:100d8c00e0d001a906209847dce70023182201a92e
:100d9c00204603f041ff0028d4d1734b1b68002b75
:100dac00d0d001a932209847cce70123002211466c
:100dbc00204603f031ff0028c4d16b4b1b68002b7d
:100dcc00c0d000213d209847bce764252a4600216d
:100ddc0001a805f03dff00232a4601a9204603f097
:100dec001bff0028aed1604b1b68002baad001a9b9
:100dfc002f209847a6e7002304220deb0201204682
:100e0c0003f00aff00289dd1574b1b68002b99d08b
:100e1c0000213420984795e70023544a137004228c
:100e2c000deb0201204603f0f7fe00288ad19df855
:100e3c0004204f4b1a704c4b1b68002b82d001a91d
:100e4c00112098477ee700232c2201a9204603f0ad
:100e5c00e3fe00287ff476af434b1b68002b3ff476
:100e6c0071af01a9132098476ce7002304221aa93b
:100e7c00204603f0d1fe00287ff464af3a4b1b6888
:100e8c00002b3ff45faf1aa9042098475ae70023c0
:100e9c0004221aa9204603f0bffe00287ff452afab
:100eac00314b1b68002b3ff44daf1aa965209847b6
:100ebc0048e70123642201a9204603f0adfe002877
:100ecc007ff440af284b1b68002b3ff43baf01a9cc
:100edc000920984736e7012304220deb0201204636
:100eec0003f09afe00287ff42daf1f4b1b68002bdc
:100efc003ff428af01a92a20984723e700230422b6
:100f0c000deb0201204603f087fe00287ff41aaf98
:100f1c00154b1b68002b3ff415af01a927209847f0
:100f2c0010e70023082201a9204603f075fe0028d3
:100f3c007ff408af0123bdf80820019904f10800e3
:100f4c0003f06afe00287ff4fdae074b1b68002bf4
:100f5c003ff4f8ae01a920209847f3e608b2002030
:100f6c0004b20020a6b200200cb20020b0b20020c7
:040f7c00aeb20020f1
:020000040000fa
:020000040100f9
:100f80002de9f04f099f154604468e461e46002b5c
:100f900040f0cc808a42b2fa82fc4cd9bcf1000ffe
:100fa0000bd0ccf1200801fa0cfe20fa08f802fa66
:100fb0000cf548ea0e0e00fa0cf44fea15491ffa38
:100fc00085f8befbf9fa210c09fb1ae30afb08fbc2
:100fd00041ea03439b452ad9eb180af1ff3004d2ba
:100fe0009b4502d9aaf102002b44a3eb0b03a4b248
:100ff000b3fbf9f209fb123302fb08f844ea03449d
:10100000a04516d92c1902f1ff3303d2a04501d90e
:10101000931e2c44a4eb080443ea004027b124fab1
:101020000cf400233c607b603146bde8f08f5046f5
:10103000dbe71346eee702b9ffdebcf1000f2ed16d
:101040008b1a01264fea154eaab2b3fbfef8210c0b
:101050000efb183308fb02f941ea0343994561d9b5
:10106000eb1808f1ff3004d2994502d9a8f102002b
:101070002b44a3eb0903a4b2b3fbfef10efb113327
:101080004a4344ea0344a2424ed92c1901f1ff33ea
:1010900003d2a24201d98b1e2c44a41abce7ccf186
:1010a000200e02fa0cf521fa0ef901fa0cf320fadf
:1010b0000efe4eea03034fea154800fa0cf4b9fba2
:1010c000f8f11ffa85fe08fb1192180c01fb0ef6d1
:1010d00040ea0242964221d9aa1801f1ff3003d218
:1010e000964201d9881e2a44921b9bb2b2fbf8f9a2
:1010f00008fb192209fb0efe43ea02439e450fd965
:10110000eb1809f1ff3604d29e4502d9a9f1020677
:101110002b44a3eb0e0346ea004693e70846e3e7b9
:101120004e46f6e74046a4e70b46b6e78b4206d9a3
:10113000002f7ed00026c7e90001304674e7b3fadd
:1011400083fcbcf1000f0fd18b4201d3824209d83e
:10115000841a61eb030e0120002f6dd0c7e9004e09
:10116000002661e76046f7e7ccf1200e03fa0cf3a6
:1011700022fa0ef521fa0ef41d4301fa0cf320fabf
:101180000ef10b434fea154a00fa0cf6b4fbfaf9dc
:101190001ffa85f80afb19401c0c09fb08f144ea08
:1011a0000044a14202fa0cf23fd92c1909f1ff3098
:1011b00004d2a14202d9a9f102002c44641a9bb2c4
:1011c000b4fbfaf90afb194409fb08f843ea0441a5
:1011d00088452cd9691809f1ff3304d2884502d912
:1011e000a9f10203294443ea0040a1eb0801a0fb56
:1011f00002894945c2464c4602d306d1464504d22f
:10120000b8eb020a69eb05040138afb1b6eb0a038b
:1012100061eb040606fa0efe23fa0cf34eea030312
:1012200026fa0cf6c7e900369ae74846c6e74b4669
:0c123000d9e73e463846f7e63e46f5e6b4
:020000040000fa
:020000040100f9
:10123c00431e13f1030f00f2e3802de9f04186b059
:10124c00044690f901300133032b00f2d680dfe81d
:10125c0003f004021db6037813b906b0bde8f081a3
:10126c004068fc3005f08ffc6068d03005f08bfcda
:10127c00636800251d71284605f0eafa04f07cff2e
:10128c0004f0e2fd05f058fd2570e6e743683bb13c
:10129c0004f068f805f08efb28b1ff236370dce7df
:1012ac00ff234370d9e7606800230a220121fc3038
:1012bc0004f0eef9012802d0ff236370cde705f0ae
:1012cc006dfb002302930393049305934d4b019301
:1012dc0001a802f097ff10b1ff236370bde704f083
:1012ec00d1fd494805f070f8484d00266e71ae717d
:1012fc00ee712e72ee72012785f838704ff00208ed
:10130c0085f839801e2385f83a3085f83b80d32345
:10131c0085f83c304ff49673eb87a5f8406085f860
:10132c004860ee6485f85060c5f88460c5f8886044
:10133c00c5f88c60c5f89060c5f89460c5f89860e5
:10134c0085f89c6085f89d6085f89e70c5f8a06056
:10135c00c5f8a460c5f8a860c5f8ac602c4bc5f8fe
:10136c00b030c5f8b460c5f8b860c5f8bc60c5f855
:10137c00c060c5f8c460c5f8c860ff2385f8d430d8
:10138c00c5f8f060234ac5f8d820234bc5f8dc30eb
:10139c00224bc5f8e030c5f8f8603146204804f01f
:1013ac00b5fc3b463a46314605f1d00004f070f9e5
:1013bc006068423005f017f984f801804de7406809
:1013cc004ff6ff71fc3005f016fa01287ff445af9b
:1013dc0094f90130022b7ff440af63681b7913f052
:1013ec00080f7ff43aaf05f0bcfc00283ff435af92
:1013fc006068fc3005f0f6fa2fe7ff2343702ce70a
:10140c00704700bfb9040001452f00011cac00203f
:10141c00c0a80a01994c00019d1f0001855b0001c9
:04142c00b15a0001b0
:020000040000fa
:020000040100f9
:101430002de9f84f80460e4699469500284603f060
:1014400063fe002800f0c2800746542003f05cfed3
:101450000446002800f0818007632a46a52138460b
:1014600005f0fcfb276b002e7dd0337884f83430f8
:1014700053b1334604f134010f3613f8012f01f84c
:10148000012f0ab1b342f8d1002384f843300a9ef9
:10149000042e28bf0426e66266644ff0000bc4f8f1
:1014a00048b004f1040a504605f089fc04f1180024
:1014b00005f085fc2461c6f10506a6616462c4f8e6
:1014c0004cb084f850b0043d3d444a46414625f0b6
:1014d000070004f0abff20600b9b03b11c6005f01c
:1014e00071f93e4a1368013313603d4b1b68002bb2
:1014f0003dd03c4b1b683bb9394b1b68da6ae36a49
:101500009a429cbf364b1c60374a13680133136004
:10151000e06a364a1168012383400b43136000ebf5
:1015200080005146324b03eb800005f0d6fa05f0ff
:1015300013fb2c4b1b68002b4cd0294b1b68da6a21
:10154000e36a9a4248d22b4b4ff080521a60bff3a5
:101550004f8fbff36f8f01203ae0384605f001f955
:101560004ff0ff3034e0002384f834308fe71c4b19
:101570001c601368012bc7d11d4d284605f0a2fa47
:1015800005f1140005f09efa05f1280005f09afa1d
:1015900005f13c0005f096fa05f1500005f092facd
:1015a000154e304605f08efa144d284605f08afa9d
:1015b000134805f087fa134805f084fa124805f03d
:1015c00081fa124b1e60124b1d609de74ff0ff30f9
:1015d000bde8f88f0120fbe70120f9e768b20020a1
:1015e0005cb200208cb2002074b2002078b20020df
:1015f000fcae002004ed00e028b100203cb100204a
:1016000050b1002078b1002064b1002060b2002009
:0416100064b20020a0
:020000040000fa
:020000040100f9
:101614002de9f04f87b006460f4693469a46bdf82b
:101624004490bdf848806e4d4ff6ff74214628461d
:1016340005f0e5f80028f9d007f07f038df81530a0
:101644008df81460109b93b109f1080343449bb2d5
:10165400adf8163040f23c6293420cd94ff0ff349f
:101664005f4805f0c3f9204607b0bde8f08f0af1e2
:1016740008039bb2ece704f015fd04460028efd103
:1016840000230393adf806300293029b1e43029697
:10169400029b43ea07270297029bbdf8162043ea00
:1016a40002430293029941f28c0005f05afb04466e
:1016b40010b105f08ff9d3e700230293029b43f0a6
:1016c40002030293029941f2780005f04afb0446b2
:1016d4000028eed100230393adf80630bdf80630a0
:1016e4009bb2b3f57a7f2bd241f2780401250fe047
:1016f400029b13f0020f1cd0bdf8063001339bb2dd
:10170400adf80630bdf806309bb2b3f57a7f17d238
:1017140002a9204605f021fb90b9bdf806309bb222
:10172400b3f5fa7fe4d3bdf80630284604f0baffd7
:10173400dee703a92b4805f010fb0446002846d138
:10174400039b002b46d0039b04930498082205a90d
:1017540003f076ff04460028abd1049b08330493be
:10176400bbf1000f0ad004985246594603f068ffb3
:10177400044600289dd1049b53440493109b7bb1e1
:10178400049aa8eb0a031344049304984a46109954
:1017940003f056ff044600288bd1049b4b4404936a
:1017a400039b9b000293029b43f002030293029962
:1017b40041f26c0005f0d5fa044600287ff479afb5
:1017c40004f060fd0446064805f010f94be70023d9
:1017d40003936ee704f056fd6ff0020440e700bf88
:0817e40010b200200004150002
:020000040000fa
:020000040100f9
:0417ec000020704722
:020000040000fa
:020000040100f9
:1017f0002de9f84f002310eb030a674b144641eb29
:10180000030b63a3d3e900235b4508bf5245c0f037
:10181000bc80624d624a451941f1ff3800232846d9
:10182000414602f00bfc5e4a82468b462846002366
:10183000414602f003fc151e07da05f5a8351af13a
:10184000ff3a05f5c0754bf1ff3b1af103004bf170
:1018500000010722002302f0f1fb0023b2f100088f
:101860005046504a5946b8bf08f1070802f0e6fb57
:101870004c4a814600235046594602f0dffb002abd
:10188000bebf02f50e3202f2b12209f1ff3948f66d
:10189000ac634548b2fbf3f3042b08bf032300fb02
:1018a0000320424940f2b55290fbf2fcbcf1190f03
:1018b00008bf4ff0180c01fb0c01920891fbf2f2eb
:1018c000042a08bf03226ff4b67000fb0211002a3d
:1018d00052d1bcf1000f51d1b3fa83f0400902ebb1
:1018e0008c024ff0640c0cfb0322b1f5997f0cf5d0
:1018f000967c4feae273ccfb0923b8bf01f13b0ea3
:10190000dff8ac90b4bf7044a1f599704ff0000cb3
:1019100019f801eb8e4533ddbcf1090f04dd01320e
:10192000acf10c0c43f10003dff888e012eb0e067b
:101930004ff0000e43eb0e07012f08bf002e24d2fc
:1019400064320cf10203013162613c222361e160e7
:101950004ff46163b5fbf3f3a360b5fbf2f3b3fba4
:10196000f2f102fb135502fb1131c4e906806160fc
:1019700025607046bde8f88f0020b0e70120aee793
:10198000a1eb0e010cf1010cc2e74ff0ff30f1e7c3
:10199000007b1dfeff84e2018042f10080a243c76c
:1019a00080510100b13a02005471ffff4bfaffff72
:0819b000386d000164000080a5
:020000040000fa
:020000040100f9
:1019b80030b585b0624d4ff6ff742146284604f0d5
:1019c8001cff0028f9d001a941f2700005f0c3f905
:1019d800044618b9019911f0010f05d1584805f0ce
:1019e80003f8204605b030bd21f00101019141f214
:1019f800700005f0b4f904460028efd1514b0122dc
:101a08009a70019dc5f38b0515b96ff00104e5e7e0
:101a18000023039303a941f2840005f09cf90446ce
:101a28000028dbd10398474b58609d60042202a927
:101a380003f0d8fd04460028d0d1bdf80a309d42f5
:101a480002d0ed1a042d75dc3d4804f0cdff9df859
:101a58000830012b18d0022b2cd0042b3ad0062b9f
:101a680048d0072b56d0052b67d1364b5b6acbb1d4
:101a7800344b5b6abdf80a100839039a083289b2f8
:101a88009df8090098470de02e4bdb6853b12d4bac
:101a9800db68bdf80a100839039a083289b29df844
:101aa80009009847274b9b78002b9ad004f0dcfa62
:101ab800044696e7234b1b69002bf3d0214b1b6987
:101ac800bdf80a100839039a083289b29df809004e
:101ad8009847e7e71b4b5b69002be3d0194b5b6921
:101ae800bdf80a100839039a083289b29df809002e
:101af8009847d7e7134b1b6a002bd3d0114b1b6aaf
:101b0800bdf80a100839039a083289b29df809000d
:101b18009847c7e70b4b9b69002bc3d0094b9b69c0
:101b2800bdf80a100839039a083289b29df80900ed
:101b38009847b7e76ff0050450e76ff0050450e7e2
:081b480010b2002094b000204f
:020000040000fa
:020000040100f9
:101b50002de9f04f83b00d9e3eb3009315460f461e
:101b6000019104464ff0ff33336003f0e5fe8046f9
:101b7000d8b1edb1e7b1b8f80090524a582303fb51
:101b8000092393f844302bb1582303fb09231b6c22
:101b9000a3420ad14ff0580b0bfb09fb494b03eb57
:101ba0000b0a504602f089fe48b903b0bde8f08f39
:101bb0000c9b002bf9d0009b002bdcd1f5e7b8f88b
:101bc00000c0404a582303fb0c239f69d8690028b2
:101bd00073d03b7800224bb13b4600220132824257
:101be0006bd024331f4619780029f7d101233b70ad
:101bf00000233b62334b582101fb0c31888c98f851
:101c000000301b0243ea0043d2b21a43fa618b8cc4
:101c100001339bb24ff6ff72934208bf012329495b
:101c2000582202fb0c1cacf82430009b7b60019b0b
:101c3000bb6001237b7500233b75bc61d8f818306d
:101c40003bb1082b16d86d00fd600c9b5b003b611f
:101c500002e0fd600c9b3b61fb693360daf82030e9
:101c600073b1184b9b44dbf8203013b31a6ae2b906
:101c70001a461de0ad00fd600c9b9b003b61ebe74d
:101c8000caf8207002237b75384602f075fa0d4bb6
:101c9000582202fb0939d9f814305c683b697a682c
:101ca000f968b868a04704e01a46136a002bfbd114
:101cb0001762504603f0d8f877e7504603f0d4f89f
:081cc00073e700bf60af0020d4
:020000040000fa
:020000040100f9
:101cc800584b9b7d002b00f0ab8010b5554a5368ec
:101cd80003f00703127e12f0040f5bd0514a906a9a
:101ce800514a5169d268914254d2002b43d14e4b8c
:101cf8005a684c1c5c6150544a4b1b7e13f0010f10
:101d080018d0484b01221a75474b9a699b689a422a
:101d180058d2454b1968501c98618a5c414b9a62ad
:101d2800414b9a699b689a4261d03f4b5a69db687c
:101d38009a4269d03b4b1b7e13f0020f14d03b4be9
:101d48001b78bbb1384b5a69db689a420fd1364bc6
:101d580000221a7733490720087534490a701b6a2c
:101d680043b1314a506a9847304b1b7813b12d4b19
:101d780002229a7510bd2c4b5a684c1c5c6122f8e3
:101d88001100284b1b7e13f0010fd3d0254b0122e5
:101d98001a7509e0234a127e12f0010fcad0214aaf
:101da80001211175002bafd01f4b9a699b689a428d
:101db80012d21d4b1968501c986131f81220194b2a
:101dc8009a62ade7184b1b6923b3164aff2191624b
:101dd800013b154a1361a3e7134b1b69d3b1114aa1
:101de8004ff6ff719162013b0f4a136198e70e4b62
:101df8001b69002b99d10d4b01221a70094b1b7ed0
:101e080013f0020f9ed1b2e7064b01229a75042205
:101e18001a758fe7044b9a699b689a4285d1eae75d
:101e2800704700bf0010004068b00020b3b2002027
:020000040000fa
:020000040100f9
:101e380030b5a3b014466a280bd06b281cd0722882
:101e48002ed074284ad0762866d078287dd023b042
:101e580030bd00230193029303930493102201a938
:101e6800204602f0dbfe0028f1d1444b1b68002b12
:101e7800edd001a89847eae70023019304220deb6f
:101e88000201204602f0cafe0028e0d13c4b1b6844
:101e9800002bdcd09df805109df804009847d6e784
:101ea8000023019302930123082201a9204602f08e
:101eb800b5fe0028cbd19df8080018b99df8092077
:101ec800304b1a70304b1b68002bc0d0019a2d493b
:101ed800097898472c4b00221a60b8e70023019331
:101ee80002930123082201a9204602f097fe002848
:101ef800add19df8080018b99df80920214b1a703a
:101f0800214b1b68002ba2d0019a1e4909789847db
:101f18001d4b00221a609ae784252a46002101a851
:101f280004f098fe01232a4601a9204602f076fe15
:101f380000288cd1154b1b68002b88d0bdf80420d5
:101f480002a99df80600984781e700230193012321
:101f580004220deb0201204602f060fe00287ff407
:101f680076af0b4b1b68002b3ff471af9df8040054
:101f78009847074b00221a6069e700bfecb10020c0
:101f8800f0b10020acb20020e4b10020e8b100209c
:041f9800e0b1002094
:020000040000fa
:020000040100f9
:101f9c002de9f04f85b0554b5c6864b10d46924607
:101fac0004f1d00750b1d4f8f84024b10346022212
:101fbc0039464e48a04705b0bde8f08f4ff6ff718b
:101fcc00384604f018fc0128f5d1d4f8f030002b79
:101fdc0000f08780d4f8e8305345c0f08280baf125
:101fec00000f1bd0d4f8f420924598bf564605d963
:101ffc0056464ff00008dff8f49032e0324629469e
:10200c00d4f8f00004f06efdd4f8f0303344c4f88a
:10201c00f030d4f8f4309b1bc4f8f430d4f8e8302a
:10202c00a3eb0a03c4f8e830d4f8e4205244c4f813
:10203c00e420002b45d0384604f0d4fc2b484368f0
:10204c00d3f8f830029300220192009213463946dd
:10205c0000f0f2ffafe7002ee0d0d4f8f420b2424b
:10206c00ccd22946d4f8f00004f03cfdd4f8f4307e
:10207c001d44f61ac4f8f080c4f8f480d9f8043082
:10208c00d3f8f830002be6d0384604f0abfcd9f886
:10209c000430d3f8f8b04346042239464846d847b2
:1020ac004ff6ff71384604f0a6fb012883d1d4f813
:1020bc00f0301bb1d4f8f430002bccd10023c4f891
:1020cc00e830384604f08efc084b5b68d3f8f840d7
:1020dc00002c3ff470af0023022239460348a0477e
:1020ec0069e7384604f07efc65e700bf8cb1002040
:020000040000fa
:020000040100f9
:1020fc002de9f04184b0044601914ff000084646aa
:10210c0045464f4f43e0013ba36323684bb1236922
:10211c005bb904f01bfd4ff00108404604b0bde86c
:10212c00f08104f0f7fba060f1e704f1100002f07d
:10213c0021fe0028edd0424b4ff080521a60bff3c5
:10214c004f8fbff36f8fe4e704f000fd4ff00008f2
:10215c00e3e702a804f08efc23e004f02dfba0685a
:10216c0001f070fe804604f0f1fc40e0204602f0e5
:10217c009ffc01f03ffa09e0204602f099fc01f0c7
:10218c0039fa204604f082fc002844d1012604f0e0
:10219c0013fba36b002bb6d1019b002bd4d0002ecc
:1021ac00d7d004f0d3fc04f04bfd04f005fb94f8fd
:1021bc0044305bb2b3f1ff3f08bf84f8445094f84d
:1021cc0045305bb2b3f1ff3f08bf84f8455004f0d3
:1021dc00bdfc01a902a803f04ff90028ccd1204680
:1021ec0004f054fc0028c1d02368002bb5d0019911
:1021fc0004f1240004f080fb204602f059fc01f0ad
:10220c00f9f90028c2d14ff080533b60bff34f8fd8
:10221c00bff36f8fbae7b8f1000f3ff47eaf04f055
:10222c00cbfa616a19b1236b1968c1f10501a06879
:10223c0002f0fefb04f08afc4ff000086de700bfd3
:04224c0004ed00e0bd
:020000040000fa
:020000040100f9
:10225000002800f0a28030b583b004460378013b2b
:10226000032b7ed8dfe803f00219797f01210df1fd
:10227000070002f0d1f9002873d09df80730122b27
:1022800007d0a52b6dd1022323700023a4f80838b2
:1022900067e05b2004f0e8fb63e0b0f8081801f1a8
:1022a0000800c1f10c01204402f0b6f9b4f8083876
:1022b000184480b2a4f808080c2852d1e21d04f199
:1022c0001305002100e0194612f8010f80ea01030e
:1022d000dbb2aa42f7d1884236d1217a84f80a18b3
:1022e000e37aa27a42ea0322a4f80c28e07ba37bdb
:1022f0001b0443ea0063207b0343607b43ea002323
:10230000c4f81038e07ca37c1b0443ea0063207c03
:102310000343607c43ea0023c4f8143803290ed039
:102320000023a4f81838ac2004f09efbb4f8183849
:1023300083b1042323700023a4f8083811e0a4f823
:102340001828b2f5006feed9012323705a2004f04b
:102350008bfb06e00323237003e000f0edff012375
:10236000237003b030bdb0f80838b0f8181803f186
:102370000800c91a204402f04ff9b4f8083818448c
:1023800080b2a4f80808b4f818388342e9d120468e
:0c23900000f0d2ff01232370e3e7704748
:020000040000fa
:020000040100f9
:10239c0038b54f4b9b7dd3b14d4a137edbb2927d4a
:1023ac0012f0800f14d14a4a137edbb2927d12f0e8
:1023bc00010f02d013f0010f50d1454a137edbb24e
:1023cc00927d12f0040f02d013f0040f18d138bd17
:1023dc0013f0800fe7d03e4b5b8b13f00703e2d07a
:1023ec003c4ce38503f062ff394b84221a750023c1
:1023fc0084f82c30636a002bd5d0a06a9847d2e7ba
:10240c00344b93f82c30002be1d0324b1a6adb6939
:10241c009a42dcd22e4b9a6a5b6803f00703012bbd
:10242c002c4b9869196a01f101041c6214bf4254c7
:10243c0020f81120274b1a6adb699a42c7d1254b29
:10244c00002283f82c20da61214a842111755b6a01
:10245c00002bbcd01f4a906a9847b8e71d4b1b7dd8
:10246c00002baad01b4b9a685c68194b1b7e13f08f
:10247c00010f19d0a24217d2164b1d6814491a46e7
:10248c004b6803f00703012b936803f10100906084
:10249c0014bfeb5c35f813308b6290680b7e13f035
:1024ac00010f01d08442ebd80a4b9a685b689a42c0
:1024bc0083d3084b00221a755a60054a0121117505
:1024cc00db68002b3ff479af024a1069984774e738
:0824dc00000c004038b00020a4
:020000040000fa
:020000040100f9
:1024e4004ff08842d2f8003113f4007ffad0002371
:1024f400454901334a6a12f0010f11d1b3f5fa5f6d
:10250400f7d1414b5b6a13f0010f0cd13e4a53687b
:1025140043f480735360536a13f0010ffbd002e05d
:10252400b3f5fa5fedd2394ab2f8ba3423f00203b4
:102534001b041b0ca2f8ba340022334901324b6a43
:1025440003f00303032b13d0b2f5fa5ff6d12e4b3d
:102554005b6a03f00303032b0dd02b4a536843f447
:1025640000735360536a03f00303032bfad102e0b0
:10257400b2f5fa5febd24ff088430022c3f8b020e3
:10258400234ac3f8b02002f12b42a2f54b12a2f663
:10259400ab42c3f8b02003f520631e4a1a624ff41d
:1025a40080721a6001229a601a46136813f0010fb0
:1025b400fbd1194b48f20902c3f8502140f2012221
:1025c4001a674ff400429a674ff0884349f20902b0
:1025d4001a6600221a67c3f88020104ac3f8c02084
:1025e4004ff07342c3f8d02047f6fc72c3f8e020e2
:1025f4004ff03332c3f8b020034b5a6842f0100254
:102604005a60074a1a6070470040014100200141a6
:10261400556699aa080101c0000a0044cf010020b0
:042624001000100191
:020000040000fa
:020000040100f9
:10262800f8b54c4b1c7d93f82c30002b40f08c8077
:102638000546e4b203f0ff02002c40f08880002831
:1026480000f083800668002e7fd0434b002908bf26
:102658001946b1eb061f3ed300270a463b46300514
:10266800310b03f06dfec0f5803000286dd03b4b78
:10267800196821f0020119601946ca69002afcd1bb
:1026880080b2364b98816b68022b4bd03348026876
:1026980022f0706222f4604242ea473242f08072cd
:1026a80002604268ab68e9680b4322f4015222f0e9
:1026b800070213436a6813434360284ad369002b0f
:1026c800fcd1264a136843f002031360d369002b38
:1026d800fcd1012439e0b1ebc60f09d30a46002327
:1026e800f004710b03f02cfec0f580300227bce724
:1026f80006eb46038b4228d80022b01942eb0203ae
:10270800801943eb0206330443ea104302041046df
:102718001e460a460023314603f012fec0f58030fb
:102728000427a2e70d4a136823f0706323f460437b
:1027380043ea473717605168ab68e868034321f0fc
:1027480047010b435360b8e700242046f8bd144600
:10275800fbe700bf38b000200090d003000c004019
:020000040000fa
:020000040100f9
:1027680070b584b09df820408df80400c3380c285b
:1027780000f28d80dfe800f05a2e8b8b48487307f3
:102788008b8b8b8b3f000b0c8df805300b0a8df86b
:1027980006308df8071005213e4b1b78002b73d1ae
:1027a8004c1e01ab1e197f203b4d13f8012b82ea0a
:1027b8004002a85cb342f8d104ab1c44420004f8c0
:1027c8000c2c01a803f04cf980f00100404240b203
:1027d80004b070bdc1f3072344b98df805308df8f6
:1027e800061000238df807300521d5e763f07f0335
:1027f8008df80530f3e7ff238df805308df80630a6
:102808008df807300521c7e70a0c8df805200a0a5c
:102818008df806208df807101a0c8df808201a0a72
:102828008df809208df80a300821b5e7c1f3072390
:1028380084b98df805308df80610130e8df8073021
:10284800130c8df80830130a8df809308df80a201a
:102858000821a1e763f07f038df80530ebe70b0c47
:102868008df805300b0a8df806308df80710130e19
:102878008df80830130c8df80930130a8df80a30da
:102888008df80b20092187e70139c9b299e74ff084
:0c289800ff309de7adb20020442e00018f
:020000040000fa
:020000040100f9
:1028a4002de9f04f89b004908b4692464ff6ff71a4
:1028b400454803f0b3ff012866d1baf1010f08bf00
:1028c4004ff0020a0a274ff00008dff80091cdf814
:1028d40014a038e0b4f5005f94bf0323022363f02f
:1028e4000f038df81b3051460df11b0003f0baf8ad
:1028f40018b329460beb060003f0b4f8e8b199f8d5
:102904000030a3b12e4436b2641ba4b2002c3fd0d5
:102914002546b4f5005f28bf4ff40055adb2002e34
:10292400d8d1b4f5005f94bf03230123d7e7022174
:1029340007a803f097f80028e4d103f0b7fd013f9e
:1029440017f0ff0716d0cdf80080059c23464246b9
:102954000499c720fff706ff0028eed1c72001f035
:1029640069ff03900028e8d1adf81c8046464ff07b
:10297400010acde7144804f051f86ff005030393fe
:10298400039809b0bde8f08f6ff005030393f7e7f0
:1029940099f80030002b0cbf02240324214607a819
:1029a40002f0a6fe0028c8d008ab234413f8053c67
:1029b400002bc2d108ab1c4414f8063cc32bbcd179
:1029c400014804f02bf8dbe700b20020adb2002090
:020000040000fa
:020000040100f9
:1029d40030b40c4600294dd000284bd04649097f1d
:1029e400002940f08680454d6d6805f00705012dee
:1029f40046d0414908604a6000254d618d610d61f2
:102a0400a84208bf2c468c60aa4218bf1d460a463d
:102a1400cd6001211177394a127e12f0040f05d0de
:102a2400364a916a117e11f0040ffad1334a518b60
:102a340041f004015183117e41f080011176a542d9
:102a440002d92a1b2c490a612c4a526812f0070f3a
:102a54002bd1294a9269a2421cd200782749886264
:102a6400013225498a61002b3bd0244b04229a75fc
:102a740001213be0002b38d0002aafd1002135e002
:102a840014b114f0010f31d1002bb2d013f0010fa7
:102a9400afd02be0184a1269002ae4d01749ff206e
:102aa4008862013a14490a61dde76408124a9460b5
:102ab4001169490811616d08d5609269944206d97b
:102ac40000880e49886201320b498a61cbe70029ec
:102ad400c9d00a4a4ff6ff7090620139064a116163
:102ae400c1e70121054b997500e00021084630bc7f
:102af40070470021fae700bf68b0002000100040d2
:020000040000fa
:020000040100f9
:102b04002de9f04784b00446884601921d464ff0f3
:102b140000094e46424f33e02a464146204602f021
:102b24000af8636a73b938b13d4b4ff080521a60aa
:102b3400bff34f8fbff36f8f04f00cf8012004b084
:102b4400bde8f08704f1240002f018f90028f3d05e
:102b5400334b4ff080521a60bff34f8fbff36f8f28
:102b6400eae703f0f7ff0020e9e702a803f086ff95
:102b740014e0204601f0a0ff00f040fd4ff00109f1
:102b840003f01efea26be36b9a42c5d3022dc3d0a1
:102b9400019b002be5d0b9f1000fe6d003f0daff7a
:102ba40004f052f803f00cfe94f844305bb2b3f135
:102bb400ff3f08bf84f8446094f845305bb2b3f13a
:102bc400ff3f08bf84f8456003f0c4ff01a902a8d1
:102bd40002f056fce8b903f0f3fdd4f838a0d4f8b9
:102be4003c9003f0b7ffca45c3d1019904f110002a
:102bf40003f086fe204601f05fff00f0fffc002892
:102c0400bcd14ff080533b60bff34f8fbff36f8f46
:102c1400b4e7204601f050ff00f0f0fc00208ee7fe
:042c240004ed00e0db
:020000040000fa
:020000040100f9
:102c28002de9f047384b1b68002b67d1374b1f68dd
:102c380001371f60bfb1364b1b68bb4220d9002546
:102c4800344b1b68db6a03eb83039b00324ad3587f
:102c5800022b28bf0125314b1b68002b18bf01250b
:102c68002846bde8f0872e4a11682e4b1868106078
:102c780019602d4a13680133136003f0fffbdae78c
:102c88000025dff89c80dff8a890dff88ca021e011
:102c98001f4b4ff0ff321a60d2e71d4a1360cfe78f
:102ca80004f1180003f036fde06ad9f8002001238a
:102cb80083401343c9f8003000eb800031460aeb2b
:102cc800800003f006ff134b1b68e26adb6a9a4236
:102cd80028bf0125d8f800301b68002bd8d0d8f8b9
:102ce8000030db68dc6863689f42d6d3261d304617
:102cf80003f010fda36a002bd2d1d5e70b4a136865
:102d0800013313600025abe770b2002090b20020b9
:102d180080b200205cb20020fcae002094b20020fb
:102d280060b2002064b2002084b2002088b2002083
:042d380078b200204d
:020000040000fa
:020000040100f9
:102d3c0010b59cb01446062818d0072826d00128b8
:102d4c0001d01cb010bd002370226946204601f052
:102d5c0063ff0028f5d1354b1b68002bf1d0703484
:102d6c00334a1460694601209847eae7002304229d
:102d7c006946204601f050ff0028e2d12b4b1b681e
:102d8c00002bded0694606209847dae7002308229c
:102d9c006946204601f040ff00282dd1bdf80420e3
:102dac00bdf80600bdf802309df8001062b9214a4a
:102dbc0001241470984214bf00230123032931d835
:102dcc00dfe801f00d18152202449a4214bf0023cb
:102ddc000123032922d8dfe801f0020d0a17154a56
:102dec001278012a06d1134a0021117002e0114a0f
:102dfc0002211170002ba4d00c4b1b68002ba0d00f
:102e0c000c49072098479ce70a4a1278022af1d00d
:102e1c00042aefd0074a03211170ebe7054a127818
:102e2c00022ae7d0034a04211170e3e714b2002010
:082e3c0018b20020b1b2002021
:020000040000fa
:020000040100f9
:102e44000009121b242d363f48415a536c657e7786
:102e540019100b023d342f265158434a757c676e76
:102e6400323b2029161f040d7a7368615e574c4566
:102e74002b2239300f061d14636a7178474e555c56
:102e8400646d767f4049525b2c253e3708011a1346
:102e94007d746f6659504b42353c272e1118030a36
:102ea400565f444d727b60691e170c053a33282126
:102eb4004f465d546b627970070e151c232a313816
:102ec4004148535a656c777e09001b122d243f3606
:102ed40058514a437c756e671019020b343d262ff6
:102ee400737a6168575e454c3b3229201f160d04e6
:102ef4006a6378714e475c55222b3039060f141dd6
:102f0400252c373e0108131a6d647f7649405b52c5
:102f14003c352e2718110a03747d666f5059424bb5
:102f2400171e050c333a21285f564d447b726960a5
:102f34000e071c152a233831464f545d626b707995
:020000040000fa
:020000040100f9
:102f4400002979d0f0b59db00c463c4b5b685bb171
:102f540001280bd0062807d1d3f8c83023b10a685a
:102f6400039203a9354898471db0f0bdd3f8cc505f
:102f7400002df9d00e784b6801938b68029364227c
:102f8400002103a803f068fe731e042becd8dfe8cd
:102f940003f003034d41490003afa4465cf80c0f52
:102fa400dcf80410dcf80820dcf80c300fc7dcf87f
:102fb4001000dcf81410dcf81820dcf81c300fc703
:102fc4000bafa4465cf82c0fdcf80410dcf80820e6
:102fd400dcf80c300fc7dcf81000dcf81410dcf857
:102fe4001820dcf81c300fc7b4f84c30adf84c3066
:102ff400b4f84e30adf84e3014af54f8500f616849
:10300400a268e3680fc720696169a269e3690fc711
:1030140003ab0ce0a389adf80c30e389adf80e30b6
:1030240003ab04e0e368039303ab00e0002301aacd
:1030340031460248a84797e7704700bf8cb100208b
:020000040000fa
:020000040100f9
:10304400f8b5441e14f1030f71d84468002c70d0f5
:10305400002970d084780cb90120f8bd1f461646ab
:103064000d4604464ff6ff71284603f0c8fb0128bd
:1030740063d1636803f1d002954229d12a79ff2aea
:1030840026d00022c3f8f8202eb12e626f62069b70
:103094006b61079bab61eb6913b16a6993421cd9fd
:1030a40063681b7913f0080f1cd1aa69eb68802aa6
:1030b40028bf80226969287902f086f990bb636889
:1030c400089ac3f8f820284603f090fc0020c4e7cf
:1030d400284603f08bfc0220bfe7284603f086fc59
:1030e4000220bae7012000f0fbfa88b9079b069a90
:1030f4003146287900f0fefe0446002000f0f0fa84
:1031040058b9002cdfd0284603f070fc0820a4e74f
:10311400284603f06bfc08209fe7284603f066fc72
:1031240008209ae7284603f061fc082095e702206e
:0e31340093e7022091e702208fe70d208de740
:020000040000fa
:020000040100f9
:023142007047d4
:020000040000fa
:020000040100f9
:10314400002871d138b50d464ff6ff71394803f0a8
:1031540065fb00286bd0384b93f91030022b48d113
:10316400354b1b78002b44d0334b5b78002b46d176
:10317400314b5b68002b48d12f4b996800294dd007
:10318400da681446d3784bb12832002301338b42da
:1031940044d014462832e0780028f7d10122e270a6
:1031a40015f0080f02d0244a01215170224a5168b7
:1031b40001315160918cdbb243ea01436362938c29
:1031c40001339bb24ff6ff72934208bf01231a48a2
:1031d40083844c3003f022fc45f00405a5700023e1
:1031e4006360a360ff22227784f820302380606a22
:1031f40004e0104803f012fc4ff0ff3038bd0d48d6
:1032040003f00cfc4ff0ff30f8e715f0080fb3d0d3
:10321400084803f003fc4ff0ff30efe7054803f0e4
:10322400fdfb4ff0ff30e9e74ff0ff3070474ff000
:0c323400ff30e3e7acaf002060af0020eb
:020000040000fa
:020000040100f9
:103240002de9f041804641f214040125204603f0a7
:1032500082fd002803db284603f026faf6e7304813
:1032600003f079fd10f0010f19d1012003f01cfad1
:103270004ff00c1003f06ffd4ff40054294d01275f
:103280004ff00c16a8420ad0384603f00dfa30462b
:1032900003f061fd013cf5d16ff0040020e0b8f1ce
:1032a000020f1fd0b8f1030f28d0b8f1040f30d0af
:1032b0001d4941f28c0003f056fd002400f06efc25
:1032c000c0f30b00b0f5687f2cbf44f0020020462d
:1032d00003f052f815494ff00c1003f044fd0020a4
:1032e000bde8f0811249134803f03dfd4ff4801111
:1032f00041f28c0003f037fd0024dfe70c490d4854
:1033000003f031fd002141f28c0003f02cfd00247c
:10331000d4e7054941f28c0003f025fd8024cde778
:10332000bc0702009ed0ad1076133013612f52ef10
:083330007dd51c3cac07020036
:020000040000fa
:020000040100f9
:1033380000286fd070b5044690f80a38052b6cd871
:10334800dfe803f003161e4b6b5fd0f8100803f09c
:10335800fefc030e2372030c6372030aa372e0726d
:10336800042104f1080000f029fa0346184670bd4c
:10337800d0f81418d0f8100803f0f1fc0123f5e791
:10338800b0f80c28b2f5006f13d300f108064ff41b
:1033980000652a463146d4f8100802f023f90028bf
:1033a8003dd12946304600f009fa03460028f0d1fd
:1033b800dce70ab90123d9e700f108052946d0f866
:1033c800100802f00ff908b10023cfe7b4f80c1881
:1033d800284600f0f3f90346c8e700f10805b0f8fd
:1033e8000c282946d0f8100802f028f900280cbf4c
:1033f800ac235a2323720121284600f0dff9034643
:10340800b4e7d0f8140801f065fdd4f81438636007
:103418000123abe70023184670470123a6e70023e2
:02342800a4e717
:020000040000fa
:020000040100f9
:02342a007047e9
:020000040000fa
:020000040100f9
:10342c000378002b6fd090f91030022b6bd170b554
:10343c000446066ab369c3f307223349582000fbdc
:10344c000212dbb203eb8303d56805ebc30595f9d8
:10345c001c00b0f1ff3f0dd06b7febb900f00f03f8
:10346c00001100020121994000f1884000f508503c
:10347c0001f0aefe6a6ab3699a421ad0236a2bb184
:10348c001a6a226200225a751a621a70256a15b1dc
:10349c006b7d012b2ad070bd00f00f0300110002d0
:1034ac000121994000f1884000f5085003f084fc9c
:1034bc00e0e701233375f169236a2bb11a6a2262a2
:1034cc0000225a751a621a706b68002bded094f8c1
:1034dc002630013384f826306b68aa68012098479f
:1034ec0094f82630013b84f82630cfe7284600f0cc
:1034fc003dfe02236b7563695c682b696a68e96839
:0c350c00a868a047c7e7704760af002028
:020000040000fa
:020000040100f9
:103518008b2871f100032de9f3471646dff8d480b4
:1035280018daa0f1440300f003029b1072b9013bc2
:103538000eb1012232602d4c46385c4308fb004432
:10354800e5172046294602b0bde8f087002ef2d0e4
:103558000022efe70ab9019201aeb0f1640941f126
:10356800ff3aa0f164074ff4c8734ff4c87297fb91
:10357800f3f748460023514600f05cfdc2b9012329
:103588003360114618235a43612303fb0727326827
:10359800164bbf1a0f44a9fb080108fb0a11c3fb0d
:1035a8000701134bc4184ff0000341eb0305c8e7ac
:1035b800c72a0cddb2f5967fa7bfa2f59672032342
:1035c800c83a02234ab9326011461a46dae7632a32
:1035d80002dd643a0123f5e7002312f0030f4feaf6
:1035e80092010cbf012200223260eee780510100f7
:0835f80000956e388033e101fb
:020000040000fa
:020000040100f9
:103600002de9f04103f0def82d4b1a68013a1a60fb
:103610001b68002b4dd12b4b1b680bb9002449e0d4
:103620000024294e294fdff8b880336803b3f368cc
:10363000dc6804f1180003f071f8251d284603f03a
:103640006df8e06a3a680123834013433b6000eb66
:103650008000294608eb800003f03ffa1c4b1b68f2
:10366000e26adb6a9a42e0d31a4b01221a60dce775
:103670000cb102f007ff184b1c686cb1154e012508
:1036800001e0013c05d0fff7cffa0028f9d0356002
:10369000f7e7114b00221a600e4b1c6854b10f4b18
:1036a0004ff080521a60bff34f8fbff36f8f01242a
:1036b00000e0002403f050fa2046bde8f08100bf8e
:1036c00070b2002068b2002050b1002078b2002013
:1036d0005cb2002094b2002088b2002004ed00e02b
:0436e000fcae00201c
:020000040000fa
:020000040100f9
:1036e40030b583b0054600f057fac0f30b00b0f5cf
:1036f400687f03d20024204603b030bd01a941f203
:10370400104003f02afb04460028f4d1019921f06b
:10371400ee6121f4ee2101911db341f0887141f471
:103724008831019141f2104003f01bfb00211e4837
:1037340003f017fbab211d4803f013fb01211c48c8
:1037440003f00ffb00211b4803f00bfb81211a48f7
:1037540003f007fb194d284603f0fbfa0128fad1c0
:10376400c9e70021104803f0fcfab9210f4803f01f
:10377400f8fa01210e4803f0f4fa00210d4803f091
:10378400f0fa81210c4803f0ecfa0c4d284603f0c2
:10379400e0fa0128fad1019941f48031019141f212
:1037a400104003f0defaa6e7080201000c02010053
:1037b400140201001c0201000402010018020100ad
:020000040000fa
:020000040100f9
:1037c400002859d02de9f041054611b90020bde883
:1037d400f0810c464ff6ff71284803f01ff80128ca
:1037e40001d00120f3e702f039ff2044b0f5007f57
:1037f4002cd8234b1e683719b7f5007f2bd9c6f593
:103804000078204f42462946b81903f06ff9a6f50f
:1038140000762644324605eb0801384603f066f983
:10382400174b1e600c2002f033fa174b1968214421
:10383400196018b1154b4ff480521a6003f062fa04
:1038440090b10e4803f0eaf80120c0e70b4803f0fa
:10385400e5f80020bbe7224629460a48304403f035
:1038640045f9074b1f60dde7094b1b68012105483b
:10387400184401f0d7fde4e70020704748b2002067
:103884003cb200201caa002040b2002000e100e06d
:0438940044b200201a
:020000040000fa
:020000040100f9
:103898002de9f843814602f04bf860b105460788e8
:1038a800582202fb07f4294e26444ff6ff71304692
:1038b80002f0b2ff08b9bde8f883254b03eb040812
:1038c800404600f0f6ff0028f5d0214ad8f84030ed
:1038d8004b4505d01f4a224400244ff0010c10e04c
:1038e800002188f84410c8f848104ff0ff31c8f894
:1038f800401004f15400104403f08ef8eae703f195
:103908002002136873b19869696a8842f7d1597db2
:103918000129f4d1196a11605c7583f814c01c621e
:103928001c70eee7404601f09bfa094b582202fb57
:1039380007377b68013b7b6000237b704ff0ff32c9
:103948006a62eb70304603f067f8b4e7acaf00206a
:0839580060af002080af0020e9
:020000040000fa
:020000040100f9
:1039600030b585b00023039301930293002843d020
:1039700004462822194603f071f903a9284803f0e8
:10398000eef90346002838d10398002838d00822e1
:1039900001a940f4403001f029fe034668bbbdf8a0
:1039a0000800039078b32822214640f4403001f00b
:1039b0001dfe034608bb2279a17901f00f0141eaff
:1039c000022160790001c0b2e579627a02f00f024b
:1039d00042ea0522247a2401e4b22243014315d0ad
:1039e000bab141f27630824216d841f27532914234
:1039f00098bf6ff00c0300e00023184605b030bdff
:103a00006ff00b03f9e76ff00b03f6e76ff00b03b2
:103a1000f3e76ff00b03f0e76ff00c03ede700bf87
:043a200008000c008e
:020000040000fa
:020000040100f9
:103a2400f8b52e4b1c6a59694a1c5a61914214d844
:103a3400002c51d0294a137f01331377a3682bb18b
:103a4400a368013ba360146a002c3cd0a368002b3c
:103a540039d101250027214e0fe01a469b69013315
:103a64009361e5e7e06902f0e3fae3680bb12069ea
:103a74009847346a3cb3a3682bbb25756575a37856
:103a840013b9e368002bedd1204601f003ffa378be
:103a9400002bead16770e8e701342035052c17d0f4
:103aa40006eb44135b7d002bf6d006eb44135f75e5
:103ab400ab78012bf0d16b6806eb44129360284677
:103ac40000f076fee8e7064d00242e462746e7e799
:103ad400024a137f013b1377f8bd00bfbcb000203e
:043ae400ccad002045
:020000040000fa
:020000040100f9
:103ae800002844d1264b1b78002b43d170b50c46d7
:103af800244802f085ff012802d04ff0ff3070bd46
:103b0800214802f07dff012802d04ff0ff30f6e790
:103b18001e4802f075ff01282fd1194e012232707c
:103b280023687361e169b161a169f16100253562ba
:103b38006168f160a168b1607560b2844ff0ff32ce
:103b4800b26286f826507570e268f26222693263c2
:103b580062697263226af26386f84450b564db686e
:103b680031460b489847022333742846c7e74ff07d
:103b7800ff3070474ff0ff3070474ff0ff30bee71f
:103b880060af0020acaf0020b0af0020b4af002081
:043b98002d340001c7
:020000040000fa
:020000040100f9
:103b9c0010b582b0254b1c6824b1244b1c68204600
:103bac0002b010bd19464ff4805003f0d2f818b192
:103bbc001e4b00221a60f2e701a941f2f43003f027
:103bcc00c8f890b9194b1b68194a934211d0194a7d
:103bdc00934215d0184a93421cd0144a136823f40c
:103bec00702343f4a0231360d7e7104b00221a6014
:103bfc00d5e7019b012bf0d00c4b01321a60ece79e
:103c0c00019b032be9d0042b084b0cbf01320b4a50
:103c1c001a60e2e705494ff46c1003f09af800289b
:103c2c00dbd0024b00221a60b9e700bffcb10020c8
:103c3c00a0021000b0021000f0001000b202100040
:020000040000fa
:020000040100f9
:103c4c002de9f04f85b081460d464ff6ff712748a0
:103c5c0002f0e0fd012812d1b9f1ff0f95bfc42489
:103c6c00ca24012600264ff00a0b04274ff0000a45
:103c7c000fe01e4802f0cefe6ff0050831e06ff049
:103c8c0005082ee002f00efc0bf1ff3313f0ff0bd6
:103c9c00efd000963b46524649462046fef75efd65
:103cac000028efd1204600f0c1fd0028ead13246b1
:103cbc00394603a800f01cf880460028e2d19df894
:103ccc000d209df80e301b0443ea02239df80c20b6
:103cdc0013439df80f2043ea02632b60034802f064
:103cec0099fe404605b0bde8f08f00bf00b2002041
:020000040000fa
:020000040100f9
:103cfc002de9f04f83b08146884693460027dff8c4
:103d0c0098a016e0002c40dd314609eb070001f0cd
:103d1c00ebfc00283cd09af800305bea030326d079
:103d2c0037443fb2a8eb06081ffa88f8b8f1000f29
:103d3c0026d04646b8f5005f28bf4ff400560a243b
:103d4c00012529460df1030001f0cefcd0b19df800
:103d5c00033003f0f003f02bd4d0013c24b2b4f1c7
:103d6c00ff3feed14ff0ff3003b0bde8f08f0221e2
:103d7c0001a801f0b9fc0028d2d14ff0ff30f3e7d5
:103d8c000020f1e74ff0ff30eee74ff0ff30ebe7ac
:0c3d9c004ff0ff30e8e700bfadb20020a0
:020000040000fa
:020000040100f9
:103da800244b1b681bb1244b01221a60704710b5c5
:103db800214b00221a60214b1b681b6b1a68b2f159
:103dc800a53f03d15a68b2f1a53f23d01b4b186811
:103dd8001968343102f0f4fe194b1b68b3fa83f307
:103de800dbb2c3f11f03174a9900c81802eb800021
:103df800446864684460194402460832944212d008
:103e080003eb83030f4a02eb83035b68da680b4b0f
:103e18001a6010bd9a68b2f1a53fd7d1db68b3f13b
:103e2800a53fd3d1d8e760680a46064901eb82026c
:103e38005060e5e770b2002094b200205cb2002028
:083e480078b20020fcae00205e
:020000040000fa
:020000040100f9
:103e5000002849d038b50446c26a24490968c96aad
:103e60008a4238d28169002905db20490968c96a7c
:103e7000c1f10501816102eb82021d4901eb820261
:103e80006169914205d0194a1268d26ae262012042
:103e900029e0251d284602f041fc38b915490b6878
:103ea000e06a0122824023ea02030b600f4b1b6889
:103eb000d86ae0620f4a1168012404fa00f30b4348
:103ec000136000eb80002946094b03eb800002f0f1
:103ed00004fe204607e0054a1268406cd36a984207
:103ee0002cbf0020012038bd002070475cb20020ac
:083ef000fcae002078b20020b6
:020000040000fa
:020000040100f9
:103ef800ff2837d0002938d0f8b51f4616460d469a
:103f0800044602f0ebfe012833d1204b1b6813b1a5
:103f18001f4b1b6833b91e4a1c49412000f058fa50
:103f28000146e8b90422194b1968284600f02afb13
:103f38000146a8b92b78a34212d1154b1b68b3428e
:103f48001ad9bb421bd3f21993421bd90f4b1968dc
:103f580001f580513a463144284600f013fb0146ea
:103f68000846f8bd6ff00e0101e06ff00e0108463b
:103f780070476ff00b01f3e76ff00b01f0e76ff09c
:103f88000b01ede76ff00b01eae700bff8b1002085
:043f9800f4b1002060
:020000040000fa
:020000040100f9
:103f9c0070b582b005460e460023019311461d48ac
:103fac0002f0dbfe0446310a01f47f41330203f4d4
:103fbc007f03194341ea066141f00b01164802f0f8
:103fcc00ccfe0444e4b2a521144802f0c6fe04441d
:103fdc00e4b21f21124802f0c0fe0444e4b22946a8
:103fec00104802f0bafe0444e4b285210e4802f0f7
:103ffc00b4fe044464b20d4d01a9284602f0a9fe9a
:10400c00044464b214b9019b012bf5d1204602b0d3
:10401c0070bd00bf080201000c020100100201007b
:10402c00140201001c02010004020100180201002c
:020000040000fa
:020000040100f9
:10403c007bb972b90029bebf00204ff0004106e0e9
:10404c0008bf00281cbf6ff000414ff0ff3002f09a
:10405c00b7beadf1080c6de904ce002909db002bcd
:10406c001adbfcf787ffddf804e0dde9022304b07e
:10407c007047404261eb4101002b1bdbfcf77affe0
:10408c00ddf804e0dde9022304b0404261eb4101bc
:10409c00524263eb43037047524263eb4303fcf71a
:1040ac0069ffddf804e0dde9022304b0404261eb76
:1040bc0041017047524263eb4303fcf75bffddf8b1
:1040cc0004e0dde9022304b0524263eb4303704782
:020000040000fa
:020000040100f9
:1040dc002de9f04f85b081468a46164600238df8af
:1040ec000c308df80d304ff6ff711f4802f092fb2b
:1040fc00012836d1012e30d0d0460a240025c827fd
:10410c00009533462a4649463846fef727fb50b9f8
:10411c00384600f08bfb30b92a4631464046fff753
:10412c00e7fd834670b102f0bdf9631e13f0ff0486
:10413c00e6d10d4802f06efc6ff0050b584605b049
:10414c00bde8f08f084802f065fc03ab9845f5d14b
:10415c009df80c308af80030f0e70df10c080226bf
:0c416c00cbe76ff0050be9e700b2002084
:020000040000fa
:020000040100f9
:1041780070b505468169234cc1f30720582202fb1c
:104188000040cbb203eb8303db00c0681e181b5a48
:1041980002fb0342926a914222d01a4c582202fb37
:1041a800034463691b68002106f10c009847ab695a
:1041b800a362002386f8203096f91c00b0f1ff3f77
:1041c8000dd0737f8bb900f00f030011000201219d
:1041d800994000f1884000f5085002f0effd70bded
:1041e80096f82020002ae7d0d7e700f00f03001147
:1041f80000020121994000f1884000f5085000f0c4
:08420800e9ffece760af0020c4
:020000040000fa
:020000040100f9
:1042100010b58cb001238df80730002832d001682a
:104220001a4a116081681a4a1160c168194a1160fe
:10423000018a194a1180837c13b104238df8073059
:10424000164b00221a700df1070001f0e7fb04463f
:1042500010b120460cb010bd114b02221a7001f0b3
:104260003fff044628b100200d4b187002f09bf868
:10427000efe70c49012001f067fa02a8fff770fb95
:104280000446e6e76ff00b04e3e700bf0cb2002042
:1042900008b2002004b20020a6b20020b0b2002074
:0842a000afb200204d0c00013b
:020000040000fa
:020000040100f9
:1042a800234b002908bf1946224a136823f002034a
:1042b8001360d369002bfcd100282cd003685b0065
:1042c800b1fbf3f18b1efe2b27d830b4194b1a68bb
:1042d80022f040521a601c68826845682a432243cb
:1042e8001a600139c9b219735a6822f007025a6074
:1042f8005a68c1680a435a601a46d369002bfcd130
:1043080001200c4a136843f002031360d369002ba1
:10431800fcd130bc7047002000e00020054a13683b
:1043280043f002031360d369002bfcd1704700bf30
:084338000090d00300100040ca
:020000040000fa
:020000040100f9
:1043400070b504460e461d4b1d681d4b18680430a1
:1043500002f0e4f948b91a4b1a681a490b68d06a96
:104360000122824023ea02030b60b4f1ff3f0dd02b
:104370002c44134b1b685c60a54210d9124b186883
:104380000f4b1968043101f04bff70bd002eefd0c8
:104390000b4b196804310d4802f09ffbf5e70c4bfd
:1043a0001868074b1968043101f03aff094b1b6884
:1043b000a34284bf074b1c60e7e700bf90b2002018
:1043c0005cb2002078b2002064b2002064b100200a
:0843d00060b2002080b2002061
:020000040000fa
:020000040100f9
:1043d80000293dd02de9f04383b00e46002a3bd09a
:1043e80014460546042241f24801684600f0caf81e
:1043f800024628bb9df80030202b30d803b3013b80
:10440800dbb241f2540808ebc30841f24c074ff005
:1044180008094a463946684600f0b4f8024678b9b1
:104428009df801109df8003043ea0123ab420bd1ff
:104438009df802301b0333609df803301b03236093
:10444800104603b0bde8f08308374745e1d1f7e7e8
:104458006ff00e02104670476ff00e02f0e76ff033
:044468000b02ede76f
:020000040000fa
:020000040100f9
:10446c0010b582b000230093204a137069464ef6b3
:10447c002400fff7e5fb30bb1c4b1b786bb9009994
:10448c0021f07c0141f0500100914ef6240000f027
:10449c004ffa28bb154b01221a7001a94ff480501a
:1044ac00fff7cefb0446f0b94ef6240002f062fb97
:1044bc0020f0700141f050014ef6240000f038fa63
:1044cc00204602b010bd094b01221a7069464ef607
:1044dc002400fff7b5fb0028ced06ff00504efe702
:1044ec006ff00504ece76ff00504e9e7adb20020ce
:020000040000fa
:020000040100f9
:1044fc0008b51b4b98471b4b9847eff3108172b6ce
:10450c00194ad2f8883043f47003c2f88830bff3ec
:10451c004f8fbff36f8f01b962b6144c20236360c9
:10452c0000f0baf8124b23f07f030f4a9360114b43
:10453c009847a36823f00103a3602346da6812f0be
:10454c00010ffbd1094b5a6842f004025a60012258
:10455c009a60094b9847094b984702f097fbfee786
:10456c00b3470001b347000100ed00e0002000411b
:10457c0000000000e1540001b3470001b347000103
:020000040000fa
:020000040100f9
:10458c002de9f04105469046b2f5004f2ed9a2f523
:10459c000047013f27f4ff4727f07f0701f5004351
:1045ac001f440c464ff40046a1f5004188440fe02f
:1045bc00324629464ff4502001f012f8034680b9d8
:1045cc00a8eb040204f5004405f50045bc420bd0f1
:1045dc00324621464ff45020fff7dafc0346002800
:1045ec00e6d01846bde8f0819046394642464ff475
:1045fc005020fff7cdfc03460028f2d14246294655
:0c460c004ff4502000f0ecff0346eae7fa
:020000040000fa
:020000040100f9
:104618002de9f04106460d4602f00cf8044640b379
:10462800a84228bf2c46194b1d682f19b7f5007fe3
:1046380022d9c5f50077dff860803a4608eb050116
:10464800304602f051faa5f5007525442a46414640
:10465800f01902f049fa0d4b1d600c2001f016fb11
:104668000b4a13681b1b136018b10a4b4ff4805296
:104678001a602046bde8f0812246074929443046a1
:1046880002f032fa014b1f60e7e700bf38b20020a2
:0c46980034b2002000e100e01ca800206b
:020000040000fa
:020000040100f9
:1046a4001e4b1f4a9342f0b438bf002103d203f8d3
:1046b400011b9342fbd11b4ad2e9000150ea0103da
:1046c4004ff0000610d09468034602f10c076cb951
:1046d40021b1014403f8016b9942fbd13a46d2e976
:1046e400000150ea0103eed1f0bc704759b101f169
:1046f4000c030c38801a1a443b461c1813f8015b4f
:1047040025709342f9d111f0030318bf012303eb81
:10471400910107eb81073a46e1e700bf0000002062
:08472400000000202800000144
:020000040000fa
:020000040100f9
:10472c00f0b583b000230193009301a90b2002f094
:10473c0010fb044640bb019911f0010f06d141f06a
:10474c0001010b2002f009fb0446e8b901a9012084
:10475c0002f0fffa0446b8b9019911f0020f16d015
:10476c0005250f2602276946304602f0f2fa044668
:10477c0050b9009b13f0040f12d1384601f08eff94
:10478c00013df0d16ff00304204603b0f0bd41f0c1
:10479c000201012002f0e1fa04460028e0d0f3e720
:0647ac0002f0cffaf0e775
:020000040000fa
:020000040100f9
:0247b20070474e
:020000040000fa
:020000040100f9
:1047b40000283cd02de9f04186461d4b1a6ad0f8fa
:1047c4000880c2b1936844460025984518d3002058
:1047d40000219368c01841f100019369abb1d3f88b
:1047e40008c010eb0c0641f10007bd4208bfb442fb
:1047f4000bd31a46ede7c0f808800d4b186214e09d
:104804000b4b18628261002003e0cef81830c2f826
:1048140018e0a8eb0000cef80800def8183023b149
:10482400def808109a68521a9a60bde8f081704761
:04483400bcb00020f4
:020000040000fa
:020000040100f9
:1048380070b582b00546cf2811d00a24012631462a
:104848000df1070000f052ff50b39df80730ab425e
:104858000fd0013c64b2b4f1ff3ff0d11de001215b
:104868000df1070000f042ff0028e6d14ff0ff34b9
:1048780013e0002c17db0a24012529460df1070057
:1048880000f034ff90b19df8073023b1013c64b2c9
:10489800b4f1ff3ff1d1e41764b2204602b070bd15
:1048a8004ff0ff34f9e74ff0ff34f6e74ff0ff34ed
:0248b800f3e724
:020000040000fa
:020000040100f9
:1048ba0070b590f8263013b10125284670bd04461c
:1048ca004ff6ff71503001f0a6ff08b90025f4e752
:1048da00e66b357835b196f9040001f0d6f984f81b
:1048ea003b00eae702f042fa05467068b0f1ff3f82
:1048fa000cd1b068b0f1ff3f0ed1f068b0f1ff3fc4
:10490a0010d1284602f036fa0125d6e740b201f066
:10491a00bcf984f83800ece740b201f0b6f984f843
:10492a003900eae740b201f0b0f984f83a00e8e762
:020000040000fa
:020000040100f9
:02493a00fee796
:020000040000fa
:020000040100f9
:10493c002de9f04782b0054688464ff6ff711b48bb
:10494c0001f068ff01282dd1302d95bfc326c92653
:10495c00012700270a244ff0040909e03046fff72d
:10496c0065ff90b101f09efd631e13f0ff0410d0a3
:10497c0000974b46424629463046fdf7effe8246ed
:10498c000028efd1b5f5a05fe8d1084802f042f855
:10499c0004e0064802f03ef86ff0050a504602b0fb
:1049ac00bde8f0876ff0050af8e700bf00b2002001
:020000040000fa
:020000040100f9
:1049bc00002835d038b50446826c013a8264c06a4e
:1049cc00616c88422ed00ab1002038bd251d2846c6
:1049dc0001f09efe70b9e26a02eb82039b00124961
:1049ec00cb583bb911480368012101fa02f223eac2
:1049fc0002020260606ce062c0f10503a3610b4a25
:104a0c001168012404fa00f30b43136000eb8000df
:104a1c002946054b03eb800002f059f82046d4e7f9
:104a2c00002070470020d0e7fcae002078b20020b8
:020000040000fa
:020000040100f9
:104a3c00002838d038b50446426c914238bf114634
:104a4c00c26a8a4202d0806c012800d038bde16273
:104a5c00a0690028a4bfc1f10501a16102eb82028b
:104a6c00114901eb820261699142efd1251d284663
:104a7c0001f04efe38b90d490b68e06a0122824004
:104a8c0023ea02030b60e06a084a116801238340a1
:104a9c000b43136000eb80002946034b03eb8000b3
:104aac0002f015f8d2e77047fcae002078b2002077
:020000040000fa
:020000040100f9
:104abc0070b5054601f080fe95f8454064b2002cb7
:104acc0011dd6b6a7bb105f1240606e002f028f9d2
:104adc00013c64b23cb16b6a2bb1304600f04af930
:104aec000028f5d0f2e7ff2385f8453002f02ef8c8
:104afc0001f062fe95f8444064b2002c11dd2b6984
:104b0c007bb105f1100606e002f00af9013c64b233
:104b1c003cb12b692bb1304600f02cf90028f5d0b4
:0e4b2c00f2e7ff2385f8443002f010f870bd68
:020000040000fa
:020000040100f9
:104b3a0070b504461646856b026c5ab903681bb1f8
:104b4a0000200135a56370bd8068fff732ff00239e
:104b5a00a360f6e76eb9406801f0c5ff6368226c8e
:104b6a0013446360a268934219d323686360304692
:104b7a00e7e7c06801f0b7ff226c5242e3681344ca
:104b8a00e36021688b4202d2a3681a44e260022ed3
:104b9a0001d00020d5e725b1013d0020d1e73046fc
:064baa00cfe70020cde77b
:020000040000fa
:020000040100f9
:104bb00030b583b041f28c030193184b0093023857
:104bc000c0b2012811d94ff4005400200225009be7
:104bd000834214d0284601f067fd019802f0bbf82b
:104be000013cf4d16ff004000ee00d4b0193a3f1f2
:104bf0002253a3f51113a3f2e9530093e3e7009abc
:104c0000064b9a4202d0002003b030bd002141f291
:104c10008c0002f0a8f80020f6e700bf3626530209
:044c2000ac070200db
:020000040000fa
:020000040100f9
:104c240070b51c4608b30346f9b1f2b11848806860
:104c3400824223d816484068984222d8d518144e88
:104c44007068b668304485421ed8184600f0ccfc23
:104c5400034668b90e494a6889680a44954200d0f7
:104c640034b101f003fa034602e01cb96ff00b0300
:104c7400184670bd01f0faf90346f9e76ff00b032b
:104c8400f6e76ff00b03f3e76ff00b03f0e700bff9
:044c940094b00020b8
:020000040000fa
:020000040100f9
:104c98002de9f0411a4c646844b315460e46804627
:104ca80004f1d0074ff6ff71384601f0a6fd012840
:104cb8001cd1b8f1000f1bd184f8d460c4f8ec50b3
:104cc8000023c4f8e430c4f8e830c4f8f030c4f87d
:104cd800f430384601f088fe094b5b68d3f8f84099
:104ce80024b14346012239460548a047bde8f08172
:104cf800ff2384f8d4300023c4f8ec30e0e700bf89
:044d08008cb100204a
:020000040000fa
:020000040100f9
:104d0c0010b5124b186000249c6002225a60dc60c3
:104d1c0021461846fdf782fc21460d4801f0f4ffb0
:104d2c0021460c4801f0f6ff0b4b1c600b4b1c6032
:104d3c000b4b1c600b4b1c600b4b1c600b4b1c601f
:104d4c0001210b4801f022f810bd00bf9cb10020de
:104d5c00515c0001815f00013cb2002044b2002094
:104d6c0040b2002030b2002038b2002034b2002013
:044d7c001ca800204f
:020000040000fa
:020000040100f9
:104d800038b5c368dc6804f11805284601f0c6fc94
:104d9000124b1b68ebb9251d284601f0bffce06ae9
:104da0000f4a1168012383400b43136000eb80001e
:104db00029460c4b03eb800001f08ffe0a4b1b6869
:104dc000e26adb6a9a4283bf0120084b1860002028
:104dd00038bd2946064801f080feefe770b200209a
:104de00078b20020fcae00205cb2002094b200201b
:044df00050b100209e
:020000040000fa
:020000040100f9
:104df400f7b50646406937690b2f4feae0710cd9c5
:104e04000c2297fbf2f302fb1377002fbcbf03f1d4
:104e1400ff33bf18c01841ebe37101aafef77afb18
:104e240004460d463846019901f086fd221845ebeb
:104e3400e0731946f3681046094a013bc2fb0301bb
:104e4400b2684ff46163c3fb020172683c23c3fb85
:104e540002013368c01841ebe37103b0f0bd00bf39
:044e64008051010078
:020000040000fa
:020000040100f9
:104e680090f8263003b1704770b50446c56b2b78af
:104e780053b190f83b1095f9040001f07ffc04f160
:104e8800500001f0c9fd70bd01f071ff0646686869
:104e9800b0f1ff3f0bd1a868b0f1ff3f0dd1e86832
:104ea800b0f1ff3f0fd1304601f065ffe7e794f816
:104eb800381040b201f062fcede794f8391040b2c6
:104ec80001f05cfcebe794f83a1040b201f056fcb4
:024ed800e9e708
:020000040000fa
:020000040100f9
:024eda00fee7f1
:020000040000fa
:020000040100f9
:104edc00f8b5154b1b6883420cd004464ff6ff7196
:104eec00124801f097fc012805d000f07bfc20460d
:104efc00fff706fff8bd0e4d0e4f0f4e01f0fefef4
:104f0c000028fbd12b682bb130680121384400f00c
:104f1c0085faf3e7094a137e13f0020ffbd003481e
:104f2c0001f078fde1e700bf9cb1002048b2002001
:104f3c0040b200201caa002044b20020000c00400b
:020000040000fa
:020000040100f9
:104f4c0041b338b50d4640bb154801f057fd01285b
:104f5c0002d04ff0ff3022e02b68124c63604ff40c
:104f6c007a72e26095f90420227200256561a561d0
:104f7c00256225771b6829460b48984763685b6850
:104f8c009847a0222946094801f062fe02232370ab
:104f9c00204604e04ff0ff3070474ff0ff3038bd33
:104fac00e0b00020bcb00020253a0001ccad0020c0
:020000040000fa
:020000040100f9
:104fbc0038b504460d4601f0fffb2268216ce36b0b
:104fcc0003fb01f3d018a0600020a06362605b1aa1
:104fdc001344e360ff2384f8443084f84530a5b9ca
:104fec0023691bb901f0b2fd012038bd04f110009a
:104ffc00fff7c0fe0028f5d0084b4ff080521a6026
:10500c00bff34f8fbff36f8fece704f1100001f08b
:10501c0053fd04f1240001f04ffde3e704ed00e043
:020000040000fa
:020000040100f9
:10502c0080b5164c164f174edff860802368bbb165
:10503c0001f0c2fbfb68dd68281d01f069fb3368d9
:10504c00013b33602368013b236001f07ffd286b3b
:10505c0001f081fb284601f07efb2368002be7d191
:10506c00094b1b68012be1d94ff08053c8f8003075
:10507c00bff34f8fbff36f8fd8e700bf6cb2002028
:10508c0078b1002068b20020fcae002004ed00e0f6
:020000040000fa
:020000040100f9
:10509c0010b5fdf721fa154a136823f49f7323f01a
:1050ac00010343f01103136001f0fcfb00f044ff1b
:1050bc00fef7b5f900f096fb00f05efc00f0a0fde9
:1050cc000021084601f022f8094c20600949002013
:1050dc00fef704fd606008490020fff731ffa06077
:1050ec0001f03efd00f054fb10bd00bf0024014454
:0c50fc00b8b1002084660001986d00012e
:020000040000fa
:020000040100f9
:1051080038b5044610f0070f1cbf20f00704083418
:1051180001f098fd124b1b687bb1124b1b681c44b5
:1051280049f6f77294420ed8a3420fd3fef764faf9
:1051380001f04ffd0025284638bd094a0a4b23f0e7
:1051480007031360e9e7fef757faf1e7044a156821
:105158001d44044b1c60fef74ffa002debd1e7e726
:0c51680054b2002058b2002008000020c3
:020000040000fa
:020000040100f9
:1051740010b582b0102401a9204601f0eefd0346cb
:10518400f8b9019b13f0010ff5d101a9012001f039
:10519400e4fd0346a8b9019911f0020f07d021f0ec
:1051a40002010191012001f0dcfd034648b901a987
:1051b4000b2001f0d2fd034618b9019911f0010f3b
:1051c40002d1184602b010bd21f0010101910b205b
:0851d40001f0c7fd0346f4e7fa
:020000040000fa
:020000040100f9
:0451dc008163704734
:020000040000fa
:020000040100f9
:1051e000eff30980bff36f8f154b1a681ef0100f95
:1051f00008bf20ed108a20e9f04f10602de909006a
:105200004ff0200080f31188bff34f8fbff36f8ff3
:10521000fef7cafd4ff0000080f3118809bc196841
:105220000868b0e8f04f1ef0100f08bfb0ec108a0d
:1052300080f30988bff36f8f704700bfaff3008022
:045240005cb200203c
:020000040000fa
:020000040100f9
:1052440038b5eff311844ff0200383f31188bff3d3
:105254006f8fbff34f8f826bc36b93421ad990f851
:1052640045305bb201328263b3f1ff3f05d00133b5
:105274005bb280f8453001200de0436a0bb9012090
:1052840009e00d462430fff779fd38b145b101201e
:10529400286000e0002084f3118838bd0120fae77b
:0452a4000120f8e706
:020000040000fa
:020000040100f9
:1052a80000b583b0114b019300230093802210496d
:1052b8001048fcf7b9f8012802d003b05df804fbe8
:1052c8004ff0200383f31188bff36f8fbff34f8f25
:1052d800094b4ff0ff321a60084b01221a60084b45
:1052e80000221a6000f004fce7e700bf7cb200204f
:1052f800b06d00012d50000180b200208cb200205a
:0453080090b200203f
:020000040000fa
:020000040100f9
:10530c00f0b1024690f828300f3bdbb2ef2b19d9e5
:10531c0090f82000202817d892f82730d3b130b459
:10532c0002f121032732002413f8015b2c43934232
:10533c00fad15cb161b1003018bf012030bc7047ac
:10534c000020704700207047002070470020f5e7d0
:10535c000120f3e719b1003018bf0120704701207c
:02536c00704788
:020000040000fa
:020000040100f9
:02536e00fee758
:020000040000fa
:020000040100f9
:1053700008b500230a220121104800f08ff9012806
:1053800000d008bd00230a2201210d4800f086f953
:105390000128f6d10b4b1b68b3f1ff3f06d000226a
:1053a0000949084b186800f0d3feeae70321002002
:1053b000fdf7c8fe034b1860f1e700bfd8b100202d
:0c53c000ccb10020dcb10020195e00011f
:020000040000fa
:020000040100f9
:1053cc0010b584b0124c21606260124a127882428d
:1053dc0014d1ff2a15d0bbb11c46002302930193b4
:1053ec00009308230a4a75210420fcf70df90346a3
:1053fc0008b9094a1460184604b010bd6ff00e03ca
:10540c00f9e76ff00e03f6e76ff00e03f3e700bf5a
:0c541c00c4b10020acb20020e8b10020b8
:020000040000fa
:020000040100f9
:1054280020b310b40446134b1b7d0bbb114b186003
