:020000040000fa
:10000000f0930120295c0301a5b00301abb003010b
:10001000b7b00301bdb00301c3b00301000000008d
:1000200000000000000000000000000099bd010178
:10003000b1b0030100000000b5be010117bf01010e
:100040006909020149480201537201016904020170
:100050005372010153720101537201015372010184
:100060005372010153720101537201015372010174
:100070005d3a01010d9401015372010153720101b6
:100080005372010153720101537201015372010154
:1000900053720101537201017d1d0201537201016e
:1000a0005372010153720101537201015372010134
:1000b000537201015372010153720101793c030132
:1000c00021f30201537201015372010153720101c4
:1000d0005372010153720101554e03015372010124
:020000040000fa
:020000040004f6
:045f8800ffff000017
:020000040000fa
:020000040004f6
:045f8c0000400e843f
:020000040000fa
:020000040004f6
:045f900038fc745f06
:020000040000fa
:020000040004f6
:045f94003844161463
:020000040000fa
:020000040004f6
:045f98000300007191
:020000040000fa
:020000040004f6
:045f9c0002000000ff
:020000040000fa
:020000040004f6
:045fbc0000000010d1
:020000040000fa
:020000040100f9
:1040000000203200f000002000000000000000004e
:1040100001203200f000002000000000000000003d
:1040200002203200f000002000000000000000002c
:1040300003203200f000002000000000000000001b
:1040400004203200f000002000000000000000000a
:1040500005203200f00000200000000000000000f9
:1040600006203200f00000200000000000000000e8
:1040700007203200f00000200000000000000000d7
:10408000f8b500bff8bc08bc9e467047d57b03015d
:10409000f8b500bff8bc08bc9e467047b17b030171
:020000040000fa
:020000040100f9
:0840a000e0c001000100000076
:020000040000fa
:020000040100f9
:1040a80090b5b3b002af03463a60fb710b46bb80d4
:1040b800fb792c2b17d107f1b001002304223868b3
:1040c8000ef0e6fe0346002b40f03a82bf4b1b6819
:1040d800002b00f03582bd4b1b6807f1b00211467a
:1040e8002c2098472ce2fb791b2b17d107f1a8014c
:1040f8000023082238680ef0cbfe0346002b40f060
:104108001f82b24b1b68002b00f01a82af4b1b6852
:1041180007f1a80211461b20984711e2fb79062bec
:1041280017d107f10c010123302238680ef0b0fed8
:104138000346002b40f00482a44b1b68002b00f0c0
:10414800ff81a24b1b6807f10c0211460620984715
:10415800f6e1fb790e2b00f0f381fb79322b17d1b6
:1041680007f190010023182238680ef091fe0346eb
:10417800002b40f0e581954b1b68002b00f0e08197
:10418800924b1b6807f19002114632209847d7e1fd
:10419800fb793d2b14d101230022002138680ef051
:1041a80077fe0346002b40f0cb81884b1b68002b21
:1041b80000f0c681854b1b6800213d209847bfe170
:1041c800fb792f2b1ed107f10c036422002118461e
:1041d80038f0bcfc07f10c010023642238680ef0ab
:1041e80057fe0346002b40f0ab81784b1b68002b31
:1041f80000f0a681754b1b6807f10c0211462f20b1
:1042080098479de1fb79342b36d107f18c010023c7
:10421800042238680ef03cfe0346002b40f09081e3
:1042280028f00cfa0346012b1bd928f0dbf90346ca
:104238001846d7f88c301b0edbb21946d7f88c30ed
:104248001b0cdbb21c46d7f88c301b0adbb2d7f844
:104258008c20d2b20192009323460a465c4914f09e
:1042680053f85a4b1b68002b00f06a81574b1b68a8
:1042780000213420984763e1fb79112b1ed1554b5f
:1042880000221a7007f188010023042238680ef012
:10429800fffd0346002b40f0538197f888204e4bd2
:1042a8001a704a4b1b68002b00f04a81474b1b6869
:1042b80007f1880211461120984741e1fb79132b39
:1042c80017d107f10c0100232c2238680ef0e0fd0d
:1042d8000346002b40f034813c4b1b68002b00f058
:1042e8002f813a4b1b6807f10c021146132098479f
:1042f80026e1fb79042b17d107f1b401002304222e
:1043080038680ef0c5fd0346002b40f019812f4b8d
:104318001b68002b00f014812c4b1b6807f1b402ba
:104328001146042098470be1fb79652b17d107f15b
:10433800b4010023042238680ef0aafd0346002bbe
:1043480040f0fe80214b1b68002b00f0f9801f4bca
:104358001b6807f1b402114665209847f0e0fb7925
:10436800092b17d107f10c010123642238680ef0dc
:104378008ffd0346002b40f0e380144b1b68002b95
:1043880000f0de80114b1b6807f10c021146092072
:104398009847d5e0fb792a2b20d107f18401012326
:1043a800042238680ef074fd0346002b40f0c880e4
:1043b800064b1b68002b00f0c380044b1b6807f1f9
:1043c800840211462a209847bae000bf44c9002059
:1043d80014e3010148c9002040c90020fb79272bbc
:1043e80017d107f180010023042238680ef050fd30
:1043f8000346002b40f0a480534b1b68002b00f0b1
:104408009f80514b1b6807f180021146272098476f
:1044180096e0fb79202b22d107f1780100230822ae
:1044280038680ef035fd0346002b40f089803b6864
:1044380003f10800b96fb7f87c2001230ef028fdbe
:104448000346002b7cd1404b1b68002b78d03e4b99
:104458001b6807f1780211462020984770e0fb7925
:104468001d2b5dd107f174010023042238680ef07a
:104478000ffd0346002b63d1b7f87630a7f8bc30a0
:10448800b7f87430a7f87230304b1b68002b57d040
:104498002f4b1b68002b53d02e4b1b88002b4fd063
:1044a800012387f8bf30b7f872202a4b1b889a423d
:1044b80007d9002387f8bf30264b1b88a7f8703030
:1044c80003e0b7f87230a7f87030b7f8bc203b6843
:1044d800d0181f4b1968b7f8702097f8bf300ef046
:1044e800d7fc0346002b2ad1b7f87220b7f87030f2
:1044f800d31a9bb2a7f87230b7f87020b7f8bc305f
:104508001344a7f8bc30114b1b68114a116807f116
:1045180070021d209847b7f87230002bc0d10fe009
:1045280028f08cf80346002b0ad028f05bf80346e5
:104538001846fb791a46084913f0e6fe00e000bf6a
:1045480000bfc437bd4690bd44c9002060c90020e3
:1045580064c9002068c9002034e3010180b582b035
:1045680000af0023fb7112f0f1f90346fb7197f9d4
:104578000730002b05d10bf03bfe054b01221a70ca
:1045880000e000bf97f9073018460837bd4680bde0
:1045980041c9002080b584b000af78600023fb7368
:1045a8007b68002b0ed128f049f80346002b06d073
:1045b80028f018f803464c49184613f0a5fef423d2
:1045c800fb738be07b681b78002b06d07b68184652
:1045d80038f0c4fa0346202b0ed928f02ff80346ea
:1045e800002b06d027f0feff03464049184613f07b
:1045f8008bfef423fb7371e07b6893f821300e2b5c
:1046080004d87b6893f82130002b0ed128f016f8d7
:104618000346002b06d027f0e5ff03463449184629
:1046280013f072fef423fb7358e07b6893f8413073
:10463800002b18d17b6893f84230002b13d17b688c
:1046480093f84330002b0ed127f0f8ff0346002bd8
:1046580006d027f0c7ff03462649184613f054fe34
:10466800f423fb733ae07b6893f83f30012b34d096
:104678007b6893f83f30032b02d1f423fb732de0c2
:104688007b6893f83f30022b18d17b6893f823306e
:10469800072b04d97b6893f82330402b1ed927f0c9
:1046a800cdff0346002b06d027f09cff0346124996
:1046b800184613f029fef423fb730fe027f0beff22
:1046c8000346002b06d027f08dff03460b491846fa
:1046d80013f01afef423fb7300e000bf97f90f30c4
:1046e80018461037bd4680bd4ce3010160e3010167
:1046f80070e3010180e301019ce30101b4e30101de
:1047080080b584b000af78600023fb737b68002b12
:104718000ed127f093ff0346002b06d027f062ff47
:1047280003463849184613f0effdf423fb7362e0a3
:104738007b681b78002b11d127f080ff0346002be4
:1047480009d027f04fff034618467b681b781a46a6
:104758002d4913f0d9fdf423fb734ce07b685b789b
:10476800092b03d97b685b78fa2b11d927f066fff0
:104778000346002b09d027f035ff034618467b680f
:104788005b781a46214913f0bffdf423fb7332e02e
:104798007b689b78002b03d07b689b78022b11d910
:1047a80027f04cff0346002b09d027f01bff0346d8
:1047b80018467b689b781a46154913f0a5fdf42323
:1047c800fb7318e07b6893f90330002b12db27f0aa
:1047d80035ff0346002b0ad027f004ff034618468e
:1047e8007b6893f903301a460a4913f08dfdf423c8
:1047f800fb7300e000bf97f90f3018461037bd462d
:1048080080bd00bf4ce30101d4e30101f4e30101e1
:1048180014e4010144e4010180b588b004af786074
:10482800f423fb73002302934ff42b7301937b68eb
:10483800009300230022832105200df09fff0346eb
:10484800fb7397f90f3018461037bd4680bd80b509
:1048580082b000aff423fb7112f0c4f80346fb7179
:1048680097f90730002b02d1044b01221a7097f9ef
:10487800073018460837bd4680bd00bf41c9002033
:1048880090b591b002af7860002387f837300123e4
:10489800fb727b68002b03d1f42387f83730c4e020
:1048a8007b681b68644a13607b689b68634a136073
:1048b8007b68db68624a13607b681a8a614b1a80de
:1048c8007b689b7c002b01d00423fb725e4b00228b
:1048d8001a7007f10b03184612f0c2f8034687f85e
:1048e800373097f93730002b40f09c80574b022225
:1048f8001a7000200df006ff034687f8373097f945
:104908003730002b40f08680514901200ef058fbcb
:1049180007f10c03184611f0dbfe034687f8373021
:1049280027f08cfe0346012b06d927f05bfe0346d1
:104938004849184613f0e8fc27f080fe0346012b8f
:1049480010d927f04ffe034618463b7c19467b7c5e
:104958001c46bb7cba8d0192009323460a463e4909
:1049680013f0d2fc27f06afe0346012b0fd927f07b
:1049780039fe0346184607f10c0303f1160107f147
:104988000c0303f10a020b46344913f0bdfc27f06f
:1049980055fe0346012b0dd927f024fe0346184681
:1049a800fb7c1a463b7d19467b7d00930b462c49c0
:1049b80013f0aafc27f042fe0346012b0ad927f080
:1049c80011fe0346184606230093072313222549a0
:1049d80013f09afc27f032fe0346012b08d927f082
:1049e80001fe03461846204b204a214913f08cfc4f
:1049f80097f9373013f10d0f16d127f01ffe034634
:104a0800002b11d027f0eefd03461a49184613f083
:104a18007bfc09e000bf0d4b00221a70002012f049
:104a280094f802e000bf00e000bf97f9373018465d
:104a38003c37bd4690bd00bf44c9002060c9002076
:104a480064c9002068c9002048c9002041c9002065
:104a5800a940000160e401017ce40101a0e4010136
:104a6800c0e40101e4e40101fce4010108e50101fd
:104a780014e5010134e5010180b584b000af786028
:104a88000023fb73fff7e3fe0346fb7397f90f3030
:104a9800002b04d17868fff7f3fe0346fb7397f900
:104aa8000f3018461037bd4680bd80b582b000afc4
:104ab8007860074b00221a7000200df047fe002096
:104ac80012f043f8002318460837bd4680bd00bfe2
:104ad80041c9002080b500af0ef0b6f9034618466c
:104ae80080bd80b590b004af78600b46fb7007f1cd
:104af8000c0324220021184638f028f8ff233b73c2
:104b080007f10c0200230293002301930023009372
:104b18002423272101200df031fe034618463037a3
:104b2800bd4680bd80b584b004af00230293002346
:104b380001930023009300230022292101200df076
:104b48001dfe03461846bd4680bd80b586b000af41
:104b58003b600346fb710b46bb711346bb80f423d5
:104b6800fb75bb882c33bb823b68002b72d03b683b
:104b78005b68002b6ed03b681b7a202b6ad83b6a97
:104b8800002b64d03b6a3b613b6a0433fb603022f4
:104b98000021386a37f0daff3b69ba8a1a80fb7954
:104ba800012b0bd0022b02d0002b0ed057e03b6913
:104bb8009b7843f00203dab23b699a703b699b78b1
:104bc80043f00103dab23b699a7000bf3b685b7a35
:104bd800ff2b04d13b685a7a3b69da700de03b68d9
:104be8005b7a0e2b38d83b685b7a002b34d03b6855
:104bf8005b7a013bdab23b69da70bb79002b2dd0c6
:104c0800bb79042b2ad8fb68ba7983f828203b683b
:104c18001a7afb681a70fb68581c3b6859683b682d
:104c28001b7a1a4637f0edfc3b681b68002b0cd04a
:104c3800fb68012283f82120fb6803f122003b680e
:104c48001b680622194637f0dcfc0023fb7597f930
:104c5800173006e000bf02e000bf00e000bf6ff0c1
:104c68000e0318461837bd4680bd80b483b000af28
:104c78000346fb71fb79303bfb71fb79092b01d8ab
:104c8800fb790ee0fb7943f02003fb71fb79313ba4
:104c9800fb71fb79052b03d8fb790a33dbb200e003
:104ca800ff2318460c37bd465df8047b704780b576
:104cb80086b000aff860b9601346fb712ce0bb68a2
:104cc8005a1cba601b781846fff7cfff0346fb75de
:104cd800fb7d0f2b02d96ff00e0323e0fb7d1b0138
:104ce800dab2fb681a70bb685a1cba601b7818469f
:104cf800fff7bbff0346fb75fb7d0f2b02d96ff057
:104d08000e030fe0fb681a78fb7d1344dab2fb68e8
:104d18001a70fb680133fb60fb795a1efa71002b8d
:104d2800cdd1002318461837bd4680bd80b594b054
:104d380004af03463960fb71f12387f83f30f879f7
:104d480007f10c0300933b6800220121fff7fdfee9
:104d5800034687f83f3097f93f30002b0fd107f112
:104d68000c020023029300230193002300933023b5
:104d78003b2101200df002fd034687f83f3097f9eb
:104d88003f3018464037bd4680bd80b485b000af7f
:104d98000346b9607a60fb736ff00f031846143747
:104da800bd465df8047b704780b596b004af0346f6
:104db800b9607a60fb73f12387f847307b68002b72
:104dc8007dd0f87b07f110030093bb686c220221a9
:104dd800fff7bbfe034687f8473097f94730002bab
:104de8006dd16c201af07ffa38643b6c002b63d0cd
:104df8006c220021386c37f0a9fe7b681b68002bf9
:104e080025d07b685b68002b03d0f12387f84730f7
:104e18003ae03b6c40221a703b6c581c7b6819685e
:104e28003b6c1b785b08dbb21a46fff740ff034672
:104e3800002b02d0f12387f847303b6c581c7b6865
:104e480019683b6c1b781a4637f0dbfb1ce07b6863
:104e58005b68002b15d07b681b7a402b03d9f123a4
:104e680087f8473010e07b681a7a3b6c1a703b6c05
:104e7800581c7b6859683b6c1b781a4637f0c1fb95
:104e880002e0f12387f8473097f94730002b0fd11c
:104e980007f11002302302936c2301933b6c0093bb
:104ea8003023bb2101200df069fc034687f8473009
:104eb800386c1af024fa02e0fd2387f8473097f996
:104ec800473018464837bd4680bdb0b584b000affe
:104ed8000346b9607a60fb73bb68002b05d17b6819
:104ee800002b02d06ff00e03afe0fb7b032b00f228
:104ef800a88001a252f823f0114f0001bf4f000112
:104f0800fb4f00014d4f00017b68042b02d06ff06e
:104f18000e039ae0bb681b68002b08d0012b0dd14b
:104f28004c4b1b6823f002034a4a136009e0494bc3
:104f38001b6843f00203474a136002e06ff00e0358
:104f480083e081e07b68012b02d06ff00e037ce0e8
:104f5800bb681b78012b10d0022b1bd0002b26d14d
:104f68003c4b1b6823f004033a4a1360394b1b6817
:104f780023f00803374a13601ce0364b1b6843f0e4
:104f88000403344a1360334b1b6843f00803314a67
:104f980013600fe02f4b1b6843f004032d4a136086
:104fa8002c4b1b6823f008032a4a136002e06ff0b9
:104fb8000e034ae048e07b68042b02d06ff00e0332
:104fc80043e0bb681b68002b08d0012b0dd1214b97
:104fd8001b6843f010031f4a136009e01d4b1b6850
:104fe80023f010031b4a136002e06ff00e032ce05d
:104ff8002ae07b68002b14d07b68142b1dd1154b3d
:105008001b6843f04003134a1360134abb681446f5
:105018001d4628686968aa68eb680fc4286920607b
:105028000ee00c4b1b6823f040030a4a136014225d
:105038000021094837f08afd02e06ff00e0304e012
:1050480002e06ff00e0300e0002318461037bd465b
:10505800b0bd00bfd0cb00204cc90020b0b485b093
:1050680000af0346b9607a60fb73bb68002b02d1be
:105078006ff00e037de0fb7b032b76d801a252f87c
:1050880023f000bf9d5000010f5100013351000172
:10509800cb5000017b681b68032b02d86ff00e030e
:1050a80067e07b6804221a60344b1b6803f0020334
:1050b800002b0cbf01230023dbb21a46bb681a6021
:1050c80056e07b681b68002b02d16ff00e0350e09e
:1050d8007b6801221a60294b1b6803f00403002b2c
:1050e80003d1bb6800221a7042e0244b1b6803f00e
:1050f8000803002b03d0bb6801221a7038e0bb6894
:1051080002221a7034e07b681b68032b02d86ff008
:105118000e032ee07b6804221a60184b1b681b09db
:1051280003f00102bb681a6022e0144b1b6803f00d
:105138004003002b15d07b681b68132b02d86ff037
:105148000e0316e07b6814221a60bb680c4a1d46e1
:1051580014460fcc28606960aa60eb60206828615b
:1051680006e07b6800221a6002e06ff00e0300e0a0
:10517800002318461437bd46b0bc7047d0cb00207a
:105188004cc90020b0b598b004af0346b9607a6046
:10519800fb73f12387f84f307b68002b00f0d78032
:1051a8007b681b68002b02d17b6800229a817b6890
:1051b8005b68002b00f0cb807b689b68002b00f0bd
:1051c800c6807b689b891a467b68db891344642bfd
:1051d80000f2bd807b681b8ab3f5807f00f2b78040
:1051e8007b689a897b68db8913449ab27b681b8a3f
:1051f80013449bb22c33a7f84630b7f84620f87b07
:1052080007f110030093bb680421fff79efc0346d7
:1052180087f84f3097f94f30002b40f09880b7f857
:10522800463018461af05ff838643b6c002b00f0e3
:105238008b803b6c2c33bb64b7f846301a46002190
:10524800386c37f083fc3b6c01221a707b689b7cbe
:10525800002b06d03b6c1b7863f07f03dab23b6c03
:105268001a707b68db7c002b06d03b6c1b7843f004
:105278004003dab23b6c1a703b6c2c22da70374b65
:105288001a683b6c5a623b6c0c33354a1d4614460f
:105298000fcc28606960aa60eb60206828613b6ccd
:1052a80000225a707b681b68002b12d07b689b8990
:1052b800dab23b6c5a707b6819683b6c5b781a46ab
:1052c800b86c37f09ef93b6c5b781a46bb6c13449c
:1052d800bb647b68db89dab23b6c9a707b6859687f
:1052e8003b6c9b781a46b86c37f08bf93b6c9b7813
:1052f8001a46bb6c1344bb643b6c2c33ba6cd31a90
:105308009ab23b6c9a807b681a8a3b6cda807b681d
:1053180099683b6cdb881a46b86c37f072f907f16c
:10532800100230230293b7f8463001933b6c009388
:105338003023bb2101200df021fa034687f84f30b6
:10534800386c19f0dcff02e0fd2387f84f3097f93d
:105358004f3018465037bd46b0bd00bfd0cb0020f7
:105368004cc90020b0b59ab004af0346b9607a6062
:10537800fb73f12387f857307b68002b00f03a81e4
:105388007b681b68002b02d17b6800229a827b68ad
:105398005b68002b00f02e817b689b68002b00f077
:1053a80029817b68db68002b00f024817b681b69fe
:1053b800002b00f01f817b689b8a1a467b68db8a7a
:1053c8001344642b00f216817b681b8bb3f5807f36
:1053d80000f210817b685b8bb3f5c66f00f20a811f
:1053e8007b689a8a7b68db8a13449ab27b681b8b3a
:1053f8005b009bb213449ab27b685b8b13449bb2ed
:105408002c33a7f84e30b7f84e20f87b07f110037d
:105418000093bb680421fff798fb034687f85730d1
:1054280097f95730002b40f0e5807b685b8bb7f825
:105438004e20d31aa7f84c30b7f84c30184619f05c
:1054480052ffb864bb6c002b00f0d18007f1400319
:1054580000221a605a60bb6c2c333b65b7f84c309d
:105468001a460021b86c37f071fbbb6c02221a7027
:105478007b681b7f002b06d0bb6c1b7863f07f0317
:10548800dab2bb6c1a707b685b7f002b06d0bb6cf2
:105498001b7843f04003dab2bb6c1a70bb6c2c2249
:1054a800da70574b1a68bb6c5a62bb6c0c33554a9e
:1054b8001d4614460fcc28606960aa60eb6020681e
:1054c8002861bb6c00225a707b681b68002b12d0c5
:1054d8007b689b8adab2bb6c5a707b681968bb6cb4
:1054e8005b781a46386d37f08cf8bb6c5b781a46d7
:1054f8003b6d13443b657b68db8adab2bb6c9a7000
:105508007b685968bb6c9b781a46386d37f079f818
:10551800bb6c9b781a463b6d13443b65bb6c2c33c4
:105528003a6dd31a9ab2bb6c9a807b681a8bbb6ca3
:10553800da807b689968bb6cdb881a46386d37f06f
:1055480060f8bb6cdb881a463b6d13443b657b688f
:10555800d968bb6cdb881a46386d37f052f8bb6cdb
:10556800db881a463b6d13443b65bb6c2c333a6da4
:10557800d31a9ab2bb6c1a817b685a8bbb6c5a815e
:10558800012387f84030bb6c1b89a7f84430bb6cfb
:105598005b89a7f846307b681b697a68528b07f1ec
:1055a8004000082102910192009308230246bc2181
:1055b80001200df0e3f8034687f8573097f9573084
:1055c800002b10d107f1100230230293b7f84c30aa
:1055d8000193bb6c00933023bb2101200df0cef862
:1055e800034687f85730b86c19f089fe02e0fd23ae
:1055f80087f8573097f9573018465837bd46b0bd29
:10560800d0cb00204cc9002080b586b002aff8602e
:105618007b600b46fb721346bb72ba7af97a002399
:1056280001933b8b00937b68f86800f005f803460c
:1056380018461037bd4680bd80b594b000aff860fd
:105648007b600b46fb721346bb72f12387f84f3021
:105658000023bb63fb68fb63fb7a87f84030b7f82d
:105668005830dbb287f8413097f85c30002b01d016
:10567800002300e0022387f84e30fb7a202b0ed857
:1056880008e0fa6bfb7a13441b78002b02d1fb7af3
:1056980087f84030fb7a5a1efa72002bf1d1bb7a98
:1056a800013b032b00f2908001a252f823f000bfc7
:1056b800c9560001e156000137570001755700012e
:1056c80007f1380297f84e3011461846fff72efbbf
:1056d800034687f84f307ee07b68002b76d00023a6
:1056e800fb6200233b63002387f83430786837f087
:1056f80035fa0346a7f84c30b7f84c30402b02d1a6
:105708007b68fb6206e07b683b63b7f84c30dbb232
:1057180087f8343007f12c0207f1380197f84e303a
:105728001846fff741fb034687f84f304ee07b6889
:10573800002b4dd07b68bb64bb6c02337b62bb6cb7
:105748005b78013bdbb287f82830bb6c1b7887f8a5
:10575800293007f1240207f1380197f84e3018462e
:10576800fff713fb034687f84f3031e07b68002bc7
:1057780030d07b687b6407f1100300221a605a60fe
:105788009a60da601a617b6c7b617b6c1533bb6154
:105798007b6c184637f0e2f903469bb2fb837b6cbf
:1057a8001533184637f0daf903469bb23b8407f104
:1057b800100207f1380197f84e301846fff7e2fc5f
:1057c800034687f84f3005e000bf04e000bf02e061
:1057d80000bf00e000bf97f94f3018465037bd466c
:1057e80080bd80b584b004af0023029300230193e9
:1057f80000230093002300222b2101200cf0beff80
:1058080003461846bd4680bd80b588b004af7860b1
:105818007a6807f108031068186092889a8007f17f
:105828000802002302930023019300230093082316
:10583800022101200cf0a2ff034618461037bd468e
:1058480080bd80b586b004af78607b689a687b6855
:105858009a607b685a687b685a607b681a687b68bc
:105868001a607b681a697b681a6100230293002317
:1058780001930023009318237a680a2102200cf070
:105888007dff034618460837bd4680bd80b588b001
:1058980004af0346fb71fb79002b01d00b2300e01a
:1058a8000c23fb73f97b002302930023019300234d
:1058b80000930023002202200cf060ff03461846e4
:1058c8001037bd4680bd80b586b004af7860002330
:1058d8000293002301930023009304237a6839215b
:1058e80001200cf04bff034618460837bd4680bd23
:1058f80080b588b004af7860f423fb737b68002b15
:1059080016d07b681b78fa2b12d87b681b789bb261
:1059180001339ab2002302930023019300230093da
:1059280013467a688f2101200cf028ff0346fb7389
:1059380097f90f3018461037bd4680bd80b588b03e
:1059480004af7860f423fb737868fef7d9fe03464a
:10595800002b0dd100230293002301930023009311
:1059680004237a68142101200cf008ff0346fb7316
:1059780097f90f3018461037bd4680bd80b588b0fe
:1059880004af0346fb71f423fb730023bb60fb7970
:10599800012b24d8fb793b7207f1080200230293fc
:1059a800002301930023009304236b2101200cf0b2
:1059b800e5fe0346fb7326f041fe0346012b10d992
:1059c80026f010fe034618463b7a002b01d0084b00
:1059d80000e0084b1a46084912f096fc01e0f12352
:1059e800fb7397f90f3018461037bd4680bd00bfce
:1059f80050e5010154e5010158e5010180b588b081
:105a080004af0346fb80f423fb73fb883b8107f15b
:105a18000802002302930023019300230093042328
:105a2800152101200cf0aafe0346fb7397f90f30ed
:105a380018461037bd4680bd80b588b004af034610
:105a4800fb710023fb731a4b1b78dbb2002b24d1ac
:105a5800fb79002b02d0fb790e2b02d9fb79ff2ba7
:105a680018d1fb793b7207f1080200230293002347
:105a78000193002300930423102101200cf07efee3
:105a88000346fb7397f90f30002b09d1084b01220d
:105a98001a7005e0f123fb7303e0f223fb7300e0c7
:105aa80000bf97f90f3018461037bd4680bd00bfbc
:105ab80048c9002080b588b004af03460a46fb7188
:105ac8001346bb800023fb731a4b1b78dbb2002bf9
:105ad80026d1fb79002b02d0fb790e2b02d9fb795a
:105ae800ff2b1ad1fb793b72bb887b8107f1080237
:105af800002302930023019300230093042323210e
:105b080001200cf03bfe0346fb7397f90f30002b86
:105b180009d1084b01221a7005e0f123fb7303e059
:105b2800f223fb7300e000bf97f90f3018461037d7
:105b3800bd4680bd48c9002080b58ab004af034681
:105b48003960fb71f123fb752b4b1b78dbb2002b03
:105b580048d1fb79002b02d0fb790e2b02d9fb79b7
:105b6800ff2b43d13b68002b40d00023bb82bb8a6c
:105b78003a6813441b78fb74fb7c042b36d8bb8a29
:105b88000133bb8212e0bb8a3a6813441b78202b8e
:105b98002bd8bb8a3a6813441b789ab2bb8a134441
:105ba8009bb20133bb82fb7c013bfb74fb7c002b6b
:105bb800e9d1fb793b7307f10c0204230293bb8afa
:105bc80001933b6800930423a12101200cf0d6fd2a
:105bd8000346fb7597f91730002b07d1064b0122b6
:105be8001a7003e0f223fb7500e000bf97f9173045
:105bf80018461837bd4680bd48c9002080b58ab010
:105c080004af03463960fb71104b00221a70fb7910
:105c18003b73fb79002b06d13a6807f10d03116835
:105c2800526819605a6007f10c020023029300239e
:105c38000193002300930c232f2101200cf09efddb
:105c4800034618461837bd4680bd00bf48c9002026
:105c580080b586b004af0023fb71002302930023b4
:105c680001930023009300230022312101200cf02e
:105c780085fd0346fb7197f9073018460837bd467e
:105c880080bd80b584b000af0346fb710023fb7371
:105c980026f0d4fc0346002b06d026f0a3fc0346ce
:105ca8000449184612f030fb97f90f3018461037a0
:105cb800bd4680bd80e5010180b584b000af0346d4
:105cc800fb710023fb7326f0b9fc0346002b06d0ba
:105cd80026f088fc03460549184612f015fb97f98b
:105ce8000f3018461037bd4680bd00bf80e5010162
:105cf80080b588b004af0346fb710023fb73fb79c2
:105d0800012b05d0fb79062b02d0fb790b2b11d187
:105d1800fb793b7207f108020023029300230193e9
:105d28000023009304235b2101200cf027fd034688
:105d3800fb730de026f082fc0346002b06d026f00c
:105d480051fc03460549184612f0defaf423fb73aa
:105d580097f90f3018461037bd4680bda0e5010100
:105d680080b586b004af0023fb71002302930023a3
:105d7800019300230093002300225c2101200cf0f2
:105d8800fdfc0346fb7197f9073018460837bd46f6
:105d980080bd80b5a8b000af78607a6807f10c03c1
:105da80011468822184636f02cfc7b6841331b6864
:105db800c7f894307b6841331b68c7f898300023d4
:105dc80087f89c3007f10c03184600f005f80346e5
:105dd8001846a037bd4680bd80b588b004af78604e
:105de800f423fb737868fef7d5fb0346002b0dd12f
:105df80000230293942301937b68009300230022dd
:105e0800c62101200cf0bafc0346fb7397f90f304a
:105e180018461037bd4680bd80b588b004af78609d
:105e2800f423fb737b68002b0dd00023029300231f
:105e380001930023009304237a68222101200cf0a7
:105e48009dfc0346fb7397f90f3018461037bd4683
:105e580080bd80b586b004af0023fb710023029398
:105e680000230193002300930023002247210120ef
:105e78000cf084fc0346fb7197f907301846083785
:105e8800bd4680bd80b586b004af0023fb710023fa
:105e9800029300230193002300930023002203218f
:105ea80001200cf06bfc0346fb7197f9073018468c
:105eb8000837bd4680bd80b588b004af78600b4612
:105ec8007b80ff23fb737b68002b15d07b88002b1e
:105ed80012d07b883b810e237b8107f108021a23ad
:105ee80002937b8801937b68009304239c21012003
:105ef8000cf044fc0346fb7397f90f301846103733
:105f0800bd4680bd80b584b000af7860396000239d
:105f1800fb730cf069fb0346fb7397f90f30002bfa
:105f28000dd1396878680af0b7fe0346fb7397f914
:105f38000f30002b03d10cf0b9fb0346fb7397f924
:105f48000f3018461037bd4680bd80b584b000af0d
:105f580078600023fb730cf047fb0346fb7397f94b
:105f68000f30002b0cd178680af014ff0346fb733e
:105f780097f90f30002b03d10cf098fb0346fb7305
:105f880097f90f3018461037bd4680bd80b588b0e8
:105f980004af0346fb710023fb73fb793b7207f1e7
:105fa8000802002302930023019300230093042393
:105fb800122101200cf0e2fb0346fb7397f90f3026
:105fc80018461037bd4680bd80b400af034b1b7820
:105fd800dbb21846bd465df8047b704740c9002017
:105fe80080b500af0cf040fb0346184680bd80b575
:105ff80088b004af03460a46fb711346bb71002301
:10600800fb73fb793b72bb797b7207f108020023b3
:106018000293002301930023009304232d210120e0
:106028000cf0acfb0346fb7326f008fb0346012b80
:1060380008d926f0d7fa03461846fb791a460649c6
:1060480012f062f9fb7918460cf0fefa97f90f3056
:1060580018461037bd4680bdd4e5010180b588b02b
:1060680004af78600023fb730cf0fefa0346bb73a1
:10607800bb7b042b10d17b68bb6007f108020023af
:106088000293002301930023009304233a21012063
:106098000cf074fb0346fb7397f90f301846103762
:1060a800bd4680bd80b592b004af78600b46fb70ea
:1060b800fb782f2b01d93023fb70fb780133fb7061
:1060c800fa7807f108037968184636f09afa07f162
:1060d8000802002302930023019300230093302336
:1060e800072101200cf04afb034618463837bd4605
:1060f80080bd80b590b004af78600b46fb70134646
:10610800bb70fb78202b02d96ff00b031ee0fa78e6
:1061180007f10c037968184636f073fafb7807f133
:1061280030021344002203f8242cbb7887f82d3062
:1061380007f10c020023029300230193002300932c
:106148002423252101200cf019fb0346184630377b
:10615800bd4680bd80b500af0af00ef9034618466b
:1061680080bd80b584b000af78600023fb730cf06d
:106178003bfa0346fb7397f90f30002b06d178687a
:1061880010f0a6fa0346fb730cf090fa97f90f305b
:1061980018461037bd4680bd80b5aab000aff8607c
:1061a800b9601346fb71fa6807f114031146882297
:1061b800184636f026fafb6841331b68c7f89c304e
:1061c800fb6841331b68c7f8a030002387f8a43068
:1061d800fa7907f11403b968184600f005f8034680
:1061e8001846a837bd4680bdf0b5c1b004aff86009
:1061f800b9601346fb71f42387f8ef30fb68002b76
:1062080054d0f868fef7c6f90346002b51d1fa6856
:1062180007f1140311468822184636f0f2f9fb6894
:1062280003f1880207f1dd0310685168926818606d
:1062380059609a60bb681b78002b02d0bb68002ba2
:106248000cd126f0fbf90346002b31d026f0caf911
:1062580003461b49184612f057f82ae0bb681c464b
:1062680007f19c0604f1400c354623461868596826
:106278009a68db680fc5103410366445f4d1fb7991
:1062880087f8dc300f4b00221a7007f11402002344
:1062980002930023019300230093d823882101202f
:1062a8000cf06cfa034687f8ef3002e000bf00e01c
:1062b80000bf97f9ef301846f437bd46f0bd00bf70
:1062c800e4e5010148c9002080b584b004af00238b
:1062d80002930023019300230093002300220a2144
:1062e80001200cf04bfa03461846bd4680bd80b528
:1062f80084b004af0023029300230193002300938a
:1063080000230022052101200cf038fa0346184624
:10631800bd4680bd80b586b004af78603a1d0023c5
:106328000293002301930023009308230b210120eb
:106338000cf024fa034618460837bd4680bd80b5e0
:1063480084b004af00230293002301930023009339
:10635800002300221a2101200cf010fa03461846e7
:10636800bd4680bd80b588b004af0346fb71fb799c
:10637800002b01d00c2300e00d23fb73f97b0023d5
:10638800029300230193002300930023002201209d
:106398000cf0f4f9034618461037bd4680bd80b5a9
:1063a80088b004af0346fb710023fb73fb793b7293
:1063b80007f10802002302930023019300230093ae
:1063c8000423162101200cf0d9f90346fb7397f931
:1063d8000f3018461037bd4680bd80b588b004af71
:1063e8000346fb710023fb73fb793b7207f108023c
:1063f8000023029300230193002300930423172111
:1064080001200cf0bbf90346fb7397f90f301846cf
:106418001037bd4680bd80b588b004af0346fb7118
:106428000023fb73fb793b7207f1080200230293f8
:1064380000230193002300930423262101200cf05c
:106448009df90346fb7397f90f3018461037bd4680
:1064580080bd80b588b004af0346fb710023fb7391
:10646800fb793b7207f10802002302930023019392
:10647800002300930423192101200cf07ff903461f
:10648800fb7397f90f3018461037bd4680bd80b5ad
:1064980088b004af0346fb800023fb730023bb6076
:1064a800fb883b8107f10802002302930023019334
:1064b800002300930423182101200cf05ff9034600
:1064c800fb7397f90f3018461037bd4680bd80b56d
:1064d8008ab004af78600b467b80f423fb7507f124
:1064e8000c0300221a605a607b8840f22c629342a7
:1064f80016d87b68002b13d07b883b827b68fb60b7
:1065080007f10c0200230293002301930023009358
:1065180008239f2101200cf031f90346fb750de09b
:1065280026f08cf80346002b08d026f05bf80346cb
:1065380018467b881a46044911f0e6fe97f9173089
:1065480018461837bd4680bdfce5010180b588b006
:1065580004af7860f423fb730023029300230193b4
:10656800002300930c237a68242101200cf006f9fb
:106578000346fb7397f90f3018461037bd4680bda8
:10658800f0b58bb004af78600b46fb70f423fb7555
:106598007b68002b32d0fb78bb747a6807f10c0358
:1065a8001068186092889a8026f048f80346032bf2
:1065b80015d926f017f803461c463b7b1d467b7b06
:1065c8001e46bb7bfa7b397c787c03900291019252
:1065d800009333462a460c49204611f095fe07f1f0
:1065e8000c02002302930023019300230093082345
:1065f8001e2101200cf0c2f80346fb7597f91730ed
:1066080018461c37bd46f0bd34e6010180b584b09c
:1066180000af78600b467b800023fb737b68002b00
:1066280006d00d4a7b6813600c4a7b8813800de006
:10663800f423fb7326f002f80346002b06d025f05e
:10664800d1ff03460649184611f05efe97f90f3050
:1066580018461037bd4680bd64c9002068c90020af
:1066680058e6010180b584b000af786000f011f8f9
:106678000346fb7397f90f30002b04d1786800f0bc
:1066880012f80346fb7397f90f3018461037bd46ca
:1066980080bd80b500af0020fef707fafef7d7f8f7
:1066a8000346184680bd80b582b000af7860786830
:1066b800fef7e6f8034618460837bd4680bd80b4a5
:1066c80000af044b1b78dbb21846bd465df8047b6f
:1066d800704700bf41c9002080b588b004af0346a9
:1066e800fb7101233b73fb79002b02d0fb79012b53
:1066f80010d1fb797b7307f10c020023029300236e
:106708000193002300930423692101200cf036f83b
:10671800034601e06ff00e0318461037bd4680bdf2
:1067280080b586b004af00233b713a1d0023029365
:1067380000230193002300930423692101200cf016
:106748001df8034618460837bd4680bd80b588b099
:1067580004af0346fb71fb79002b02d0fb79012bb8
:1067680010d1fb793b7307f10c020023029300233d
:1067780001930023009304236a2101200bf0fefffc
:10678800034601e06ff00e0318461037bd4680bd82
:1067980080b58cb004aff860b9603b601346fb80ed
:1067a800fb889b00184615f0d3fc78617b69002ba9
:1067b8000ed0542015f0ccfcf861fb69002b03d0f7
:1067c800fb697a691a6305e0786915f061fd01e0f3
:1067d8000023fb61fb69002b13d0fa880023039385
:1067e800fb690293fb6a0193bb6a00933b68b96833
:1067f800f86800f00ef8f86900f08af80123bb6128
:1068080002e04ff0ff33bb61bb6918462037bd4635
:1068180080bd80b586b000aff860b9607a603b6033
:10682800bb6a186b7b689b001a46a52136f08ef967
:10683800bb6a1a6b7b6803f18043013b9b001344de
:106848003b613b6923f007033b61bb68002b1fd00a
:1068580000237b6112e0ba687b6913441978ba6a2d
:106868007b69134434330a461a70ba687b69134447
:106878001b78002b06d07b6901337b617b690f2b6a
:10688800e9d900e000bfbb6a002283f8432003e097
:10689800bb6a002283f834203b6a042b01d9042305
:1068a8003b62bb6a3a6ada62bb6a3a6a5a64bb6a92
:1068b80000229a64bb6a0433184620f0e7fabb6ae0
:1068c8001833184620f0e2fabb6aba6a1a613b6ac2
:1068d800c3f10502bb6a9a61bb6aba6a5a62bb6aab
:1068e8000022da64bb6a002283f850203a68f9680b
:1068f800386915f001fa0246bb6a1a607b6a002bf8
:1069080002d07b6aba6a1a6000bf1837bd4680bddc
:1069180080b582b000af786015f095fa2a4b1b68f5
:106928000133294a1360294b1b68002b09d1274ad8
:106938007b681360244b1b68012b10d100f074ff97
:106948000de0234b1b68002b09d1204b1b68da6a2a
:106958007b68db6a9a4202d81c4a7b6813601d4b2d
:106968001b6801331b4a13607b68db6a01229a406b
:10697800194b1b681343184a13607b68da6a13467d
:106988009b0013449b00154a1a447b68043319463c
:10699800104620f088fa15f06ffa0d4b1b68002b93
:1069a8000ed00a4b1b68da6a7b68db6a9a4207d208
:1069b8000b4b4ff080521a60bff34f8fbff36f8fae
:1069c80000bf0837bd4680bd4cbc002074bb00200a
:1069d80058bc002068bc002054bc002078bb0020b4
:1069e80004ed00e080b584b000af786015f02bfab4
:1069f8007b68002b02d1314b1b6800e07b68fb6091
:106a0800fb680433184620f0abfa0346002b15d177
:106a1800fb68da6a2a4913469b0013449b000b441f
:106a28001b68002b0ad1fb68db6a012202fa03f318
:106a3800da43244b1b681340224a1360fb689b6aa5
:106a4800002b04d0fb681833184620f089fa1e4b37
:106a58001b6801331c4a1360184b1b68fa689a427a
:106a68000bd1fb6804331946184820f01cfa184b60
:106a78001b680133164a136009e0164b1b68013b7b
:106a8800144a1360f86800f03bff00f049ff15f066
:106a9800f3f9114b1b68002b0cd0084b1b68fa68e4
:106aa8009a4207d10d4b4ff080521a60bff34f8fb7
:106ab800bff36f8f00bf1037bd4680bd74bb002089
:106ac80078bb002054bc002068bc002020bc0020fb
:106ad80034bc00204cbc002058bc002004ed00e071
:106ae80080b586b000af7860396000237b6100f024
:106af80093fa214b1b683b617b681b683a68134417
:106b0800fb607b681b683a699a420bd27b681b68fa
:106b1800fa689a4211d2fa683b699a420dd9012360
:106b28007b610ae07b681b68fa689a4203d3fa68bb
:106b38003b699a4201d901237b617b68fa681a6034
:106b48007b69002b06d0fa683b69d31a00211846e6
:106b580001f01afb00f0a8fab860bb68002b07d157
:106b6800064b4ff080521a60bff34f8fbff36f8f01
:106b780000bf1837bd4680bd50bc002004ed00e0c2
:106b880080b584b000af78600023fb607b68002b81
:106b980008d000f041fa0021786801f0f5fa00f019
:106ba80083faf860fb68002b07d1064b4ff0805240
:106bb8001a60bff34f8fbff36f8f00bf1037bd460a
:106bc80080bd00bf04ed00e080b584b000af786000
:106bd80015f039f97b68002b02d1074b1b6800e0e0
:106be8007b68fb60fb68db6abb6015f045f9bb6836
:106bf80018461037bd4680bd74bb002080b489b0ec
:106c080000af7860eff311824ff0200383f311880f
:106c1800bff36f8fbff34f8f3a61fb603b69fb6136
:106c28007b68002b02d10a4b1b6800e07b68bb61c4
:106c3800bb69db6a7b61fb69bb60bb6883f3118856
:106c48007b6918462437bd465df8047b704700bf52
:106c580074bb002080b586b000af7860396000232f
:106c68007b613b68042b01d904233b6015f0ebf8ea
:106c78007b68002b02d1414b1b6800e07b683b61bd
:106c88003b695b6cfb60fa683b689a426fd03a6874
:106c9800fb689a420dd9394b1b683a699a420fd062
:106ca800364b1b68db6a3a689a4209d301237b6139
:106cb80006e0324b1b683a699a4201d101237b6195
:106cc8003b69db6abb603b695a6c3b69db6a9a4289
:106cd80002d13b693a68da623b693a685a643b69af
:106ce8009b69002b04db3b68c3f105023b699a6191
:106cf8003b695969ba6813469b0013449b00204ab4
:106d08001344994228d13b690433184620f028f9e6
:106d18000346002b09d10122bb6802fa03f3da43c8
:106d2800184b1b681340174a13603b69db6a012242
:106d38009a40144b1b681343124a13603b69da6a82
:106d480013469b0013449b000d4a1a443b690433c5
:106d58001946104620f0a7f87b69002b07d00a4b8c
:106d68004ff080521a60bff34f8fbff36f8f15f04b
:106d780083f800bf1837bd4680bd00bf74bb002034
:106d880078bb002054bc002004ed00e080b584b03e
:106d980000af786015f057f87b68002b02d1354baf
:106da8001b6800e07b68fb60fb680433184620f032
:106db800d7f80346002b15d1fb68da6a2e4913462b
:106dc8009b0013449b000b441b68002b0ad1fb68f3
:106dd800db6a012202fa03f3da43284b1b681340eb
:106de800264a1360fb689b6a002b04d0fb681833a3
:106df800184620f0b5f8fb6804331946204820f0ff
:106e080052f8fb6893f85030dbb2012b03d1fb68d2
:106e1800002283f8502015f02ff81a4b1b68002b1e
:106e280005d015f010f800f07bfd15f025f8114b92
:106e38001b68fa689a4218d1124b1b68002b08d0bd
:106e4800114b4ff080521a60bff34f8fbff36f8f13
:106e58000be00b4b1a680d4b1b689a4203d1054b8c
:106e680000221a6001e000f0cbfa00bf1037bd46df
:106e780080bd00bf74bb002078bb002054bc00203c
:106e880038bc002058bc002004ed00e04cbc0020b9
:106e980080b485b000af78600023fb607b68bb607e
:106ea800bb685b690a4a93420ad1bb689b6a094a74
:106eb800934205d0bb689b6a002b01d10123fb607c
:106ec800fb6818461437bd465df8047b704700bf61
:106ed80038bc00200cbc002080b584b000af7860be
:106ee8007b68fb60204b1b68fa689a4237d0fb68c6
:106ef800002b34d014f0a7fff868fff7c9ff03464a
:106f0800002b2ad0fb680433184620f029f8fb68c8
:106f1800db6a01229a40154b1b681343134a13601e
:106f2800fb68da6a13469b0013449b00104a1a4414
:106f3800fb680433194610461ff0b5fffb68da6a90
:106f4800094b1b68db6a9a4207d30a4b4ff0805201
:106f58001a60bff34f8fbff36f8f14f08dff00bf20
:106f68001037bd4680bd00bf74bb002054bc002054
:106f780078bb002004ed00e080b584b002af144b6c
:106f880001930023009300234ff4807211491248a3
:106f9800fff7fefb78607b68012b14d14ff02003cc
:106fa80083f31188bff36f8fbff34f8f3b600b4b99
:106fb8004ff0ff321a600a4b01221a60094b002277
:106fc8001a6014f00eff00bf0837bd4680bd00bf31
:106fd80070bc002090d003017d7700016cbc0020bc
:106fe80058bc002050bc002080b582b000af4ff0e4
:106ff800200383f31188bff36f8fbff34f8f7b603c
:10700800044b00221a6014f017ff00bf0837bd4672
:1070180080bd00bf58bc002080b400af044b1b6883
:107028000133034a136000bfbd465df8047b704717
:1070380074bc002080b485b000af0023bb6001237e
:107048007b60144b1b687a689a4201d20123bb60ab
:10705800114b1b68db6a002b02d00023fb6012e097
:107068000e4b1b68012b02d90023fb600be0bb68a9
:10707800002b02d00023fb6005e0094b1a68094b7e
:107088001b68d31afb60fb6818461437bd465df8c9
:10709800047b704754bc002074bb002078bb0020e0
:1070a8006cbc002050bc002080b584b000af002329
:1070b800fb600023bb6014f0c6fe394b1b68013b24
:1070c800374a1360364b1b68002b61d1354b1b6860
:1070d800002b5dd02ee0344bdb68db68fb60fb687f
:1070e800183318461ff03cfffb68043318461ff09e
:1070f80037fffb68db6a01229a402c4b1b6813435d
:107108002a4a1360fb68da6a13469b0013449b0003
:10711800274a1a44fb680433194610461ff0c3fe79
:10712800fb68da6a234b1b68db6a9a4202d3224b5c
:1071380001221a601c4b1b68002bccd1fb68002b6a
:1071480001d000f0edfb1d4b1b687b607b68002bba
:1071580010d000f0a5f80346002b02d0164b0122f0
:107168001a607b68013b7b607b68002bf1d1134b75
:1071780000221a60104b1b68002b09d00123bb604a
:107188000f4b4ff080521a60bff34f8fbff36f8fd2
:1071980014f072febb6818461037bd4680bd00bfac
:1071a80074bc00204cbc00200cbc002054bc002047
:1071b80078bb002074bb002060bc00205cbc0020b1
:1071c80004ed00e080b483b000af054b1b687b6022
:1071d8007b6818460c37bd465df8047b704700bfd6
:1071e80050bc002080b483b000af00237b60054b07
:1071f8001b683b603b6818460c37bd465df8047b4e
:10720800704700bf50bc002080b400af034b1b6820
:107218001846bd465df8047b704700bf4cbc002093
:1072280080b485b000af78607b68002b02d1064b34
:107238001b6800e07b68fb60fb6834331846143732
:10724800bd465df8047b704774bb002080b483b0f2
:1072580000af7860054b1a687b681344034a1360d3
:1072680000bf0c37bd465df8047b704750bc00205a
:1072780080b584b000af78600023fb60fff7ccfed8
:10728800064b1a687b681344044a1360fff70cff27
:10729800f860fb6818461037bd4680bd5cbc00200e
:1072a80080b586b000af00237b614a4b1b68002b7a
:1072b80040f08480484b1b6801333b61464a3b6978
:1072c80013603b69002b10d1444b1b68fb60444b97
:1072d8001b68424a1360424afb681360414b1b68b3
:1072e8000133404a136000f01bfb3f4b1b683a69af
:1072f8009a4248d3394b1b681b68002b04d13a4b80
:107308004ff0ff321a603ee0344b1b68db68db68e5
:10731800bb60bb685b687b603a697b689a4203d252
:10732800314a7b6813602ee0bb68043318461ff0af
:1073380017febb689b6a002b04d0bb68183318463d
:107348001ff00efebb68db6a01229a40274b1b68c0
:107358001343264a1360bb68da6a13469b0013443a
:107368009b00234a1a44bb680433194610461ff091
:107378009afdbb68da6a1f4b1b68db6a9a42b9d36d
:1073880001237b61b6e71b4b1b68da6a1849134671
:107398009b0013449b000b441b68012b01d901235c
:1073a8007b61154b1b68002b01d12bf0f0f8134bb8
:1073b8001b68002b09d001237b6106e00e4b1b687c
:1073c80001330d4a13602bf0e2f87b691846183731
:1073d800bd4680bd74bc002050bc002004bc002009
:1073e80008bc002064bc00206cbc002054bc0020f9
:1073f80078bb002074bb00205cbc002060bc00206f
:1074080080b586b000af2f4b1b68002b03d02e4be6
:1074180001221a6051e02c4b00221a602b4b1b688a
:107428001b6b7b614ff0a5333b617b691b683a6935
:107438009a4211d17b6904331b683a699a420bd18d
:107448007b6908331b683a699a4205d17b690c331a
:107458001b683a699a4208d01c4b1a681b4b1b6878
:107468003433194610462bf06ff8194b1b687b60b4
:107478007b68b3fa83f3fb70fb78c3f11f03fb60ef
:10748800fa6813469b0013449b00124a1344bb60de
:10749800bb685b685a68bb685a60bb685a68bb6857
:1074a80008339a4204d1bb685b685a68bb685a6063
:1074b800bb685b68db68054a136000bf1837bd46c8
:1074c80080bd00bf74bc002060bc002074bb0020dd
:1074d80054bc002078bb002080b582b000af786033
:1074e8003960074b1b681833194678681ff0fffc92
:1074f8000121386800f048fe00bf0837bd4680bd4e
:1075080074bb002080b584b000aff860b9607a60c1
:107518000a4b1b68ba6842f000429a61074b1b6825
:1075280018331946f8681ff0befc0121786800f08e
:107538002bfe00bf1037bd4680bd00bf74bb0020c6
:1075480080b584b000af78607b68db68db68bb60bf
:10755800bb68183318461ff003fd1e4b1b68002b31
:107568001ed1bb68043318461ff0fafcbb68db6aff
:1075780001229a40184b1b681343174a1360bb68d3
:10758800da6a13469b0013449b00144a1a44bb68ea
:107598000433194610461ff086fc00f0c1f905e0d7
:1075a800bb68183319460e481ff07dfcbb68da6ac1
:1075b8000c4b1b68db6a9a4205d90123fb600a4b16
:1075c80001221a6001e00023fb60fb6818461037af
:1075d800bd4680bd74bc002054bc002078bb002090
:1075e8000cbc002074bb002060bc002080b584b0b7
:1075f80000af786039603b6843f000427b681a60ee
:107608007b68db68fb6078681ff0aafc00f088f9eb
:10761800fb68043318461ff0a3fcfb68db6a0122f1
:107628009a40104b1b6813430e4a1360fb68da6ad2
:1076380013469b0013449b000b4a1a44fb6804330f
:10764800194610461ff02ffcfb68da6a074b1b68c7
:10765800db6a9a4202d9064b01221a6000bf103732
:10766800bd4680bd54bc002078bb002074bb002000
:1076780060bc002080b582b000af786014f0e3fbf6
:10768800064b1a687b681a60054b1a687b685a6053
:1076980014f0f2fb00bf0837bd4680bd64bc002073
:1076a80050bc002080b483b000af7860064b1a68e5
:1076b8007b681a60054b1a687b685a6000bf0c37f4
:1076c800bd465df8047b704764bc002050bc0020b8
:1076d80080b586b000af7860396014f0b4fb1d4bfc
:1076e8001b683b617b685b683a69d31afb603b683f
:1076f8001b68b3f1ff3f02d100237b6123e07b6865
:107708001a68154b1b689a4207d07b685b683a6910
:107718009a4202d301237b6115e03b681b68fa6833
:107728009a420bd23b681a68fb68d21a3b681a6007
:107738007868fff7b7ff00237b6104e03b6800220d
:107748001a6001237b6114f097fb7b691846183790
:10775800bd4680bd50bc002064bc002080b400af92
:10776800034b01221a6000bfbd465df8047b7047d9
:1077780060bc002080b584b000af786000f094f859
:10778800104b1b68012b07d90f4b4ff080521a6022
:10779800bff34f8fbff36f8f2af0f2fefff74afc5b
:1077a800f860fb68042be9d9fff736fcfff742fcc9
:1077b800f860fb68042b02d9f86814f0c9fbfff7de
:1077c80073fcdbe778bb002004ed00e080b483b0f5
:1077d80000af01233b600123fb710f4b1b68002b9b
:1077e80002d00023fb7110e00c4b1b68002b02d069
:1077f8000023fb7109e00a4b1a680a4b19683b68b9
:10780800cb1a9a4201d10223fb71fb7918460c3737
:10781800bd465df8047b70470cbc002060bc0020ae
:1078280038bc00204cbc002080b582b000af0023db
:107838007b600ce07a6813469b0013449b00124a55
:10784800134418461ff002fb7b6801337b607b689a
:10785800042befd90d481ff0f9fa0d481ff0f6fa7e
:107868000c481ff0f3fa0c481ff0f0fa0b481ff011
:10787800edfa0b4b054a1a600a4b054a1a6000bf1d
:107888000837bd4680bd00bf78bb0020dcbb0020a8
:10789800f0bb00200cbc002020bc002038bc00201d
:1078a80004bc002008bc002080b582b000af19e0fd
:1078b80014f0c9fa0f4bdb68db687b607b68043324
:1078c80018461ff04dfb0c4b1b68013b0a4a13601e
:1078d8000a4b1b68013b094a136014f0cdfa78681b
:1078e80000f00ef8054b1b68002be1d100bf0837ec
:1078f800bd4680bd20bc00204cbc002034bc00200c
:1079080080b582b000af78607b681b6b184614f0b6
:10791800bffc786814f0bcfc00bf0837bd4680bdca
:1079280080b483b000af0c4b1b681b68002b04d1dc
:107938000a4b4ff0ff321a6008e0074b1b68db6800
:10794800db687b607b685b68044a136000bf0c37a8
:10795800bd465df8047b704704bc00206cbc002069
:1079680080b483b000af054b1b687b607b6818460a
:107978000c37bd465df8047b704700bf74bb002020
:1079880080b584b000af78607b68bb600023fb6083
:107998007b68002b5ed0bb68da6a314b1b68db6af8
:1079a8009a424ed2bb689b69002b06db2c4b1b68a6
:1079b800db6ac3f10502bb689a61bb685969bb6899
:1079c800da6a13469b0013449b00264a13449942e3
:1079d8002fd1bb68043318461ff0c2fa0346002ba8
:1079e8000ad1bb68db6a012202fa03f3da431e4bb1
:1079f8001b6813401c4a1360194b1b68da6abb6882
:107a0800da62bb68db6a01229a40174b1b68134392
:107a1800154a1360bb68da6a13469b0013449b003f
:107a2800104a1a44bb680433194610461ff03bfa43
:107a380004e00b4b1b68da6abb68da620123fb605f
:107a480008e0bb685a6c064b1b68db6a9a4201d295
:107a58000123fb60fb6818461037bd4680bd00bf98
:107a680074bb002078bb002054bc002080b584b0d3
:107a780000af78607b68bb600023fb607b68002bed
:107a88004fd0bb689b6c5a1ebb689a64bb68da6aa5
:107a9800bb685b6c9a4244d0bb689b6c002b40d19e
:107aa800bb68043318461ff05bfa0346002b15d158
:107ab800bb68da6a1d4913469b0013449b000b44bc
:107ac8001b68002b0ad1bb68db6a012202fa03f3a8
:107ad800da43174b1b681340154a1360bb685a6c8e
:107ae800bb68da62bb68db6ac3f10502bb689a61ee
:107af800bb68db6a01229a400d4b1b6813430c4a92
:107b08001360bb68da6a13469b0013449b00074a5c
:107b18001a44bb680433194610461ff0c4f9012300
:107b2800fb60fb6818461037bd4680bd78bb002057
:107b380054bc002080b586b000af786039607b689f
:107b48003b610123fb607b68002b58d03b695b6c71
:107b58003a689a4202d93b687b6102e03b695b6cf8
:107b68007b613b69db6a7a699a4248d03b699b6cc6
:107b7800fa689a4243d13b69db6abb603b697a6920
:107b8800da623b699b69002b04db7b69c3f1050260
:107b98003b699a613b695969ba6813469b0013446b
:107ba8009b00194a1344994229d13b69043318466a
:107bb8001ff0d6f90346002b0ad13b69db6a012284
:107bc80002fa03f3da43114b1b6813400f4a1360a0
:107bd8003b69db6a01229a400c4b1b6813430b4a32
:107be80013603b69da6a13469b0013449b00064afc
:107bf8001a443b690433194610461ff054f900bf74
:107c08001837bd4680bd00bf78bb002054bc00209b
:107c180080b483b000af094b1b689b697b60074b3e
:107c28001b68da6a054b1b68c2f105029a617b681a
:107c380018460c37bd465df8047b704774bb0020be
:107c480080b400af074b1b68002b04d0054b1b68a2
:107c58009a6c01329a64034b1b681846bd465df85e
:107c6800047b704774bb002080b584b000af786097
:107c7800396014f0e8f81e4b1b68db6c002b13d13d
:107c88001b4b1b68012283f850203b68002b0bd04c
:107c98000121386800f078fa164b4ff080521a60cc
:107ca800bff34f8fbff36f8f14f0e6f814f0cbf8e3
:107cb8000f4b1b68db6cfb60fb68002b0cd07b68f0
:107cc800002b04d00a4b1b680022da6404e0084b3e
:107cd8001b68fa68013ada64054b1b68002283f8ce
:107ce800502014f0c9f8fb6818461037bd4680bd0f
:107cf80074bb002004ed00e080b586b000aff860ea
:107d0800b9607a603b6014f09ef8264b1b6893f8c4
:107d18005030dbb2022b1ad0224b1b68d96cfa68a0
:107d2800d2430a40da641f4b1b68012283f85020b3
:107d38003b68002b0bd00121386800f025fa1a4b5c
:107d48004ff080521a60bff34f8fbff36f8f14f05c
:107d580093f814f078f87b68002b04d0114b1b685b
:107d6800da6c7b681a600f4b1b6893f85030dbb2f3
:107d7800022b02d000237b6108e00a4b1b68d96cf8
:107d8800ba68d2430a40da6401237b61054b1b6859
:107d9800002283f8502014f06ff87b6918461837d2
:107da800bd4680bd74bb002004ed00e080b588b0fe
:107db80000aff860b9603b601346fb710123fb61bb
:107dc800fb68bb6114f03ff83b68002b03d0bb692c
:107dd800da6c3b681a60bb6993f85030fb75bb6975
:107de800022283f85020fb79042b28d801a252f8ec
:107df80023f000bf477e0001117e00011f7e0001b5
:107e08002b7e0001337e0001bb69da6cbb681a4324
:107e1800bb69da6414e0bb69db6c5a1cbb69da64c1
:107e28000ee0bb69ba68da640ae0fb7d022b03d076
:107e3800bb69ba68da6403e00023fb6100e000bfb5
:107e4800fb7d012b2cd1bb69043318461ff088f841
:107e5800bb69db6a01229a40154b1b681343144a1d
:107e68001360bb69da6a13469b0013449b00114aee
:107e78001a44bb690433194610461ff014f8fff77b
:107e88004ffdbb69da6a0c4b1b68db6a9a4207d95b
:107e98000a4b4ff080521a60bff34f8fbff36f8fba
:107ea80013f0eafffb6918462037bd4680bd00bfc6
:107eb80054bc002078bb002074bb002004ed00e017
:107ec80080b58cb000aff860b9603b601346fb71b9
:107ed8000123fb62fb68bb62eff311824ff02003c2
:107ee80083f31188bff36f8fbff34f8ffa61bb61c4
:107ef800fb697b623b68002b03d0bb6ada6c3b688a
:107f08001a60bb6a93f8503087f82330bb6a0222a4
:107f180083f85020fb79042b28d801a252f823f0cb
:107f2800757f00013d7f00014b7f0001577f0001f5
:107f38005f7f0001bb6ada6cbb681a43bb6ada640c
:107f480015e0bb6adb6c5a1cbb6ada640fe0bb6adb
:107f5800ba68da640be097f82330022b03d0bb6ac7
:107f6800ba68da6403e00023fb6200e000bf97f818
:107f78002330012b36d1204b1b68002b1cd1bb6a48
:107f8800043318461ef0ecffbb6adb6a01229a40f4
:107f98001a4b1b681343194a1360bb6ada6a134603
:107fa8009b0013449b00164a1a44bb6a04331946c3
:107fb80010461ef078ff05e0bb6a183319461148d1
:107fc8001ef071ffbb6ada6a0f4b1b68db6a9a42c4
:107fd80008d9bb6b002b02d0bb6b01221a600b4b7c
:107fe80001221a607b6a7b617b6983f31188fb6ad3
:107ff80018463037bd4680bd74bc002054bc0020f4
:1080080078bb00200cbc002074bb002060bc0020a2
:1080180080b588b000af786039607b68fb61eff3aa
:1080280011824ff0200383f31188bff36f8fbff3e2
:108038004f8f3a61fb603b69bb61fb6993f8503035
:10804800fb75fb69022283f85020fb69db6c5a1c24
:10805800fb69da64fb7d012b36d1204b1b68002bb2
:108068001cd1fb69043318461ef07afffb69db6af2
:1080780001229a401a4b1b681343194a1360fb6983
:10808800da6a13469b0013449b00164a1a44fb699c
:108098000433194610461ef006ff05e0fb69183345
:1080a800194611481ef0fffefb69da6a0f4b1b6880
:1080b800db6a9a4208d93b68002b02d03b68012250
:1080c8001a600b4b01221a60bb69bb60bb6883f363
:1080d800118800bf2037bd4680bd00bf74bc00209a
:1080e80054bc002078bb00200cbc002074bb0020ce
:1080f80060bc002080b584b000af78607b68002b3e
:1081080002d10e4b1b6800e07b68bb6013f09bfe3e
:10811800bb6893f85030dbb2022b06d1bb68002253
:1081280083f850200123fb6001e00023fb6013f07b
:10813800a3fefb6818461037bd4680bd74bb0020ff
:1081480080b584b000af786039607b68002b02d1bd
:108158000c4b1b6800e07b68fb6013f074fe094b56
:108168001b68db6cbb60fb68da6c3b68db431a405e
:10817800fb68da6413f080febb6818461037bd460a
:1081880080bd00bf74bb002080b584b000af7860ac
:108198003960294b1b68fb60284b1b680433184661
:1081a8001ef0defe0346002b0bd1244b1b68db6a56
:1081b800012202fa03f3da43214b1b681340204ad9
:1081c80013607b68b3f1ff3f0ad13b68002b07d0ef
:1081d8001a4b1b68043319461a481ef064fe26e041
:1081e800fa687b681344bb60144b1b68ba685a6012
:1081f800ba68fb689a4209d2134b1a680f4b1b687e
:108208000433194610461ef072fe10e00f4b1a6830
:108218000a4b1b680433194610461ef068fe0c4bc7
:108228001b68ba689a4202d2094abb68136000bf49
:108238001037bd4680bd00bf50bc002074bb002075
:1082480054bc002038bc002008bc002004bc00201e
:108258006cbc0020f0b5fbb002af02463b4619608b
:10826800fb1d1a70d44bc7f8d8313b461b68002b4e
:1082780000f0e583d7f8d8315b68002b00f0df8386
:10828800fb1d1b78043b2e2b00f2db8301a252f866
:1082980023f000bf2d8900014b8a000101880001ed
:1082a8004b8a00014b8a00010b8700014b8a0001b1
:1082b8004b8a00014b8a00014b8a00014b8a00015e
:1082c8004b8a00014b8a0001598300014b8a000147
:1082d800e78300014b8a00014b8a00014b8a0001a9
:1082e8004b8a00014b8a00014b8a00014b8a00012e
:1082f800cf8600014b8a00014b8a00014b8a00019e
:108308004b8a00014b8a00014b8a00014b8a00010d
:108318004b8a00014b8a00014b8a00014b8a0001fd
:108328004b8a00014b8a00014b8a0001c585000178
:108338004b8a0001218500014b8a00014b8a00010c
:10834800818900014b8a00014b8a000145860001a2
:108358003b461b68c7f8d431d7f8d8315b681b7a1d
:1083680083f00103dbb2002b40f06d83d7f8d831de
:108378005b6800221a72d7f8d43193f90130002bc8
:1083880027d1d7f8d8315b68d7f8d42112789a72f8
:10839800d7f8d4311b78002b07d0d7f8d8315b68d1
:1083a8005b7a1846fdf7f2fd4fe3d7f8d8315b68e2
:1083b800d3f88430002b00f04883d7f8d8315b68b5
:1083c800d3f88440d7f8d801002300220021a04721
:1083d8003be3d7f8d8315b6800229a7235e33b4615
:1083e8001b68c7f8d031d7f8d8315b6803f12d0086
:1083f800d7f8d03104330622194634f002f9d7f8f9
:10840800d8315b68012283f83320d7f8d8315b680c
:1084180003f10c00d7f8d0310a332022194634f082
:10842800f0f8d7f8d0310a33184634f097fb0246f3
:10843800d7f8d8315b68d2b283f82c20d7f8d83176
:108448005b68d7f8d02192f9012083f83620d7f855
:10845800d8315b68d7f8d021927883f83720d7f8dd
:10846800d8315b68d7f8d021d27883f83420d7f890
:10847800d8315b680122da72d7f8d8315b68d3f853
:108488008430002b00f0e382d7f8d8315b68d3f84a
:108498008440d7f8d801d7f8d8315b685b7a0133c4
:1084a800d9b2d7f8d8315b689a7ad7f8d8315b68ef
:1084b8000c33a047034687f8cf3197f8cf31002b0c
:1084c80023d0d7f8d8315b685a7a0132d2b25a72bf
:1084d800d7f8d8315b685c7afdf776fd03469c4295
:1084e8000cd2d7f8d8315b685b7a1846fdf74efd99
:1084f800d7f8d8315b680022da72a8e2d7f8d83109
:108508005b680022c3f88420a1e2d7f8d8315b6801
:108518000022c3f884209ae23b461b68c7f8c8319a
:10852800d7f8c8311b78012b1cd1d7f8d8315b6834
:108538000122da71d7f8d8315b6893f89e3083f05e
:108548000103dbb2002b1dd0d7f8d8315b68d3f814
:10855800a030002b16d0d7f8d8315b68012283f8f9
:108568009d200fe0d7f8c8311b78002b0ad1d7f827
:10857800d8315b680022da71d7f8d8315b680022fd
:1085880083f85020d7f8d8315b68d3f88830002baf
:1085980000f05f82d7f8d8315b68d3f88840d7f805
:1085a800d801d7f8d811d7f8c8311a78d7f8c83110
:1085b8005b78a0474de200bf64ba00203b461b68c9
:1085c800c7f8c431d7f8d8315b68d3f88830002ba6
:1085d80000f04182d7f8c43193f900301733032be8
:1085e8001ad801a252f823f0018600010986000179
:1085f8001186000119860001052387f8df310fe095
:10860800032387f8df310be0012387f8df3107e028
:10861800062387f8df3103e0072387f8df3100bf3f
:10862800d7f8d8315b68d3f88840d7f8d801d7f89d
:10863800d81197f8df310022a0470ce23b461b68af
:10864800c7f8c031d7f8d8315b685b7983f001038c
:10865800dbb2002b05d0d7f8d8315b68012283f84c
:108668009d20d7f8c03103331b781a06d7f8c031dc
:1086780002331b781b041a43d7f8c03101331b7827
:108688001b021a43d7f8c0311b781946d7f8d831de
:108698005b680a43c3f8a020d7f8d8315b68d3f8e1
:1086a800b430002b00f0d981d7f8d8315b68d3f803
:1086b800b430d7f8d801d7f8d8215268d2f8a0201a
:1086c80011469847c9e13b461b68c7f8bc31d7f843
:1086d800bc0118f0ddffc7f8b801d7f8d8315b68de
:1086e800d3f88c30002b00f0ba81d7f8d8315b680a
:1086f800d3f88c30d7f8d821d7f8b8111046984756
:10870800ade1d7f8d8315b68d3f8bc30002b00f066
:10871800a8813b461b68c7f8b431d7f8b43118466e
:1087280034f01cfa0346dab207f10c0383f8202070
:1087380007f10c0393f82030202b00f2948107f105
:108748000c0320220021184634f000fad7f8b4119f
:1087580007f10c0393f820301a4607f10c0318466a
:1087680033f04fffd7f8b43193f8622007f138039c
:108778001a70d7f8b43193f86230022b20d1d7f8a9
:10878800b4312133184634f0e9f90346dab207f177
:1087980038031a7107f138030533402200211846bf
:1087a80034f0d4f9d7f8b43103f1210107f13803d3
:1087b8001b791a4607f138030533184633f021ffb1
:1087c800d7f8d8315b68d3f8bc40d7f8d801d7f8c8
:1087d800b43193f86330002b0cbf01230023dbb2c4
:1087e80007f1380207f10c01a047d7f8d8315b68c8
:1087f8000022c3f8bc2034e13b461b68c7f8b031ff
:10880800d7f8b031184634f0a9f90246d7f8d8316c
:108818005b68d2b283f87120d7f8d8315b6893f8d7
:108828007130202b00f22181d7f8d8315b685133a1
:1088380020220021184634f089f9d7f8d8315b682e
:1088480003f15100d7f8b011d7f8d8315b6893f825
:1088580071301a4633f0d5fed7f8d8315b68d7f8af
:10886800b02192f8212083f88020d7f8b03193f80e
:1088780025301a06d7f8b03193f824301b041a4370
:10888800d7f8b03193f823301b021a43d7f8b03128
:1088980093f822301946d7f8d8315b680a435a67eb
:1088a800d7f8d8315b6803f17800d7f8b0312633b0
:1088b8000622194633f0a5fed7f8d8315b680122a5
:1088c80083f87e20d7f8d8315b68012283f85020de
:1088d800d7f8d8315b68d3f89030002b00f0c78008
:1088e800d7f8d8315b68d3f89040d7f8d801d7f8d3
:1088f800d811d7f8d8315b6803f15105d7f8d831ca
:108908005b6803f17406d7f8d8315b6893f8803058
:10891800d7f8b02192f92c200192009333462a46c9
:10892800a047a4e03b461b68c7f8ac31d7f8d8315c
:108938005b68d7f8ac2192f9002083f84820d7f873
:10894800d8315b68d3f89430002b00f09280d7f8c8
:10895800d8315b68d3f89430d7f8d801d7f8d82144
:10896800526892f9482011469847d7f8d8315b6881
:108978000022c3f894207ce03b461b68c7f8a83166
:10898800d7f8d8315b68d3f89830002b73d007f14b
:108998000c03184619f0acfcd7f8a8319c1cd7f882
:1089a800a8310233184634f0d9f80346dab207f191
:1089b8000c032146184619f0c0fcd7f8a8315a789c
:1089c80007f10c031146184619f01ffdd7f8a83116
:1089d8001b78012b02d0022b06d018e007f13803d0
:1089e800184613f0d5fe1de0d7f8a83103f123048b
:1089f800d7f8a8312333184634f0b0f80346dab272
:108a080007f138032146184613f0d5fe0ae0d7f8d7
:108a1800d8315b68d3f89830d7f8d8010022002104
:108a2800984729e0d7f8d8315b68d3f89830d7f859
:108a3800d80107f1380207f10c0198471be000bf85
:108a48001ae000bf18e000bf16e000bf14e000bf46
:108a580012e000bf10e000bf0ee000bf0ce000bf56
:108a68000ae000bf08e000bf06e000bf04e000bf66
:108a780002e000bf00e000bf07f5f277bd46f0bd99
:108a880080b584b000af03460a46fb711346bb713c
:108a9800204bfb60fb685b68002b34d0fb79012b13
:108aa80004d0002b31dd032b2fdc18e0fb685b685a
:108ab800d3f8c030002b07d0fb685b68d3f8c03010
:108ac800fa68b97910469847fb685b68002283f812
:108ad8009c20fb685b680022c3f8c02016e0fb6896
:108ae8005b68d3f8c430002b07d0fb685b68d3f809
:108af800c430fa68b97910469847fb685b68002269
:108b0800c3f8c42002e000bf00e000bf1037bd4634
:108b180080bd00bf64ba0020b0b5a4b000af034662
:108b28003960fb71674bc7f888303b68002b00f051
:108b3800bc80d7f888305b68002b00f0b680fb79e2
:108b4800012b1dd0062b40f0b280d7f888305b6827
:108b5800d3f8c830002b00f0ac803b68c7f88430ed
:108b6800d7f884301b68bb67d7f888305b68d3f8c0
:108b7800c830d7f8882007f178011046984798e060
:108b88003b68c7f8803007f10c03c7f88c30d7f87a
:108b980088305b68d3f8cc30002b00f08c80d7f895
:108ba80080301b8887f87f30d7f880305b683b6758
:108bb800d7f880309b687b6707f10c03642200219b
:108bc800184633f0c3ff97f87f30013b042b74d865
:108bd80001a252f823f000bff58b0001f58b0001cc
:108be8006f8c0001778c0001898c0001d7f88030e8
:108bf8000c3307f10c041d4628686968aa68eb68fd
:108c08000fc428696969aa69eb690fc4d7f880306d
:108c18002c3307f12c041d4628686968aa68eb689c
:108c28000fc428696969aa69eb690fc4d7f880304d
:108c3800b3f84c30a7f84c30d7f88030b3f84e3042
:108c4800a7f84e30d7f88030503307f150041d464e
:108c580028686968aa68eb680fc428696969aa69fd
:108c6800eb690fc411e00023c7f88c300de0d7f88a
:108c780080309b89bb81d7f88030db89fb8104e099
:108c8800d7f88030db68fb6000bfd7f888305b68b6
:108c9800d3f8cc40d7f8880007f1700297f87f1016
:108ca800d7f88c30a04700bf08e000bf06e000bf3f
:108cb80004e000bf02e000bf00e000bf9037bd46ff
:108cc800b0bd00bf64ba002090b585b000af0346c0
:108cd8003a60fb710b46bb71244bfb60fb685b6819
:108ce800002b3cd0fb685b68d033bb60bb684ff699
:108cf800ff71184616f020fa0346012b31d1fb7993
:108d0800002b06d1bb68ba791a71bb683a68da6178
:108d180005e0bb68ff221a71bb680022da61bb68f4
:108d280000225a61bb6800229a61bb6800221a625d
:108d3800bb6800225a62bb68184616f020fafb6826
:108d48005b68d3f8f830002b0cd0fb685b68d3f86d
:108d5800f840f868b968fb790122a04702e000bf33
:108d680000e000bf1437bd4690bd00bf64ba0020c4
:108d780090b58db004af0346b9607a60fb73744b4d
:108d8800bb61bb695b68002b00f0d880bb695b687e
:108d9800d0337b61fb7b002b40f0bd807b694ff6b5
:108da800ff71184616f0c8f90346012b40f0c88039
:108db8007b691b6a002b00f0a7807b699b697a6836
:108dc8009a4200f2a1807b699b697a689a4202d92b
:108dd8007b699b697b607b68fb615ae07b695b6aa6
:108de800fa699a4241d97b69186a7b695b6a1a46b3
:108df800b96833f006fc7b695b6aba681344bb60e8
:108e08007b695b6afa69d31afb617b6900221a6283
:108e18007b6900225a62bb695b68d3f8f830002b83
:108e280037d07b69184616f0aaf9bb695b68d3f896
:108e3800f840b8697969fb7b0422a0477b694ff643
:108e4800ff71184616f078f90346012b7ad17b6931
:108e58001b6a002b03d07b695b6a002b19d17b69e5
:108e680000229a6100237b6016e07b691b6afa691d
:108e7800b968184633f0c5fb7b691a6afb691a445e
:108e88007b691a627b695a6afb69d21a7b695a62e2
:108e980002e0fb69002ba1d17b699a697b68d21a31
:108ea8007b699a617b695a697b681a447b695a6154
:108eb8007b699b69002b13d07b69184616f05ff914
:108ec800b8697969bb695b68d3f8f8300293002305
:108ed8000193002300930023002211f0d2fb33e01a
:108ee8007b69184616f04bf9bb695b68d3f8f83014
:108ef800002b29d0bb695b68d3f8f840b869796959
:108f0800fb7b0222a0471fe07b69184616f037f961
:108f18000123fb7319e0bb695b68d3f8f830002bb9
:108f280013d0bb695b68d3f8f840b869bb695b6864
:108f3800d0331946fb7b0222a04706e000bf04e0bd
:108f480000bf02e000bf00e000bf2437bd4690bd6f
:108f580064ba002090b585b000af0346fb71194b89
:108f6800fb60fb685b68002b26d0fb685b68d0332e
:108f7800bb60fb685b68d3f8f830002b1fd0fb6838
:108f88005b68d3f8f840f868b968fb790322a04712
:108f9800bb684ff6ff71184616f0cef80346012b52
:108fa8000cd1bb68ff221a71bb680022da61bb686a
:108fb800184616f0e4f802e000bf00e000bf1437de
:108fc800bd4690bd64ba002080b483b000af78601d
:108fd8007b68002b00f09f807b6800225a717b68b9
:108fe80000229a717b680022da717b6800221a726b
:108ff8007b680022da727b68012283f838207b685c
:10900800022283f839207b681e2283f83a207b6885
:10901800022283f83b207b68d32283f83c207b68bc
:109028004ff49672da877b680022a3f840207b68a9
:10903800002283f848207b680022da647b680022db
:1090480083f850207b680022c3f884207b680022c4
:10905800c3f888207b680022c3f88c207b68002234
:10906800c3f890207b680022c3f894207b68002214
:10907800c3f898207b68002283f89c207b68002234
:1090880083f89d207b68012283f89e207b6800225c
:10909800c3f8a0207b680022c3f8a4207b680022c4
:1090a800c3f8a8207b680022c3f8ac207b681d4a5f
:1090b800c3f8b0207b680022c3f8b4207b68002284
:1090c800c3f8b8207b680022c3f8bc207b68002264
:1090d800c3f8c0207b680022c3f8c4207b68002244
:1090e800c3f8c8207b68ff2283f8d4207b6800225d
:1090f800c3f8f0207b680c4ac3f8d8207b680b4a79
:10910800c3f8dc207b680a4ac3f8e0207b680022a9
:10911800c3f8f82000e000bf0c37bd465df8047bbb
:10912800704700bfc0a80a01d18c0001798d0001e9
:109138005d8f000180b485b000af03463960fb80c5
:10914800fb88002b1bd1124bfb60fb681b78002ba4
:1091580001d0fb6815e00f4b00221a710d4b00225d
:10916800da64fb6801221a70fb6800229a70fb68b7
:1091780001225a70fb68074a5a60fb6801e04ff009
:10918800ff3318461437bd465df8047b704700bfaf
:1091980064ba002074ba002080b584b000af78604b
:1091a8007b68fb607b68b3f1ff3f19d0fb68002b3d
:1091b80016d0fb6800225a70fb680b4a93420bd109
:1091c800fb685b68fc33184615f0d9fffb685b68e1
:1091d800d033184615f0d3fffb6800229a7000e0e0
:1091e80000bf1037bd4680bd64ba002080b483b08c
:1091f80000af7860396000bf0c37bd465df8047b6e
:10920800704780b485b000af78607b68fb607b688e
:10921800b3f1ff3f02d0fb68002b02d14ff0ff33c0
:109228000de0fb6893f90130002b05d1fb681b7832
:10923800002b01d0012302e0fb6893f901301846a6
:109248001437bd465df8047b704780b588b000af21
:1092580078607b68fb617b68b3f1ff3f00f0eb80cf
:10926800fb69002b00f0e780fb6993f901300133bb
:10927800032b00f2db8001a252f823f04394000193
:1092880095920001d9920001ef930001fb691b78c8
:10929800002b00f0d480fb695b68fc33184615f09e
:1092a8003afffb695b68d033184615f034fffb6959
:1092b8005b6800221a710020fbf7f7fb00f0d6ff6d
:1092c80018f0aaff30f0a8fffb6900221a70b6e078
:1092d800fb695b68002b03d1fb69ff225a70b7e07a
:1092e80023f0acf90346012b06d923f07bf903469a
:1092f800594918460ff008f818f046fffbf7a7fa87
:109308000346002b0fd023f099f90346002b06d013
:1093180023f068f90346514918460ef0f5fffb693a
:10932800ff225a7094e0fb695b6803f1fc0000239c
:109338000a22012115f09efe0346012b03d0fb698a
:10934800ff225a7084e030f059ff07f10803142215
:109358000021184633f0fafb414bbb600023bb7673
:1093680007f108031846fbf78bfa0346002b10d0c9
:1093780023f064f90346002b06d023f033f90346a3
:10938800384918460ef0c0fffb69ff225a7000bf2b
:109398005ee000f04bff34480bf052fe3348fff715
:1093a80013fe334a002133480cf0c4fa012301228a
:1093b8000021314815f05efefb695b6842331846b0
:1093c800fcf7c3fdfb6902225a7023f037f9034604
:1093d800012b36d923f006f90346284918460ef022
:1093e80093ff00bf2de0fb695b68fc334ff6ff710c
:1093f800184615f0a1fe0346012b24d1fb6993f909
:109408000130022b21d1fb695b681b7903f008034b
:10941800002b1cd1fbf75efb0346002b13d0fb6926
:109428005b68fc33184615f0aafe0ce0fb69ff22c6
:109438005a7000bf0ce000bf0ae000bf08e000bfa0
:1094480006e000bf04e000bf02e000bf00e000bf8c
:109458002037bd4680bd00bfc42d0301dc2d0301ac
:109468005d820001f82d0301218b000174ba0020f0
:10947800d18c0001898a000144bb0020182e030109
:1094880080b584b000af03460a46fb8013467b7163
:109498000023fb60fb88002b08d1324bfb60fb6884
:1094a8005b68002b05d14ff0ff3357e04ff0ff33d7
:1094b80054e0fb681b7883f00103dbb2002b02d079
:1094c8004ff0ff334ae0fb689b78002b0dd0fb88f8
:1094d800002b08d1fb685b681b797a799a4202d025
:1094e8004ff0ff333ae0fb6838e01e4b9b7883f07f
:1094f8000103dbb2002b0bd01a4b9b7a83f00103dc
:10950800dbb2002b04d0fb685b681846fff75cfdf4
:10951800fb88002b1ed1fb685b68fa681a60fb6841
:109528005b687a791a71fb685b681b7903f008033a
:10953800002b0fd00020fbf7b8fafbf70ff8034613
:10954800002b02d04ff0ff3308e0fb6801229a702d
:10955800fb6803e0fb6801229a70fb681846103725
:10956800bd4680bd64ba002080b485b000af786085
:109578007b68fb607b68b3f1ff3f19d0fb68002b69
:1095880016d0fb685b68002b12d0fb685b681b6811
:109598007a689a4208d1fb685b680022da71fb6836
:1095a8005b68002283f89d20fb6800229a7000e027
:1095b80000bf1437bd465df8047b704780b584b0a2
:1095c80000af786039607b68fb607b68b3f1ff3f70
:1095d80005d0fb68002b02d03b68002b01d1022389
:1095e80009e001213868fcf7cbff0346002b01d0c6
:1095f800082300e0002318461037bd4680bd80b51b
:1096080084b000af786039607b68fb607b68b3f139
:10961800ff3f05d0fb68002b02d03b68002b01d12f
:10962800022309e000213868fcf7aaff0346002b53
:1096380001d0082300e0002318461037bd4680bd3e
:1096480080b584b000af786039607b68fb607b6868
:10965800b3f1ff3f09d0fb68002b06d0fb685b68bd
:10966800002b02d03b68002b01d1022308e0fb68e5
:109678005b68423306221946386832f0c2ff00237d
:1096880018461037bd4680bd80b485b000af7860fd
:109698007b68fb607b68b3f1ff3f06d0fb68002b5b
:1096a80003d0fb685b68002b01d1002314e0fb6842
:1096b8005b685b7983f00103dbb2002b01d00123e7
:1096c8000ae0fb685b689b7983f00103dbb2002b3f
:1096d80001d0022300e0032318461437bd465df885
:1096e800047b704780b485b000af786039607b68d0
:1096f800fb607b68b3f1ff3f06d0fb68002b03d00b
:10970800fb685b68002b01d102230de0fb689b78a6
:1097180083f00103dbb2002b01d0012304e0fb68d6
:109728005b683a68da64002318461437bd465df86a
:10973800047b704780b485b000af78607b68fb60bd
:109748007b68b3f1ff3f06d0fb68002b03d0fb68b2
:109758005b68002b01d100230be0fb689b7883f04a
:109768000103dbb2002b01d0002302e0fb685b6839
:10977800db6c18461437bd465df8047b704780b52e
:1097880084b000af786039607b68fb607b68b3f1b8
:10979800ff3f05d0fb68002b02d03b68002b01d1ae
:1097a800022317e0fb689b7883f00103dbb2002bf0
:1097b80001d001230ee00c220021386833f0c6f9ed
:1097c8003b6813221a803b6807225a803b680622ae
:1097d8009a80002318461037bd4680bd80b590b0ea
:1097e80000aff8600b467a60fb72fb68fb63fb68ae
:1097f800b3f1ff3f05d0fb6b002b02d07b68002b39
:1098080001d1022347e0fb6b9b7883f00103dbb2b5
:10981800002b01d001233ee0fb7a002b09d007f191
:1098280014031846fcf79dfc0346002b0bd00823b5
:1098380031e007f1140318460cf070f90346002bc9
:1098480001d0082327e022220021786833f07ef92e
:109858003b7e9ab27b681a807b7e9ab27b685a807c
:10986800bb7e9ab27b689a807b680c331a4607f1f4
:109878001e03186859689b681060516093607b6884
:1098880018331a4607f12a0318685968106051609e
:109898001b7a1372002318464037bd4680bd80b539
:1098a80084b000af78607b68fb607b68b3f1ff3ff2
:1098b80002d0fb68002b01d100230be0fb689b78ea
:1098c80083f00103dbb2002b01d0002302e0fcf798
:1098d80041fc034618461037bd4680bd80b586b0aa
:1098e80000aff8600b467a60fb72fb687b61fb682f
:1098f800b3f1ff3f05d07b69002b02d07b68002bba
:1099080001d1022324e07b699b7883f00103dbb259
:10991800002b01d001231be0fb7a002b0fd007f1ad
:10992800130319467868fcf7edfa0346002b01d0bb
:1099380008230de0fb7c002b09d1082308e0786898
:10994800fcf703fb0346002b01d0082300e00023ab
